{
  "contractName": "EnergyMarketplace",
  "abi": [
    {
      "inputs": [
        {
          "internalType": "address",
          "name": "_tokenAddress",
          "type": "address"
        }
      ],
      "stateMutability": "nonpayable",
      "type": "constructor"
    },
    {
      "anonymous": false,
      "inputs": [
        {
          "indexed": true,
          "internalType": "uint256",
          "name": "id",
          "type": "uint256"
        },
        {
          "indexed": true,
          "internalType": "address",
          "name": "producer",
          "type": "address"
        },
        {
          "indexed": false,
          "internalType": "string",
          "name": "energySource",
          "type": "string"
        },
        {
          "indexed": false,
          "internalType": "uint256",
          "name": "kWhProduced",
          "type": "uint256"
        }
      ],
      "name": "CertificateCreated",
      "type": "event"
    },
    {
      "anonymous": false,
      "inputs": [
        {
          "indexed": true,
          "internalType": "uint256",
          "name": "id",
          "type": "uint256"
        },
        {
          "indexed": true,
          "internalType": "address",
          "name": "verifier",
          "type": "address"
        }
      ],
      "name": "CertificateVerified",
      "type": "event"
    },
    {
      "anonymous": false,
      "inputs": [
        {
          "indexed": true,
          "internalType": "uint256",
          "name": "id",
          "type": "uint256"
        },
        {
          "indexed": true,
          "internalType": "address",
          "name": "seller",
          "type": "address"
        }
      ],
      "name": "ListingCancelled",
      "type": "event"
    },
    {
      "anonymous": false,
      "inputs": [
        {
          "indexed": true,
          "internalType": "uint256",
          "name": "id",
          "type": "uint256"
        },
        {
          "indexed": true,
          "internalType": "address",
          "name": "seller",
          "type": "address"
        },
        {
          "indexed": false,
          "internalType": "uint256",
          "name": "tokenAmount",
          "type": "uint256"
        },
        {
          "indexed": false,
          "internalType": "uint256",
          "name": "pricePerToken",
          "type": "uint256"
        }
      ],
      "name": "ListingCreated",
      "type": "event"
    },
    {
      "anonymous": false,
      "inputs": [
        {
          "indexed": true,
          "internalType": "uint256",
          "name": "id",
          "type": "uint256"
        },
        {
          "indexed": true,
          "internalType": "address",
          "name": "buyer",
          "type": "address"
        },
        {
          "indexed": true,
          "internalType": "address",
          "name": "seller",
          "type": "address"
        },
        {
          "indexed": false,
          "internalType": "uint256",
          "name": "tokenAmount",
          "type": "uint256"
        },
        {
          "indexed": false,
          "internalType": "uint256",
          "name": "totalPrice",
          "type": "uint256"
        }
      ],
      "name": "ListingPurchased",
      "type": "event"
    },
    {
      "inputs": [],
      "name": "admin",
      "outputs": [
        {
          "internalType": "address",
          "name": "",
          "type": "address"
        }
      ],
      "stateMutability": "view",
      "type": "function"
    },
    {
      "inputs": [],
      "name": "certificateCount",
      "outputs": [
        {
          "internalType": "uint256",
          "name": "",
          "type": "uint256"
        }
      ],
      "stateMutability": "view",
      "type": "function"
    },
    {
      "inputs": [
        {
          "internalType": "uint256",
          "name": "",
          "type": "uint256"
        }
      ],
      "name": "certificates",
      "outputs": [
        {
          "internalType": "uint256",
          "name": "id",
          "type": "uint256"
        },
        {
          "internalType": "address",
          "name": "producer",
          "type": "address"
        },
        {
          "internalType": "string",
          "name": "energySource",
          "type": "string"
        },
        {
          "internalType": "uint256",
          "name": "kWhProduced",
          "type": "uint256"
        },
        {
          "internalType": "uint256",
          "name": "tokenAmount",
          "type": "uint256"
        },
        {
          "internalType": "uint256",
          "name": "timestamp",
          "type": "uint256"
        },
        {
          "internalType": "string",
          "name": "location",
          "type": "string"
        },
        {
          "internalType": "bool",
          "name": "verified",
          "type": "bool"
        }
      ],
      "stateMutability": "view",
      "type": "function"
    },
    {
      "inputs": [],
      "name": "listingCount",
      "outputs": [
        {
          "internalType": "uint256",
          "name": "",
          "type": "uint256"
        }
      ],
      "stateMutability": "view",
      "type": "function"
    },
    {
      "inputs": [
        {
          "internalType": "uint256",
          "name": "",
          "type": "uint256"
        }
      ],
      "name": "listings",
      "outputs": [
        {
          "internalType": "uint256",
          "name": "id",
          "type": "uint256"
        },
        {
          "internalType": "address",
          "name": "seller",
          "type": "address"
        },
        {
          "internalType": "uint256",
          "name": "tokenAmount",
          "type": "uint256"
        },
        {
          "internalType": "uint256",
          "name": "pricePerToken",
          "type": "uint256"
        },
        {
          "internalType": "string",
          "name": "energySource",
          "type": "string"
        },
        {
          "internalType": "uint256",
          "name": "kWhRepresented",
          "type": "uint256"
        },
        {
          "internalType": "bool",
          "name": "active",
          "type": "bool"
        },
        {
          "internalType": "uint256",
          "name": "timestamp",
          "type": "uint256"
        }
      ],
      "stateMutability": "view",
      "type": "function"
    },
    {
      "inputs": [],
      "name": "platformFeePercent",
      "outputs": [
        {
          "internalType": "uint256",
          "name": "",
          "type": "uint256"
        }
      ],
      "stateMutability": "view",
      "type": "function"
    },
    {
      "inputs": [],
      "name": "tokenContract",
      "outputs": [
        {
          "internalType": "contract EnergyToken",
          "name": "",
          "type": "address"
        }
      ],
      "stateMutability": "view",
      "type": "function"
    },
    {
      "inputs": [
        {
          "internalType": "address",
          "name": "",
          "type": "address"
        }
      ],
      "name": "verifiers",
      "outputs": [
        {
          "internalType": "bool",
          "name": "",
          "type": "bool"
        }
      ],
      "stateMutability": "view",
      "type": "function"
    },
    {
      "inputs": [
        {
          "internalType": "address",
          "name": "verifier",
          "type": "address"
        }
      ],
      "name": "addVerifier",
      "outputs": [],
      "stateMutability": "nonpayable",
      "type": "function"
    },
    {
      "inputs": [
        {
          "internalType": "address",
          "name": "verifier",
          "type": "address"
        }
      ],
      "name": "removeVerifier",
      "outputs": [],
      "stateMutability": "nonpayable",
      "type": "function"
    },
    {
      "inputs": [
        {
          "internalType": "string",
          "name": "energySource",
          "type": "string"
        },
        {
          "internalType": "uint256",
          "name": "kWhProduced",
          "type": "uint256"
        },
        {
          "internalType": "string",
          "name": "location",
          "type": "string"
        }
      ],
      "name": "createCertificate",
      "outputs": [
        {
          "internalType": "uint256",
          "name": "",
          "type": "uint256"
        }
      ],
      "stateMutability": "nonpayable",
      "type": "function"
    },
    {
      "inputs": [
        {
          "internalType": "uint256",
          "name": "certificateId",
          "type": "uint256"
        },
        {
          "internalType": "uint256",
          "name": "tokenAmount",
          "type": "uint256"
        }
      ],
      "name": "verifyCertificate",
      "outputs": [],
      "stateMutability": "nonpayable",
      "type": "function"
    },
    {
      "inputs": [
        {
          "internalType": "uint256",
          "name": "tokenAmount",
          "type": "uint256"
        },
        {
          "internalType": "uint256",
          "name": "pricePerToken",
          "type": "uint256"
        },
        {
          "internalType": "string",
          "name": "energySource",
          "type": "string"
        },
        {
          "internalType": "uint256",
          "name": "kWhRepresented",
          "type": "uint256"
        }
      ],
      "name": "createListing",
      "outputs": [],
      "stateMutability": "nonpayable",
      "type": "function"
    },
    {
      "inputs": [
        {
          "internalType": "uint256",
          "name": "listingId",
          "type": "uint256"
        }
      ],
      "name": "buyListing",
      "outputs": [],
      "stateMutability": "payable",
      "type": "function"
    },
    {
      "inputs": [
        {
          "internalType": "uint256",
          "name": "listingId",
          "type": "uint256"
        }
      ],
      "name": "cancelListing",
      "outputs": [],
      "stateMutability": "nonpayable",
      "type": "function"
    },
    {
      "inputs": [],
      "name": "withdrawFees",
      "outputs": [],
      "stateMutability": "nonpayable",
      "type": "function"
    },
    {
      "inputs": [
        {
          "internalType": "uint256",
          "name": "newFeePercent",
          "type": "uint256"
        }
      ],
      "name": "updatePlatformFee",
      "outputs": [],
      "stateMutability": "nonpayable",
      "type": "function"
    }
  ],
  "bytecode": "0x608060405260026003553480156200001657600080fd5b50604051620031453803806200314583398181016040528101906200003c91906200012e565b806000806101000a81548173ffffffffffffffffffffffffffffffffffffffff021916908373ffffffffffffffffffffffffffffffffffffffff16021790555033600460006101000a81548173ffffffffffffffffffffffffffffffffffffffff021916908373ffffffffffffffffffffffffffffffffffffffff1602179055505062000160565b600080fd5b600073ffffffffffffffffffffffffffffffffffffffff82169050919050565b6000620000f682620000c9565b9050919050565b6200010881620000e9565b81146200011457600080fd5b50565b6000815190506200012881620000fd565b92915050565b600060208284031215620001475762000146620000c4565b5b6000620001578482850162000117565b91505092915050565b612fd580620001706000396000f3fe6080604052600436106100fe5760003560e01c80636c82448711610095578063a9b07c2611610064578063a9b07c2614610319578063aa0b598814610344578063ca2dfd0a1461036d578063de74e57b14610396578063f851a440146103da576100fe565b80636c8244871461024b57806384fbce76146102885780638c639a85146102c55780639000b3d6146102f0576100fe565b80634884f459116100d15780634884f4591461019557806352d7b89c146101b157806355a373d6146101dc578063663b3e2214610207576100fe565b80632ff126e114610103578063305a67a81461012c5780633faa6ffa14610155578063476343ee1461017e575b600080fd5b34801561010f57600080fd5b5061012a60048036038101906101259190611aca565b610405565b005b34801561013857600080fd5b50610153600480360381019061014e9190611b0a565b61098f565b005b34801561016157600080fd5b5061017c60048036038101906101779190611c7d565b610bf3565b005b34801561018a57600080fd5b50610193610ee5565b005b6101af60048036038101906101aa9190611b0a565b610fe0565b005b3480156101bd57600080fd5b506101c661132c565b6040516101d39190611d0f565b60405180910390f35b3480156101e857600080fd5b506101f1611332565b6040516101fe9190611da9565b60405180910390f35b34801561021357600080fd5b5061022e60048036038101906102299190611b0a565b611356565b604051610242989796959493929190611e7f565b60405180910390f35b34801561025757600080fd5b50610272600480360381019061026d9190611f37565b6114db565b60405161027f9190611f64565b60405180910390f35b34801561029457600080fd5b506102af60048036038101906102aa9190611f7f565b6114fb565b6040516102bc9190611d0f565b60405180910390f35b3480156102d157600080fd5b506102da61169d565b6040516102e79190611d0f565b60405180910390f35b3480156102fc57600080fd5b5061031760048036038101906103129190611f37565b6116a3565b005b34801561032557600080fd5b5061032e61178e565b60405161033b9190611d0f565b60405180910390f35b34801561035057600080fd5b5061036b60048036038101906103669190611b0a565b611794565b005b34801561037957600080fd5b50610394600480360381019061038f9190611f37565b611872565b005b3480156103a257600080fd5b506103bd60048036038101906103b89190611b0a565b61195d565b6040516103d198979695949392919061200a565b60405180910390f35b3480156103e657600080fd5b506103ef611a5a565b6040516103fc919061208f565b60405180910390f35b600760003373ffffffffffffffffffffffffffffffffffffffff1673ffffffffffffffffffffffffffffffffffffffff16815260200190815260200160002060009054906101000a900460ff16610491576040517f08c379a00000000000000000000000000000000000000000000000000000000081526004016104889061211c565b60405180910390fd5b60006006600084815260200190815260200160002090508060070160009054906101000a900460ff16156104fa576040517f08c379a00000000000000000000000000000000000000000000000000000000081526004016104f190612188565b60405180910390fd5b600060405160200161050b906121ff565b6040516020818303038152906040528051906020012082600201604051602001610535919061230c565b6040516020818303038152906040528051906020012003610559576000905061070c565b6040516020016105689061236f565b6040516020818303038152906040528051906020012082600201604051602001610592919061230c565b60405160208183030381529060405280519060200120036105b6576001905061070b565b6040516020016105c5906123d0565b60405160208183030381529060405280519060200120826002016040516020016105ef919061230c565b6040516020818303038152906040528051906020012003610613576002905061070a565b60405160200161062290612431565b604051602081830303815290604052805190602001208260020160405160200161064c919061230c565b60405160208183030381529060405280519060200120036106705760039050610709565b60405160200161067f90612492565b60405160208183030381529060405280519060200120826002016040516020016106a9919061230c565b60405160208183030381529060405280519060200120036106cd5760049050610708565b6040517f08c379a00000000000000000000000000000000000000000000000000000000081526004016106ff906124f3565b60405180910390fd5b5b5b5b5b60008060009054906101000a900473ffffffffffffffffffffffffffffffffffffffff1673ffffffffffffffffffffffffffffffffffffffff1663e9aa81b96040518163ffffffff1660e01b8152600401602060405180830381865afa15801561077a573d6000803e3d6000fd5b505050506040513d601f19601f8201168201806040525081019061079e9190612528565b90503073ffffffffffffffffffffffffffffffffffffffff168173ffffffffffffffffffffffffffffffffffffffff161461080e576040517f08c379a0000000000000000000000000000000000000000000000000000000008152600401610805906125c7565b60405180910390fd5b60008060009054906101000a900473ffffffffffffffffffffffffffffffffffffffff1673ffffffffffffffffffffffffffffffffffffffff1663a7a6be968560010160009054906101000a900473ffffffffffffffffffffffffffffffffffffffff16878688600301546040518563ffffffff1660e01b8152600401610898949392919061265e565b6020604051808303816000875af11580156108b7573d6000803e3d6000fd5b505050506040513d601f19601f820116820180604052508101906108db91906126cf565b90508061091d576040517f08c379a000000000000000000000000000000000000000000000000000000000815260040161091490612748565b60405180910390fd5b60018460070160006101000a81548160ff0219169083151502179055508484600401819055503373ffffffffffffffffffffffffffffffffffffffff16867fd7c96d6fc66839b1626cff5f8eccbacfa07b17981e577e09f16310f5fca240a860405160405180910390a3505050505050565b60006005600083815260200190815260200160002090503373ffffffffffffffffffffffffffffffffffffffff168160010160009054906101000a900473ffffffffffffffffffffffffffffffffffffffff1673ffffffffffffffffffffffffffffffffffffffff1614610a38576040517f08c379a0000000000000000000000000000000000000000000000000000000008152600401610a2f906127b4565b60405180910390fd5b8060060160009054906101000a900460ff16610a89576040517f08c379a0000000000000000000000000000000000000000000000000000000008152600401610a8090612820565b60405180910390fd5b60008054906101000a900473ffffffffffffffffffffffffffffffffffffffff1673ffffffffffffffffffffffffffffffffffffffff1663a9059cbb8260010160009054906101000a900473ffffffffffffffffffffffffffffffffffffffff1683600201546040518363ffffffff1660e01b8152600401610b0c929190612840565b6020604051808303816000875af1158015610b2b573d6000803e3d6000fd5b505050506040513d601f19601f82011682018060405250810190610b4f91906126cf565b610b8e576040517f08c379a0000000000000000000000000000000000000000000000000000000008152600401610b85906128b5565b60405180910390fd5b60008160060160006101000a81548160ff0219169083151502179055503373ffffffffffffffffffffffffffffffffffffffff16827f8e25282255ab31897df2b0456bb993ac7f84d376861aefd84901d2d63a7428a260405160405180910390a35050565b60008411610c36576040517f08c379a0000000000000000000000000000000000000000000000000000000008152600401610c2d90612947565b60405180910390fd5b60008311610c79576040517f08c379a0000000000000000000000000000000000000000000000000000000008152600401610c70906129d9565b60405180910390fd5b60008054906101000a900473ffffffffffffffffffffffffffffffffffffffff1673ffffffffffffffffffffffffffffffffffffffff166323b872dd3330876040518463ffffffff1660e01b8152600401610cd6939291906129f9565b6020604051808303816000875af1158015610cf5573d6000803e3d6000fd5b505050506040513d601f19601f82011682018060405250810190610d1991906126cf565b610d58576040517f08c379a0000000000000000000000000000000000000000000000000000000008152600401610d4f906128b5565b60405180910390fd5b60016000815480929190610d6b90612a5f565b919050555060405180610100016040528060015481526020013373ffffffffffffffffffffffffffffffffffffffff168152602001858152602001848152602001838152602001828152602001600115158152602001428152506005600060015481526020019081526020016000206000820151816000015560208201518160010160006101000a81548173ffffffffffffffffffffffffffffffffffffffff021916908373ffffffffffffffffffffffffffffffffffffffff16021790555060408201518160020155606082015181600301556080820151816004019081610e549190612c34565b5060a0820151816005015560c08201518160060160006101000a81548160ff02191690831515021790555060e082015181600701559050503373ffffffffffffffffffffffffffffffffffffffff166001547f12dc294b81a709d694b1337a350a12a00076c19a77a25aab67a5f0c07e0f164d8686604051610ed7929190612d06565b60405180910390a350505050565b600460009054906101000a900473ffffffffffffffffffffffffffffffffffffffff1673ffffffffffffffffffffffffffffffffffffffff163373ffffffffffffffffffffffffffffffffffffffff1614610f75576040517f08c379a0000000000000000000000000000000000000000000000000000000008152600401610f6c90612da1565b60405180910390fd5b600460009054906101000a900473ffffffffffffffffffffffffffffffffffffffff1673ffffffffffffffffffffffffffffffffffffffff166108fc479081150290604051600060405180830381858888f19350505050158015610fdd573d6000803e3d6000fd5b50565b60006005600083815260200190815260200160002090508060060160009054906101000a900460ff16611048576040517f08c379a000000000000000000000000000000000000000000000000000000000815260040161103f90612820565b60405180910390fd5b60008160030154826002015461105e9190612dc1565b9050803410156110a3576040517f08c379a000000000000000000000000000000000000000000000000000000000815260040161109a90612e4f565b60405180910390fd5b60006064600354836110b59190612dc1565b6110bf9190612e9e565b9050600081836110cf9190612ecf565b905060008054906101000a900473ffffffffffffffffffffffffffffffffffffffff1673ffffffffffffffffffffffffffffffffffffffff1663a9059cbb3386600201546040518363ffffffff1660e01b8152600401611130929190612840565b6020604051808303816000875af115801561114f573d6000803e3d6000fd5b505050506040513d601f19601f8201168201806040525081019061117391906126cf565b6111b2576040517f08c379a00000000000000000000000000000000000000000000000000000000081526004016111a9906128b5565b60405180910390fd5b8360010160009054906101000a900473ffffffffffffffffffffffffffffffffffffffff1673ffffffffffffffffffffffffffffffffffffffff166108fc829081150290604051600060405180830381858888f1935050505015801561121c573d6000803e3d6000fd5b5082341115611278573373ffffffffffffffffffffffffffffffffffffffff166108fc843461124b9190612ecf565b9081150290604051600060405180830381858888f19350505050158015611276573d6000803e3d6000fd5b505b60008460060160006101000a81548160ff0219169083151502179055508360010160009054906101000a900473ffffffffffffffffffffffffffffffffffffffff1673ffffffffffffffffffffffffffffffffffffffff163373ffffffffffffffffffffffffffffffffffffffff16867f67806fb1f9a1d5258c8ae3101868dc1bbd114cb2c1829b37dbdd88d64cf17d8287600201548760405161131d929190612d06565b60405180910390a45050505050565b60025481565b60008054906101000a900473ffffffffffffffffffffffffffffffffffffffff1681565b60066020528060005260406000206000915090508060000154908060010160009054906101000a900473ffffffffffffffffffffffffffffffffffffffff16908060020180546113a590612243565b80601f01602080910402602001604051908101604052809291908181526020018280546113d190612243565b801561141e5780601f106113f35761010080835404028352916020019161141e565b820191906000526020600020905b81548152906001019060200180831161140157829003601f168201915b50505050509080600301549080600401549080600501549080600601805461144590612243565b80601f016020809104026020016040519081016040528092919081815260200182805461147190612243565b80156114be5780601f10611493576101008083540402835291602001916114be565b820191906000526020600020905b8154815290600101906020018083116114a157829003601f168201915b5050505050908060070160009054906101000a900460ff16905088565b60076020528060005260406000206000915054906101000a900460ff1681565b60006002600081548092919061151090612a5f565b919050555060405180610100016040528060025481526020013373ffffffffffffffffffffffffffffffffffffffff16815260200185815260200184815260200160008152602001428152602001838152602001600015158152506006600060025481526020019081526020016000206000820151816000015560208201518160010160006101000a81548173ffffffffffffffffffffffffffffffffffffffff021916908373ffffffffffffffffffffffffffffffffffffffff16021790555060408201518160020190816115e69190612c34565b50606082015181600301556080820151816004015560a0820151816005015560c082015181600601908161161a9190612c34565b5060e08201518160070160006101000a81548160ff0219169083151502179055509050503373ffffffffffffffffffffffffffffffffffffffff166002547fcc68fee6ac9c3d08b8ad0fe1b8571648b4dbc9ef132835296f96d1027460087c8686604051611689929190612f03565b60405180910390a360025490509392505050565b60035481565b600460009054906101000a900473ffffffffffffffffffffffffffffffffffffffff1673ffffffffffffffffffffffffffffffffffffffff163373ffffffffffffffffffffffffffffffffffffffff1614611733576040517f08c379a000000000000000000000000000000000000000000000000000000000815260040161172a90612da1565b60405180910390fd5b6001600760008373ffffffffffffffffffffffffffffffffffffffff1673ffffffffffffffffffffffffffffffffffffffff16815260200190815260200160002060006101000a81548160ff02191690831515021790555050565b60015481565b600460009054906101000a900473ffffffffffffffffffffffffffffffffffffffff1673ffffffffffffffffffffffffffffffffffffffff163373ffffffffffffffffffffffffffffffffffffffff1614611824576040517f08c379a000000000000000000000000000000000000000000000000000000000815260040161181b90612da1565b60405180910390fd5b600a811115611868576040517f08c379a000000000000000000000000000000000000000000000000000000000815260040161185f90612f7f565b60405180910390fd5b8060038190555050565b600460009054906101000a900473ffffffffffffffffffffffffffffffffffffffff1673ffffffffffffffffffffffffffffffffffffffff163373ffffffffffffffffffffffffffffffffffffffff1614611902576040517f08c379a00000000000000000000000000000000000000000000000000000000081526004016118f990612da1565b60405180910390fd5b6000600760008373ffffffffffffffffffffffffffffffffffffffff1673ffffffffffffffffffffffffffffffffffffffff16815260200190815260200160002060006101000a81548160ff02191690831515021790555050565b60056020528060005260406000206000915090508060000154908060010160009054906101000a900473ffffffffffffffffffffffffffffffffffffffff16908060020154908060030154908060040180546119b890612243565b80601f01602080910402602001604051908101604052809291908181526020018280546119e490612243565b8015611a315780601f10611a0657610100808354040283529160200191611a31565b820191906000526020600020905b815481529060010190602001808311611a1457829003601f168201915b5050505050908060050154908060060160009054906101000a900460ff16908060070154905088565b600460009054906101000a900473ffffffffffffffffffffffffffffffffffffffff1681565b6000604051905090565b600080fd5b600080fd5b6000819050919050565b611aa781611a94565b8114611ab257600080fd5b50565b600081359050611ac481611a9e565b92915050565b60008060408385031215611ae157611ae0611a8a565b5b6000611aef85828601611ab5565b9250506020611b0085828601611ab5565b9150509250929050565b600060208284031215611b2057611b1f611a8a565b5b6000611b2e84828501611ab5565b91505092915050565b600080fd5b600080fd5b6000601f19601f8301169050919050565b7f4e487b7100000000000000000000000000000000000000000000000000000000600052604160045260246000fd5b611b8a82611b41565b810181811067ffffffffffffffff82111715611ba957611ba8611b52565b5b80604052505050565b6000611bbc611a80565b9050611bc88282611b81565b919050565b600067ffffffffffffffff821115611be857611be7611b52565b5b611bf182611b41565b9050602081019050919050565b82818337600083830152505050565b6000611c20611c1b84611bcd565b611bb2565b905082815260208101848484011115611c3c57611c3b611b3c565b5b611c47848285611bfe565b509392505050565b600082601f830112611c6457611c63611b37565b5b8135611c74848260208601611c0d565b91505092915050565b60008060008060808587031215611c9757611c96611a8a565b5b6000611ca587828801611ab5565b9450506020611cb687828801611ab5565b935050604085013567ffffffffffffffff811115611cd757611cd6611a8f565b5b611ce387828801611c4f565b9250506060611cf487828801611ab5565b91505092959194509250565b611d0981611a94565b82525050565b6000602082019050611d246000830184611d00565b92915050565b600073ffffffffffffffffffffffffffffffffffffffff82169050919050565b6000819050919050565b6000611d6f611d6a611d6584611d2a565b611d4a565b611d2a565b9050919050565b6000611d8182611d54565b9050919050565b6000611d9382611d76565b9050919050565b611da381611d88565b82525050565b6000602082019050611dbe6000830184611d9a565b92915050565b6000611dcf82611d2a565b9050919050565b611ddf81611dc4565b82525050565b600081519050919050565b600082825260208201905092915050565b60005b83811015611e1f578082015181840152602081019050611e04565b60008484015250505050565b6000611e3682611de5565b611e408185611df0565b9350611e50818560208601611e01565b611e5981611b41565b840191505092915050565b60008115159050919050565b611e7981611e64565b82525050565b600061010082019050611e95600083018b611d00565b611ea2602083018a611dd6565b8181036040830152611eb48189611e2b565b9050611ec36060830188611d00565b611ed06080830187611d00565b611edd60a0830186611d00565b81810360c0830152611eef8185611e2b565b9050611efe60e0830184611e70565b9998505050505050505050565b611f1481611dc4565b8114611f1f57600080fd5b50565b600081359050611f3181611f0b565b92915050565b600060208284031215611f4d57611f4c611a8a565b5b6000611f5b84828501611f22565b91505092915050565b6000602082019050611f796000830184611e70565b92915050565b600080600060608486031215611f9857611f97611a8a565b5b600084013567ffffffffffffffff811115611fb657611fb5611a8f565b5b611fc286828701611c4f565b9350506020611fd386828701611ab5565b925050604084013567ffffffffffffffff811115611ff457611ff3611a8f565b5b61200086828701611c4f565b9150509250925092565b600061010082019050612020600083018b611d00565b61202d602083018a611dd6565b61203a6040830189611d00565b6120476060830188611d00565b81810360808301526120598187611e2b565b905061206860a0830186611d00565b61207560c0830185611e70565b61208260e0830184611d00565b9998505050505050505050565b60006020820190506120a46000830184611dd6565b92915050565b7f4f6e6c7920617574686f72697a6564207665726966696572732063616e20706560008201527f72666f726d207468697320616374696f6e000000000000000000000000000000602082015250565b6000612106603183611df0565b9150612111826120aa565b604082019050919050565b60006020820190508181036000830152612135816120f9565b9050919050565b7f436572746966696361746520616c726561647920766572696669656400000000600082015250565b6000612172601c83611df0565b915061217d8261213c565b602082019050919050565b600060208201905081810360008301526121a181612165565b9050919050565b600081905092915050565b7f536f6c6172000000000000000000000000000000000000000000000000000000600082015250565b60006121e96005836121a8565b91506121f4826121b3565b600582019050919050565b600061220a826121dc565b9150819050919050565b7f4e487b7100000000000000000000000000000000000000000000000000000000600052602260045260246000fd5b6000600282049050600182168061225b57607f821691505b60208210810361226e5761226d612214565b5b50919050565b60008190508160005260206000209050919050565b6000815461229681612243565b6122a081866121a8565b945060018216600081146122bb57600181146122d057612303565b60ff1983168652811515820286019350612303565b6122d985612274565b60005b838110156122fb578154818901526001820191506020810190506122dc565b838801955050505b50505092915050565b60006123188284612289565b915081905092915050565b7f57696e6400000000000000000000000000000000000000000000000000000000600082015250565b60006123596004836121a8565b915061236482612323565b600482019050919050565b600061237a8261234c565b9150819050919050565b7f487964726f000000000000000000000000000000000000000000000000000000600082015250565b60006123ba6005836121a8565b91506123c582612384565b600582019050919050565b60006123db826123ad565b9150819050919050565b7f42696f6d61737300000000000000000000000000000000000000000000000000600082015250565b600061241b6007836121a8565b9150612426826123e5565b600782019050919050565b600061243c8261240e565b9150819050919050565b7f47656f746865726d616c00000000000000000000000000000000000000000000600082015250565b600061247c600a836121a8565b915061248782612446565b600a82019050919050565b600061249d8261246f565b9150819050919050565b7f496e76616c696420656e6572677920736f757263650000000000000000000000600082015250565b60006124dd601583611df0565b91506124e8826124a7565b602082019050919050565b6000602082019050818103600083015261250c816124d0565b9050919050565b60008151905061252281611f0b565b92915050565b60006020828403121561253e5761253d611a8a565b5b600061254c84828501612513565b91505092915050565b7f4d61726b6574706c616365206973206e6f7420617574686f72697a656420617360008201527f20746865206d61726b657420636f6e74726f6c6c657200000000000000000000602082015250565b60006125b1603683611df0565b91506125bc82612555565b604082019050919050565b600060208201905081810360008301526125e0816125a4565b9050919050565b7f4e487b7100000000000000000000000000000000000000000000000000000000600052602160045260246000fd5b60058110612627576126266125e7565b5b50565b600081905061263882612616565b919050565b60006126488261262a565b9050919050565b6126588161263d565b82525050565b60006080820190506126736000830187611dd6565b6126806020830186611d00565b61268d604083018561264f565b61269a6060830184611d00565b95945050505050565b6126ac81611e64565b81146126b757600080fd5b50565b6000815190506126c9816126a3565b92915050565b6000602082840312156126e5576126e4611a8a565b5b60006126f3848285016126ba565b91505092915050565b7f546f6b656e206d696e74696e67206661696c6564000000000000000000000000600082015250565b6000612732601483611df0565b915061273d826126fc565b602082019050919050565b6000602082019050818103600083015261276181612725565b9050919050565b7f4f6e6c792073656c6c65722063616e2063616e63656c206c697374696e670000600082015250565b600061279e601e83611df0565b91506127a982612768565b602082019050919050565b600060208201905081810360008301526127cd81612791565b9050919050565b7f4c697374696e67206973206e6f74206163746976650000000000000000000000600082015250565b600061280a601583611df0565b9150612815826127d4565b602082019050919050565b60006020820190508181036000830152612839816127fd565b9050919050565b60006040820190506128556000830185611dd6565b6128626020830184611d00565b9392505050565b7f546f6b656e207472616e73666572206661696c65640000000000000000000000600082015250565b600061289f601583611df0565b91506128aa82612869565b602082019050919050565b600060208201905081810360008301526128ce81612892565b9050919050565b7f546f6b656e20616d6f756e74206d75737420626520677265617465722074686160008201527f6e20300000000000000000000000000000000000000000000000000000000000602082015250565b6000612931602383611df0565b915061293c826128d5565b604082019050919050565b6000602082019050818103600083015261296081612924565b9050919050565b7f50726963652070657220746f6b656e206d75737420626520677265617465722060008201527f7468616e20300000000000000000000000000000000000000000000000000000602082015250565b60006129c3602683611df0565b91506129ce82612967565b604082019050919050565b600060208201905081810360008301526129f2816129b6565b9050919050565b6000606082019050612a0e6000830186611dd6565b612a1b6020830185611dd6565b612a286040830184611d00565b949350505050565b7f4e487b7100000000000000000000000000000000000000000000000000000000600052601160045260246000fd5b6000612a6a82611a94565b91507fffffffffffffffffffffffffffffffffffffffffffffffffffffffffffffffff8203612a9c57612a9b612a30565b5b600182019050919050565b60006020601f8301049050919050565b600082821b905092915050565b600060088302612af47fffffffffffffffffffffffffffffffffffffffffffffffffffffffffffffffff82612ab7565b612afe8683612ab7565b95508019841693508086168417925050509392505050565b6000612b31612b2c612b2784611a94565b611d4a565b611a94565b9050919050565b6000819050919050565b612b4b83612b16565b612b5f612b5782612b38565b848454612ac4565b825550505050565b600090565b612b74612b67565b612b7f818484612b42565b505050565b5b81811015612ba357612b98600082612b6c565b600181019050612b85565b5050565b601f821115612be857612bb981612274565b612bc284612aa7565b81016020851015612bd1578190505b612be5612bdd85612aa7565b830182612b84565b50505b505050565b600082821c905092915050565b6000612c0b60001984600802612bed565b1980831691505092915050565b6000612c248383612bfa565b9150826002028217905092915050565b612c3d82611de5565b67ffffffffffffffff811115612c5657612c55611b52565b5b612c608254612243565b612c6b828285612ba7565b600060209050601f831160018114612c9e5760008415612c8c578287015190505b612c968582612c18565b865550612cfe565b601f198416612cac86612274565b60005b82811015612cd457848901518255600182019150602085019450602081019050612caf565b86831015612cf15784890151612ced601f891682612bfa565b8355505b6001600288020188555050505b505050505050565b6000604082019050612d1b6000830185611d00565b612d286020830184611d00565b9392505050565b7f4f6e6c792061646d696e2063616e20706572666f726d2074686973206163746960008201527f6f6e000000000000000000000000000000000000000000000000000000000000602082015250565b6000612d8b602283611df0565b9150612d9682612d2f565b604082019050919050565b60006020820190508181036000830152612dba81612d7e565b9050919050565b6000612dcc82611a94565b9150612dd783611a94565b9250828202612de581611a94565b91508282048414831517612dfc57612dfb612a30565b5b5092915050565b7f496e73756666696369656e74207061796d656e74000000000000000000000000600082015250565b6000612e39601483611df0565b9150612e4482612e03565b602082019050919050565b60006020820190508181036000830152612e6881612e2c565b9050919050565b7f4e487b7100000000000000000000000000000000000000000000000000000000600052601260045260246000fd5b6000612ea982611a94565b9150612eb483611a94565b925082612ec457612ec3612e6f565b5b828204905092915050565b6000612eda82611a94565b9150612ee583611a94565b9250828203905081811115612efd57612efc612a30565b5b92915050565b60006040820190508181036000830152612f1d8185611e2b565b9050612f2c6020830184611d00565b9392505050565b7f4665652063616e6e6f7420657863656564203130250000000000000000000000600082015250565b6000612f69601583611df0565b9150612f7482612f33565b602082019050919050565b60006020820190508181036000830152612f9881612f5c565b905091905056fea26469706673582212202ae80e5abf49fa02481d80040c50ddfb1797fd5d2a1c54627a754496b34800c664736f6c63430008110033",
  "immutableReferences": {},
  "source": "// SPDX-License-Identifier: MIT\npragma solidity ^0.8.17;\n\nimport \"./EnergyToken.sol\";\ncontract EnergyMarketplace {\n    struct EnergyListing {\n        uint256 id;\n        address seller;\n        uint256 tokenAmount;\n        uint256 pricePerToken;\n        string energySource;\n        uint256 kWhRepresented;\n        bool active;\n        uint256 timestamp;\n    }\n\n    struct Certificate {\n        uint256 id;\n        address producer;\n        string energySource;\n        uint256 kWhProduced;\n        uint256 tokenAmount;\n        uint256 timestamp;\n        string location;\n        bool verified;\n    }\n\n    EnergyToken public tokenContract;\n    uint256 public listingCount;\n    uint256 public certificateCount;\n    uint256 public platformFeePercent = 2; // 2% fee\n    address public admin;\n\n    mapping(uint256 => EnergyListing) public listings;\n    mapping(uint256 => Certificate) public certificates;\n    mapping(address => bool) public verifiers;\n\n    event ListingCreated(uint256 indexed id, address indexed seller, uint256 tokenAmount, uint256 pricePerToken);\n    event ListingPurchased(uint256 indexed id, address indexed buyer, address indexed seller, uint256 tokenAmount, uint256 totalPrice);\n    event ListingCancelled(uint256 indexed id, address indexed seller);\n    event CertificateCreated(uint256 indexed id, address indexed producer, string energySource, uint256 kWhProduced);\n    event CertificateVerified(uint256 indexed id, address indexed verifier);\n\n    constructor(address _tokenAddress) {\n        tokenContract = EnergyToken(_tokenAddress);\n        admin = msg.sender;\n    }\n\n    modifier onlyAdmin() {\n        require(msg.sender == admin, \"Only admin can perform this action\");\n        _;\n    }\n\n    modifier onlyVerifier() {\n        require(verifiers[msg.sender], \"Only authorized verifiers can perform this action\");\n        _;\n    }\n\n    function addVerifier(address verifier) public onlyAdmin {\n        verifiers[verifier] = true;\n    }\n\n    function removeVerifier(address verifier) public onlyAdmin {\n        verifiers[verifier] = false;\n    }\n\n    function createCertificate(\n        string memory energySource,\n        uint256 kWhProduced,\n        string memory location\n    ) public returns (uint256) {\n        certificateCount++;\n\n        certificates[certificateCount] = Certificate({\n            id: certificateCount,\n            producer: msg.sender,\n            energySource: energySource,\n            kWhProduced: kWhProduced,\n            tokenAmount: 0, // Will be set when verified\n            timestamp: block.timestamp,\n            location: location,\n            verified: false\n        });\n\n        emit CertificateCreated(certificateCount, msg.sender, energySource, kWhProduced);\n        return certificateCount;\n    }\n\n    function verifyCertificate(uint256 certificateId, uint256 tokenAmount) public onlyVerifier {\n        Certificate storage cert = certificates[certificateId];\n        require(!cert.verified, \"Certificate already verified\");\n\n        // Determine energy source enum\n        EnergyToken.EnergySource energySourceEnum;\n        if (keccak256(abi.encodePacked(cert.energySource)) == keccak256(abi.encodePacked(\"Solar\"))) {\n            energySourceEnum = EnergyToken.EnergySource.Solar;\n        } else if (keccak256(abi.encodePacked(cert.energySource)) == keccak256(abi.encodePacked(\"Wind\"))) {\n            energySourceEnum = EnergyToken.EnergySource.Wind;\n        } else if (keccak256(abi.encodePacked(cert.energySource)) == keccak256(abi.encodePacked(\"Hydro\"))) {\n            energySourceEnum = EnergyToken.EnergySource.Hydro;\n        } else if (keccak256(abi.encodePacked(cert.energySource)) == keccak256(abi.encodePacked(\"Biomass\"))) {\n            energySourceEnum = EnergyToken.EnergySource.Biomass;\n        } else if (keccak256(abi.encodePacked(cert.energySource)) == keccak256(abi.encodePacked(\"Geothermal\"))) {\n            energySourceEnum = EnergyToken.EnergySource.Geothermal;\n        } else {\n            revert(\"Invalid energy source\");\n        }\n\n        // Verify this contract is the market controller before minting\n        address currentController = tokenContract.marketController();\n        require(currentController == address(this), \"Marketplace is not authorized as the market controller\");\n\n        // Mint tokens to the producer\n        bool mintSuccess = tokenContract.mint(cert.producer, tokenAmount, energySourceEnum, cert.kWhProduced);\n        require(mintSuccess, \"Token minting failed\");\n\n        // Update certificate\n        cert.verified = true;\n        cert.tokenAmount = tokenAmount;\n\n        emit CertificateVerified(certificateId, msg.sender);\n    }\n\n    function createListing(uint256 tokenAmount, uint256 pricePerToken, string memory energySource, uint256 kWhRepresented) public {\n        require(tokenAmount > 0, \"Token amount must be greater than 0\");\n        require(pricePerToken > 0, \"Price per token must be greater than 0\");\n\n        // Transfer tokens from seller to this contract\n        require(\n            tokenContract.transferFrom(msg.sender, address(this), tokenAmount),\n            \"Token transfer failed\"\n        );\n\n        listingCount++;\n\n        listings[listingCount] = EnergyListing({\n            id: listingCount,\n            seller: msg.sender,\n            tokenAmount: tokenAmount,\n            pricePerToken: pricePerToken,\n            energySource: energySource,\n            kWhRepresented: kWhRepresented,\n            active: true,\n            timestamp: block.timestamp\n        });\n\n        emit ListingCreated(listingCount, msg.sender, tokenAmount, pricePerToken);\n    }\n\n    function buyListing(uint256 listingId) public payable {\n        EnergyListing storage listing = listings[listingId];\n        require(listing.active, \"Listing is not active\");\n\n        uint256 totalPrice = listing.tokenAmount * listing.pricePerToken;\n        require(msg.value >= totalPrice, \"Insufficient payment\");\n\n        // Calculate platform fee\n        uint256 platformFee = (totalPrice * platformFeePercent) / 100;\n        uint256 sellerPayment = totalPrice - platformFee;\n\n        // Transfer tokens to buyer\n        require(\n            tokenContract.transfer(msg.sender, listing.tokenAmount),\n            \"Token transfer failed\"\n        );\n\n        // Transfer ETH to seller\n        payable(listing.seller).transfer(sellerPayment);\n\n        // Refund excess payment\n        if (msg.value > totalPrice) {\n            payable(msg.sender).transfer(msg.value - totalPrice);\n        }\n\n        // Mark listing as inactive\n        listing.active = false;\n\n        emit ListingPurchased(listingId, msg.sender, listing.seller, listing.tokenAmount, totalPrice);\n    }\n\n    function cancelListing(uint256 listingId) public {\n        EnergyListing storage listing = listings[listingId];\n        require(listing.seller == msg.sender, \"Only seller can cancel listing\");\n        require(listing.active, \"Listing is not active\");\n\n        // Return tokens to seller\n        require(\n            tokenContract.transfer(listing.seller, listing.tokenAmount),\n            \"Token transfer failed\"\n        );\n\n        // Mark listing as inactive\n        listing.active = false;\n\n        emit ListingCancelled(listingId, msg.sender);\n    }\n\n    function withdrawFees() public onlyAdmin {\n        payable(admin).transfer(address(this).balance);\n    }\n\n    function updatePlatformFee(uint256 newFeePercent) public onlyAdmin {\n        require(newFeePercent <= 10, \"Fee cannot exceed 10%\");\n        platformFeePercent = newFeePercent;\n    }\n}\n",
  "sourcePath": "/Users/sluzhba/Downloads/RECS-DApp/contracts/EnergyMarketplace.sol",
  "compiler": {
    "name": "solc",
    "version": "0.8.17+commit.8df45f5f.Emscripten.clang"
  },
  "schemaVersion": "3.4.16",
  "updatedAt": "2025-04-25T07:36:18.988Z",
  "devdoc": {
    "kind": "dev",
    "methods": {},
    "version": 1
  },
  "userdoc": {
    "kind": "user",
    "methods": {},
    "version": 1
  }
}