{
  "contractName": "EnergyToken",
  "abi": [
    {
      "inputs": [
        {
          "internalType": "address",
          "name": "_marketController",
          "type": "address"
        }
      ],
      "stateMutability": "nonpayable",
      "type": "constructor"
    },
    {
      "anonymous": false,
      "inputs": [
        {
          "indexed": true,
          "internalType": "address",
          "name": "owner",
          "type": "address"
        },
        {
          "indexed": true,
          "internalType": "address",
          "name": "spender",
          "type": "address"
        },
        {
          "indexed": false,
          "internalType": "uint256",
          "name": "value",
          "type": "uint256"
        }
      ],
      "name": "Approval",
      "type": "event"
    },
    {
      "anonymous": false,
      "inputs": [
        {
          "indexed": true,
          "internalType": "address",
          "name": "previousController",
          "type": "address"
        },
        {
          "indexed": true,
          "internalType": "address",
          "name": "newController",
          "type": "address"
        }
      ],
      "name": "MarketControllerChanged",
      "type": "event"
    },
    {
      "anonymous": false,
      "inputs": [
        {
          "indexed": true,
          "internalType": "address",
          "name": "to",
          "type": "address"
        },
        {
          "indexed": false,
          "internalType": "uint256",
          "name": "value",
          "type": "uint256"
        },
        {
          "indexed": false,
          "internalType": "string",
          "name": "energySource",
          "type": "string"
        },
        {
          "indexed": false,
          "internalType": "uint256",
          "name": "kWhProduced",
          "type": "uint256"
        }
      ],
      "name": "Mint",
      "type": "event"
    },
    {
      "anonymous": false,
      "inputs": [
        {
          "indexed": true,
          "internalType": "address",
          "name": "from",
          "type": "address"
        },
        {
          "indexed": true,
          "internalType": "address",
          "name": "to",
          "type": "address"
        },
        {
          "indexed": false,
          "internalType": "uint256",
          "name": "value",
          "type": "uint256"
        }
      ],
      "name": "Transfer",
      "type": "event"
    },
    {
      "inputs": [
        {
          "internalType": "address",
          "name": "",
          "type": "address"
        },
        {
          "internalType": "address",
          "name": "",
          "type": "address"
        }
      ],
      "name": "allowance",
      "outputs": [
        {
          "internalType": "uint256",
          "name": "",
          "type": "uint256"
        }
      ],
      "stateMutability": "view",
      "type": "function",
      "constant": true
    },
    {
      "inputs": [
        {
          "internalType": "address",
          "name": "",
          "type": "address"
        }
      ],
      "name": "balanceOf",
      "outputs": [
        {
          "internalType": "uint256",
          "name": "",
          "type": "uint256"
        }
      ],
      "stateMutability": "view",
      "type": "function",
      "constant": true
    },
    {
      "inputs": [],
      "name": "decimals",
      "outputs": [
        {
          "internalType": "uint8",
          "name": "",
          "type": "uint8"
        }
      ],
      "stateMutability": "view",
      "type": "function",
      "constant": true
    },
    {
      "inputs": [],
      "name": "marketController",
      "outputs": [
        {
          "internalType": "address",
          "name": "",
          "type": "address"
        }
      ],
      "stateMutability": "view",
      "type": "function",
      "constant": true
    },
    {
      "inputs": [],
      "name": "name",
      "outputs": [
        {
          "internalType": "string",
          "name": "",
          "type": "string"
        }
      ],
      "stateMutability": "view",
      "type": "function",
      "constant": true
    },
    {
      "inputs": [],
      "name": "symbol",
      "outputs": [
        {
          "internalType": "string",
          "name": "",
          "type": "string"
        }
      ],
      "stateMutability": "view",
      "type": "function",
      "constant": true
    },
    {
      "inputs": [],
      "name": "totalSupply",
      "outputs": [
        {
          "internalType": "uint256",
          "name": "",
          "type": "uint256"
        }
      ],
      "stateMutability": "view",
      "type": "function",
      "constant": true
    },
    {
      "inputs": [
        {
          "internalType": "address",
          "name": "to",
          "type": "address"
        },
        {
          "internalType": "uint256",
          "name": "value",
          "type": "uint256"
        }
      ],
      "name": "transfer",
      "outputs": [
        {
          "internalType": "bool",
          "name": "success",
          "type": "bool"
        }
      ],
      "stateMutability": "nonpayable",
      "type": "function"
    },
    {
      "inputs": [
        {
          "internalType": "address",
          "name": "spender",
          "type": "address"
        },
        {
          "internalType": "uint256",
          "name": "value",
          "type": "uint256"
        }
      ],
      "name": "approve",
      "outputs": [
        {
          "internalType": "bool",
          "name": "success",
          "type": "bool"
        }
      ],
      "stateMutability": "nonpayable",
      "type": "function"
    },
    {
      "inputs": [
        {
          "internalType": "address",
          "name": "from",
          "type": "address"
        },
        {
          "internalType": "address",
          "name": "to",
          "type": "address"
        },
        {
          "internalType": "uint256",
          "name": "value",
          "type": "uint256"
        }
      ],
      "name": "transferFrom",
      "outputs": [
        {
          "internalType": "bool",
          "name": "success",
          "type": "bool"
        }
      ],
      "stateMutability": "nonpayable",
      "type": "function"
    },
    {
      "inputs": [
        {
          "internalType": "address",
          "name": "to",
          "type": "address"
        },
        {
          "internalType": "uint256",
          "name": "value",
          "type": "uint256"
        },
        {
          "internalType": "enum EnergyToken.EnergySource",
          "name": "energySource",
          "type": "uint8"
        },
        {
          "internalType": "uint256",
          "name": "kWhProduced",
          "type": "uint256"
        }
      ],
      "name": "mint",
      "outputs": [
        {
          "internalType": "bool",
          "name": "success",
          "type": "bool"
        }
      ],
      "stateMutability": "nonpayable",
      "type": "function"
    },
    {
      "inputs": [
        {
          "internalType": "address",
          "name": "newController",
          "type": "address"
        }
      ],
      "name": "changeMarketController",
      "outputs": [],
      "stateMutability": "nonpayable",
      "type": "function"
    }
  ],
  "bytecode": "0x60806040526040518060400160405280601781526020017f52656e657761626c6520456e6572677920437265646974000000000000000000815250600090816200004a9190620003a3565b506040518060400160405280600381526020017f524543000000000000000000000000000000000000000000000000000000000081525060019081620000919190620003a3565b506012600260006101000a81548160ff021916908360ff160217905550348015620000bb57600080fd5b5060405162001ba338038062001ba38339818101604052810190620000e19190620004f4565b80600660006101000a81548173ffffffffffffffffffffffffffffffffffffffff021916908373ffffffffffffffffffffffffffffffffffffffff1602179055505062000526565b600081519050919050565b7f4e487b7100000000000000000000000000000000000000000000000000000000600052604160045260246000fd5b7f4e487b7100000000000000000000000000000000000000000000000000000000600052602260045260246000fd5b60006002820490506001821680620001ab57607f821691505b602082108103620001c157620001c062000163565b5b50919050565b60008190508160005260206000209050919050565b60006020601f8301049050919050565b600082821b905092915050565b6000600883026200022b7fffffffffffffffffffffffffffffffffffffffffffffffffffffffffffffffff82620001ec565b620002378683620001ec565b95508019841693508086168417925050509392505050565b6000819050919050565b6000819050919050565b6000620002846200027e62000278846200024f565b62000259565b6200024f565b9050919050565b6000819050919050565b620002a08362000263565b620002b8620002af826200028b565b848454620001f9565b825550505050565b600090565b620002cf620002c0565b620002dc81848462000295565b505050565b5b818110156200030457620002f8600082620002c5565b600181019050620002e2565b5050565b601f82111562000353576200031d81620001c7565b6200032884620001dc565b8101602085101562000338578190505b620003506200034785620001dc565b830182620002e1565b50505b505050565b600082821c905092915050565b6000620003786000198460080262000358565b1980831691505092915050565b600062000393838362000365565b9150826002028217905092915050565b620003ae8262000129565b67ffffffffffffffff811115620003ca57620003c962000134565b5b620003d6825462000192565b620003e382828562000308565b600060209050601f8311600181146200041b576000841562000406578287015190505b62000412858262000385565b86555062000482565b601f1984166200042b86620001c7565b60005b8281101562000455578489015182556001820191506020850194506020810190506200042e565b8683101562000475578489015162000471601f89168262000365565b8355505b6001600288020188555050505b505050505050565b600080fd5b600073ffffffffffffffffffffffffffffffffffffffff82169050919050565b6000620004bc826200048f565b9050919050565b620004ce81620004af565b8114620004da57600080fd5b50565b600081519050620004ee81620004c3565b92915050565b6000602082840312156200050d576200050c6200048a565b5b60006200051d84828501620004dd565b91505092915050565b61166d80620005366000396000f3fe608060405234801561001057600080fd5b50600436106100b45760003560e01c806395d89b411161007157806395d89b41146101a3578063a7a6be96146101c1578063a9059cbb146101f1578063bdbb0b9314610221578063dd62ed3e1461023d578063e9aa81b91461026d576100b4565b806306fdde03146100b9578063095ea7b3146100d757806318160ddd1461010757806323b872dd14610125578063313ce5671461015557806370a0823114610173575b600080fd5b6100c161028b565b6040516100ce9190610fcf565b60405180910390f35b6100f160048036038101906100ec919061108a565b610319565b6040516100fe91906110e5565b60405180910390f35b61010f61040b565b60405161011c919061110f565b60405180910390f35b61013f600480360381019061013a919061112a565b610411565b60405161014c91906110e5565b60405180910390f35b61015d610703565b60405161016a9190611199565b60405180910390f35b61018d600480360381019061018891906111b4565b610716565b60405161019a919061110f565b60405180910390f35b6101ab61072e565b6040516101b89190610fcf565b60405180910390f35b6101db60048036038101906101d69190611206565b6107bc565b6040516101e891906110e5565b60405180910390f35b61020b6004803603810190610206919061108a565b610b90565b60405161021891906110e5565b60405180910390f35b61023b600480360381019061023691906111b4565b610d2f565b005b6102576004803603810190610252919061126d565b610ef4565b604051610264919061110f565b60405180910390f35b610275610f19565b60405161028291906112bc565b60405180910390f35b6000805461029890611306565b80601f01602080910402602001604051908101604052809291908181526020018280546102c490611306565b80156103115780601f106102e657610100808354040283529160200191610311565b820191906000526020600020905b8154815290600101906020018083116102f457829003601f168201915b505050505081565b600081600560003373ffffffffffffffffffffffffffffffffffffffff1673ffffffffffffffffffffffffffffffffffffffff16815260200190815260200160002060008573ffffffffffffffffffffffffffffffffffffffff1673ffffffffffffffffffffffffffffffffffffffff168152602001908152602001600020819055508273ffffffffffffffffffffffffffffffffffffffff163373ffffffffffffffffffffffffffffffffffffffff167f8c5be1e5ebec7d5bd14f71427d1e84f3dd0314c0f7b2291e5b200ac8c7c3b925846040516103f9919061110f565b60405180910390a36001905092915050565b60035481565b600081600460008673ffffffffffffffffffffffffffffffffffffffff1673ffffffffffffffffffffffffffffffffffffffff168152602001908152602001600020541015610495576040517f08c379a000000000000000000000000000000000000000000000000000000000815260040161048c90611383565b60405180910390fd5b81600560008673ffffffffffffffffffffffffffffffffffffffff1673ffffffffffffffffffffffffffffffffffffffff16815260200190815260200160002060003373ffffffffffffffffffffffffffffffffffffffff1673ffffffffffffffffffffffffffffffffffffffff168152602001908152602001600020541015610554576040517f08c379a000000000000000000000000000000000000000000000000000000000815260040161054b906113ef565b60405180910390fd5b81600460008673ffffffffffffffffffffffffffffffffffffffff1673ffffffffffffffffffffffffffffffffffffffff16815260200190815260200160002060008282546105a3919061143e565b9250508190555081600460008573ffffffffffffffffffffffffffffffffffffffff1673ffffffffffffffffffffffffffffffffffffffff16815260200190815260200160002060008282546105f99190611472565b9250508190555081600560008673ffffffffffffffffffffffffffffffffffffffff1673ffffffffffffffffffffffffffffffffffffffff16815260200190815260200160002060003373ffffffffffffffffffffffffffffffffffffffff1673ffffffffffffffffffffffffffffffffffffffff168152602001908152602001600020600082825461068c919061143e565b925050819055508273ffffffffffffffffffffffffffffffffffffffff168473ffffffffffffffffffffffffffffffffffffffff167fddf252ad1be2c89b69c2b068fc378daa952ba7f163c4a11628f55a4df523b3ef846040516106f0919061110f565b60405180910390a3600190509392505050565b600260009054906101000a900460ff1681565b60046020528060005260406000206000915090505481565b6001805461073b90611306565b80601f016020809104026020016040519081016040528092919081815260200182805461076790611306565b80156107b45780601f10610789576101008083540402835291602001916107b4565b820191906000526020600020905b81548152906001019060200180831161079757829003601f168201915b505050505081565b6000600660009054906101000a900473ffffffffffffffffffffffffffffffffffffffff1673ffffffffffffffffffffffffffffffffffffffff163373ffffffffffffffffffffffffffffffffffffffff161461084e576040517f08c379a000000000000000000000000000000000000000000000000000000000815260040161084590611518565b60405180910390fd5b83600460008773ffffffffffffffffffffffffffffffffffffffff1673ffffffffffffffffffffffffffffffffffffffff168152602001908152602001600020600082825461089d9190611472565b9250508190555083600360008282546108b69190611472565b925050819055506060600060048111156108d3576108d2611538565b5b8460048111156108e6576108e5611538565b5b03610928576040518060400160405280600581526020017f536f6c61720000000000000000000000000000000000000000000000000000008152509050610acb565b6001600481111561093c5761093b611538565b5b84600481111561094f5761094e611538565b5b03610991576040518060400160405280600481526020017f57696e64000000000000000000000000000000000000000000000000000000008152509050610aca565b600260048111156109a5576109a4611538565b5b8460048111156109b8576109b7611538565b5b036109fa576040518060400160405280600581526020017f487964726f0000000000000000000000000000000000000000000000000000008152509050610ac9565b60036004811115610a0e57610a0d611538565b5b846004811115610a2157610a20611538565b5b03610a63576040518060400160405280600781526020017f42696f6d617373000000000000000000000000000000000000000000000000008152509050610ac8565b600480811115610a7657610a75611538565b5b846004811115610a8957610a88611538565b5b03610ac7576040518060400160405280600a81526020017f47656f746865726d616c0000000000000000000000000000000000000000000081525090505b5b5b5b5b8573ffffffffffffffffffffffffffffffffffffffff167f704496b72f6d3fd6e462fa31e27faddedde127bc9942bc94320e0c115b00cedf868386604051610b1593929190611567565b60405180910390a28573ffffffffffffffffffffffffffffffffffffffff16600073ffffffffffffffffffffffffffffffffffffffff167fddf252ad1be2c89b69c2b068fc378daa952ba7f163c4a11628f55a4df523b3ef87604051610b7b919061110f565b60405180910390a36001915050949350505050565b600081600460003373ffffffffffffffffffffffffffffffffffffffff1673ffffffffffffffffffffffffffffffffffffffff168152602001908152602001600020541015610c14576040517f08c379a0000000000000000000000000000000000000000000000000000000008152600401610c0b90611383565b60405180910390fd5b81600460003373ffffffffffffffffffffffffffffffffffffffff1673ffffffffffffffffffffffffffffffffffffffff1681526020019081526020016000206000828254610c63919061143e565b9250508190555081600460008573ffffffffffffffffffffffffffffffffffffffff1673ffffffffffffffffffffffffffffffffffffffff1681526020019081526020016000206000828254610cb99190611472565b925050819055508273ffffffffffffffffffffffffffffffffffffffff163373ffffffffffffffffffffffffffffffffffffffff167fddf252ad1be2c89b69c2b068fc378daa952ba7f163c4a11628f55a4df523b3ef84604051610d1d919061110f565b60405180910390a36001905092915050565b600660009054906101000a900473ffffffffffffffffffffffffffffffffffffffff1673ffffffffffffffffffffffffffffffffffffffff163373ffffffffffffffffffffffffffffffffffffffff1614610dbf576040517f08c379a0000000000000000000000000000000000000000000000000000000008152600401610db690611518565b60405180910390fd5b600073ffffffffffffffffffffffffffffffffffffffff168173ffffffffffffffffffffffffffffffffffffffff1603610e2e576040517f08c379a0000000000000000000000000000000000000000000000000000000008152600401610e2590611617565b60405180910390fd5b6000600660009054906101000a900473ffffffffffffffffffffffffffffffffffffffff16905081600660006101000a81548173ffffffffffffffffffffffffffffffffffffffff021916908373ffffffffffffffffffffffffffffffffffffffff1602179055508173ffffffffffffffffffffffffffffffffffffffff168173ffffffffffffffffffffffffffffffffffffffff167f8f13d0d1234102fe1db9a693e113ceae11c91c6aebc488ec3b7da92b5d96255160405160405180910390a35050565b6005602052816000526040600020602052806000526040600020600091509150505481565b600660009054906101000a900473ffffffffffffffffffffffffffffffffffffffff1681565b600081519050919050565b600082825260208201905092915050565b60005b83811015610f79578082015181840152602081019050610f5e565b60008484015250505050565b6000601f19601f8301169050919050565b6000610fa182610f3f565b610fab8185610f4a565b9350610fbb818560208601610f5b565b610fc481610f85565b840191505092915050565b60006020820190508181036000830152610fe98184610f96565b905092915050565b600080fd5b600073ffffffffffffffffffffffffffffffffffffffff82169050919050565b600061102182610ff6565b9050919050565b61103181611016565b811461103c57600080fd5b50565b60008135905061104e81611028565b92915050565b6000819050919050565b61106781611054565b811461107257600080fd5b50565b6000813590506110848161105e565b92915050565b600080604083850312156110a1576110a0610ff1565b5b60006110af8582860161103f565b92505060206110c085828601611075565b9150509250929050565b60008115159050919050565b6110df816110ca565b82525050565b60006020820190506110fa60008301846110d6565b92915050565b61110981611054565b82525050565b60006020820190506111246000830184611100565b92915050565b60008060006060848603121561114357611142610ff1565b5b60006111518682870161103f565b93505060206111628682870161103f565b925050604061117386828701611075565b9150509250925092565b600060ff82169050919050565b6111938161117d565b82525050565b60006020820190506111ae600083018461118a565b92915050565b6000602082840312156111ca576111c9610ff1565b5b60006111d88482850161103f565b91505092915050565b600581106111ee57600080fd5b50565b600081359050611200816111e1565b92915050565b600080600080608085870312156112205761121f610ff1565b5b600061122e8782880161103f565b945050602061123f87828801611075565b9350506040611250878288016111f1565b925050606061126187828801611075565b91505092959194509250565b6000806040838503121561128457611283610ff1565b5b60006112928582860161103f565b92505060206112a38582860161103f565b9150509250929050565b6112b681611016565b82525050565b60006020820190506112d160008301846112ad565b92915050565b7f4e487b7100000000000000000000000000000000000000000000000000000000600052602260045260246000fd5b6000600282049050600182168061131e57607f821691505b602082108103611331576113306112d7565b5b50919050565b7f496e73756666696369656e742062616c616e6365000000000000000000000000600082015250565b600061136d601483610f4a565b915061137882611337565b602082019050919050565b6000602082019050818103600083015261139c81611360565b9050919050565b7f496e73756666696369656e7420616c6c6f77616e636500000000000000000000600082015250565b60006113d9601683610f4a565b91506113e4826113a3565b602082019050919050565b60006020820190508181036000830152611408816113cc565b9050919050565b7f4e487b7100000000000000000000000000000000000000000000000000000000600052601160045260246000fd5b600061144982611054565b915061145483611054565b925082820390508181111561146c5761146b61140f565b5b92915050565b600061147d82611054565b915061148883611054565b92508282019050808211156114a05761149f61140f565b5b92915050565b7f4f6e6c79206d61726b657420636f6e74726f6c6c65722063616e20706572666f60008201527f726d207468697320616374696f6e000000000000000000000000000000000000602082015250565b6000611502602e83610f4a565b915061150d826114a6565b604082019050919050565b60006020820190508181036000830152611531816114f5565b9050919050565b7f4e487b7100000000000000000000000000000000000000000000000000000000600052602160045260246000fd5b600060608201905061157c6000830186611100565b818103602083015261158e8185610f96565b905061159d6040830184611100565b949350505050565b7f4e657720636f6e74726f6c6c65722063616e6e6f74206265207a65726f20616460008201527f6472657373000000000000000000000000000000000000000000000000000000602082015250565b6000611601602583610f4a565b915061160c826115a5565b604082019050919050565b60006020820190508181036000830152611630816115f4565b905091905056fea264697066735822122033847177a7c9f0f8587d4ee4542a0f287124a013901f1fd74f711e88feb0194764736f6c63430008110033",
  "immutableReferences": {},
  "source": "// SPDX-License-Identifier: MIT\npragma solidity ^0.8.17;\n\ncontract EnergyToken {\n    string public name = \"Renewable Energy Credit\";\n    string public symbol = \"REC\";\n    uint8 public decimals = 18;\n    uint256 public totalSupply;\n\n    mapping(address => uint256) public balanceOf;\n    mapping(address => mapping(address => uint256)) public allowance;\n\n    event Transfer(address indexed from, address indexed to, uint256 value);\n    event Approval(address indexed owner, address indexed spender, uint256 value);\n    event Mint(address indexed to, uint256 value, string energySource, uint256 kWhProduced);\n    event MarketControllerChanged(address indexed previousController, address indexed newController);\n\n    // Energy source types for minting\n    enum EnergySource { Solar, Wind, Hydro, Biomass, Geothermal }\n\n    // Market controller permissions\n    address public marketController;\n\n    constructor(address _marketController) {\n        marketController = _marketController;\n    }\n\n    modifier onlyMarketController() {\n        require(msg.sender == marketController, \"Only market controller can perform this action\");\n        _;\n    }\n\n    function transfer(address to, uint256 value) public returns (bool success) {\n        require(balanceOf[msg.sender] >= value, \"Insufficient balance\");\n\n        balanceOf[msg.sender] -= value;\n        balanceOf[to] += value;\n\n        emit Transfer(msg.sender, to, value);\n        return true;\n    }\n\n    function approve(address spender, uint256 value) public returns (bool success) {\n        allowance[msg.sender][spender] = value;\n        emit Approval(msg.sender, spender, value);\n        return true;\n    }\n\n    function transferFrom(address from, address to, uint256 value) public returns (bool success) {\n        require(balanceOf[from] >= value, \"Insufficient balance\");\n        require(allowance[from][msg.sender] >= value, \"Insufficient allowance\");\n\n        balanceOf[from] -= value;\n        balanceOf[to] += value;\n        allowance[from][msg.sender] -= value;\n\n        emit Transfer(from, to, value);\n        return true;\n    }\n\n    function mint(address to, uint256 value, EnergySource energySource, uint256 kWhProduced) public onlyMarketController returns (bool success) {\n        balanceOf[to] += value;\n        totalSupply += value;\n\n        string memory energySourceString;\n        if (energySource == EnergySource.Solar) energySourceString = \"Solar\";\n        else if (energySource == EnergySource.Wind) energySourceString = \"Wind\";\n        else if (energySource == EnergySource.Hydro) energySourceString = \"Hydro\";\n        else if (energySource == EnergySource.Biomass) energySourceString = \"Biomass\";\n        else if (energySource == EnergySource.Geothermal) energySourceString = \"Geothermal\";\n\n        emit Mint(to, value, energySourceString, kWhProduced);\n        emit Transfer(address(0), to, value);\n        return true;\n    }\n\n    function changeMarketController(address newController) public onlyMarketController {\n        require(newController != address(0), \"New controller cannot be zero address\");\n        address oldController = marketController;\n        marketController = newController;\n        emit MarketControllerChanged(oldController, newController);\n    }\n}\n\n",
  "sourcePath": "/Users/sluzhba/Downloads/RECS-DApp/contracts/EnergyToken.sol",
  "compiler": {
    "name": "solc",
    "version": "0.8.17+commit.8df45f5f.Emscripten.clang"
  },
  "schemaVersion": "3.4.16",
  "updatedAt": "2025-04-28T08:01:52.504Z",
  "networkType": "ethereum",
  "devdoc": {
    "kind": "dev",
    "methods": {},
    "version": 1
  },
  "userdoc": {
    "kind": "user",
    "methods": {},
    "version": 1
  }
}