{
  "contractName": "EnergyMarketplace",
  "abi": [
    {
      "inputs": [
        {
          "internalType": "address",
          "name": "_tokenAddress",
          "type": "address"
        }
      ],
      "stateMutability": "nonpayable",
      "type": "constructor"
    },
    {
      "anonymous": false,
      "inputs": [
        {
          "indexed": true,
          "internalType": "uint256",
          "name": "id",
          "type": "uint256"
        },
        {
          "indexed": true,
          "internalType": "address",
          "name": "producer",
          "type": "address"
        },
        {
          "indexed": false,
          "internalType": "string",
          "name": "energySource",
          "type": "string"
        },
        {
          "indexed": false,
          "internalType": "uint256",
          "name": "kWhProduced",
          "type": "uint256"
        }
      ],
      "name": "CertificateCreated",
      "type": "event"
    },
    {
      "anonymous": false,
      "inputs": [
        {
          "indexed": true,
          "internalType": "uint256",
          "name": "id",
          "type": "uint256"
        },
        {
          "indexed": true,
          "internalType": "address",
          "name": "verifier",
          "type": "address"
        }
      ],
      "name": "CertificateVerified",
      "type": "event"
    },
    {
      "anonymous": false,
      "inputs": [
        {
          "indexed": true,
          "internalType": "uint256",
          "name": "id",
          "type": "uint256"
        },
        {
          "indexed": true,
          "internalType": "address",
          "name": "seller",
          "type": "address"
        }
      ],
      "name": "ListingCancelled",
      "type": "event"
    },
    {
      "anonymous": false,
      "inputs": [
        {
          "indexed": true,
          "internalType": "uint256",
          "name": "id",
          "type": "uint256"
        },
        {
          "indexed": true,
          "internalType": "address",
          "name": "seller",
          "type": "address"
        },
        {
          "indexed": false,
          "internalType": "uint256",
          "name": "tokenAmount",
          "type": "uint256"
        },
        {
          "indexed": false,
          "internalType": "uint256",
          "name": "pricePerToken",
          "type": "uint256"
        }
      ],
      "name": "ListingCreated",
      "type": "event"
    },
    {
      "anonymous": false,
      "inputs": [
        {
          "indexed": true,
          "internalType": "uint256",
          "name": "id",
          "type": "uint256"
        },
        {
          "indexed": true,
          "internalType": "address",
          "name": "buyer",
          "type": "address"
        },
        {
          "indexed": true,
          "internalType": "address",
          "name": "seller",
          "type": "address"
        },
        {
          "indexed": false,
          "internalType": "uint256",
          "name": "tokenAmount",
          "type": "uint256"
        },
        {
          "indexed": false,
          "internalType": "uint256",
          "name": "totalPrice",
          "type": "uint256"
        }
      ],
      "name": "ListingPurchased",
      "type": "event"
    },
    {
      "inputs": [],
      "name": "admin",
      "outputs": [
        {
          "internalType": "address",
          "name": "",
          "type": "address"
        }
      ],
      "stateMutability": "view",
      "type": "function",
      "constant": true
    },
    {
      "inputs": [],
      "name": "certificateCount",
      "outputs": [
        {
          "internalType": "uint256",
          "name": "",
          "type": "uint256"
        }
      ],
      "stateMutability": "view",
      "type": "function",
      "constant": true
    },
    {
      "inputs": [
        {
          "internalType": "uint256",
          "name": "",
          "type": "uint256"
        }
      ],
      "name": "certificates",
      "outputs": [
        {
          "internalType": "uint256",
          "name": "id",
          "type": "uint256"
        },
        {
          "internalType": "address",
          "name": "producer",
          "type": "address"
        },
        {
          "internalType": "string",
          "name": "energySource",
          "type": "string"
        },
        {
          "internalType": "uint256",
          "name": "kWhProduced",
          "type": "uint256"
        },
        {
          "internalType": "uint256",
          "name": "tokenAmount",
          "type": "uint256"
        },
        {
          "internalType": "uint256",
          "name": "timestamp",
          "type": "uint256"
        },
        {
          "internalType": "string",
          "name": "location",
          "type": "string"
        },
        {
          "internalType": "bool",
          "name": "verified",
          "type": "bool"
        }
      ],
      "stateMutability": "view",
      "type": "function",
      "constant": true
    },
    {
      "inputs": [],
      "name": "listingCount",
      "outputs": [
        {
          "internalType": "uint256",
          "name": "",
          "type": "uint256"
        }
      ],
      "stateMutability": "view",
      "type": "function",
      "constant": true
    },
    {
      "inputs": [
        {
          "internalType": "uint256",
          "name": "",
          "type": "uint256"
        }
      ],
      "name": "listings",
      "outputs": [
        {
          "internalType": "uint256",
          "name": "id",
          "type": "uint256"
        },
        {
          "internalType": "address",
          "name": "seller",
          "type": "address"
        },
        {
          "internalType": "uint256",
          "name": "tokenAmount",
          "type": "uint256"
        },
        {
          "internalType": "uint256",
          "name": "pricePerToken",
          "type": "uint256"
        },
        {
          "internalType": "string",
          "name": "energySource",
          "type": "string"
        },
        {
          "internalType": "uint256",
          "name": "kWhRepresented",
          "type": "uint256"
        },
        {
          "internalType": "bool",
          "name": "active",
          "type": "bool"
        },
        {
          "internalType": "uint256",
          "name": "timestamp",
          "type": "uint256"
        }
      ],
      "stateMutability": "view",
      "type": "function",
      "constant": true
    },
    {
      "inputs": [],
      "name": "platformFeePercent",
      "outputs": [
        {
          "internalType": "uint256",
          "name": "",
          "type": "uint256"
        }
      ],
      "stateMutability": "view",
      "type": "function",
      "constant": true
    },
    {
      "inputs": [],
      "name": "tokenContract",
      "outputs": [
        {
          "internalType": "contract EnergyToken",
          "name": "",
          "type": "address"
        }
      ],
      "stateMutability": "view",
      "type": "function",
      "constant": true
    },
    {
      "inputs": [
        {
          "internalType": "address",
          "name": "",
          "type": "address"
        }
      ],
      "name": "verifiers",
      "outputs": [
        {
          "internalType": "bool",
          "name": "",
          "type": "bool"
        }
      ],
      "stateMutability": "view",
      "type": "function",
      "constant": true
    },
    {
      "inputs": [
        {
          "internalType": "address",
          "name": "verifier",
          "type": "address"
        }
      ],
      "name": "addVerifier",
      "outputs": [],
      "stateMutability": "nonpayable",
      "type": "function"
    },
    {
      "inputs": [
        {
          "internalType": "address",
          "name": "verifier",
          "type": "address"
        }
      ],
      "name": "removeVerifier",
      "outputs": [],
      "stateMutability": "nonpayable",
      "type": "function"
    },
    {
      "inputs": [
        {
          "internalType": "string",
          "name": "energySource",
          "type": "string"
        },
        {
          "internalType": "uint256",
          "name": "kWhProduced",
          "type": "uint256"
        },
        {
          "internalType": "string",
          "name": "location",
          "type": "string"
        }
      ],
      "name": "createCertificate",
      "outputs": [
        {
          "internalType": "uint256",
          "name": "",
          "type": "uint256"
        }
      ],
      "stateMutability": "nonpayable",
      "type": "function"
    },
    {
      "inputs": [
        {
          "internalType": "uint256",
          "name": "certificateId",
          "type": "uint256"
        },
        {
          "internalType": "uint256",
          "name": "tokenAmount",
          "type": "uint256"
        }
      ],
      "name": "verifyCertificate",
      "outputs": [],
      "stateMutability": "nonpayable",
      "type": "function"
    },
    {
      "inputs": [
        {
          "internalType": "uint256",
          "name": "tokenAmount",
          "type": "uint256"
        },
        {
          "internalType": "uint256",
          "name": "pricePerToken",
          "type": "uint256"
        },
        {
          "internalType": "string",
          "name": "energySource",
          "type": "string"
        },
        {
          "internalType": "uint256",
          "name": "kWhRepresented",
          "type": "uint256"
        }
      ],
      "name": "createListing",
      "outputs": [],
      "stateMutability": "nonpayable",
      "type": "function"
    },
    {
      "inputs": [
        {
          "internalType": "uint256",
          "name": "listingId",
          "type": "uint256"
        }
      ],
      "name": "buyListing",
      "outputs": [],
      "stateMutability": "payable",
      "type": "function",
      "payable": true
    },
    {
      "inputs": [
        {
          "internalType": "uint256",
          "name": "listingId",
          "type": "uint256"
        }
      ],
      "name": "cancelListing",
      "outputs": [],
      "stateMutability": "nonpayable",
      "type": "function"
    },
    {
      "inputs": [],
      "name": "withdrawFees",
      "outputs": [],
      "stateMutability": "nonpayable",
      "type": "function"
    },
    {
      "inputs": [
        {
          "internalType": "uint256",
          "name": "newFeePercent",
          "type": "uint256"
        }
      ],
      "name": "updatePlatformFee",
      "outputs": [],
      "stateMutability": "nonpayable",
      "type": "function"
    }
  ],
  "bytecode": "0x6080604052600260035534801562000015575f80fd5b5060405162002d8e38038062002d8e83398181016040528101906200003b919062000126565b805f806101000a81548173ffffffffffffffffffffffffffffffffffffffff021916908373ffffffffffffffffffffffffffffffffffffffff1602179055503360045f6101000a81548173ffffffffffffffffffffffffffffffffffffffff021916908373ffffffffffffffffffffffffffffffffffffffff1602179055505062000156565b5f80fd5b5f73ffffffffffffffffffffffffffffffffffffffff82169050919050565b5f620000f082620000c5565b9050919050565b6200010281620000e4565b81146200010d575f80fd5b50565b5f815190506200012081620000f7565b92915050565b5f602082840312156200013e576200013d620000c1565b5b5f6200014d8482850162000110565b91505092915050565b612c2a80620001645f395ff3fe6080604052600436106100fd575f3560e01c80636c82448711610094578063a9b07c2611610063578063a9b07c261461030c578063aa0b598814610336578063ca2dfd0a1461035e578063de74e57b14610386578063f851a440146103c9576100fd565b80636c8244871461024257806384fbce761461027e5780638c639a85146102ba5780639000b3d6146102e4576100fd565b80634884f459116100d05780634884f4591461018f57806352d7b89c146101ab57806355a373d6146101d5578063663b3e22146101ff576100fd565b80632ff126e114610101578063305a67a8146101295780633faa6ffa14610151578063476343ee14610179575b5f80fd5b34801561010c575f80fd5b50610127600480360381019061012291906118fd565b6103f3565b005b348015610134575f80fd5b5061014f600480360381019061014a919061193b565b610826565b005b34801561015c575f80fd5b5061017760048036038101906101729190611aa2565b610a7e565b005b348015610184575f80fd5b5061018d610d63565b005b6101a960048036038101906101a4919061193b565b610e59565b005b3480156101b6575f80fd5b506101bf611190565b6040516101cc9190611b31565b60405180910390f35b3480156101e0575f80fd5b506101e9611196565b6040516101f69190611bc4565b60405180910390f35b34801561020a575f80fd5b506102256004803603810190610220919061193b565b6111b9565b604051610239989796959493929190611c91565b60405180910390f35b34801561024d575f80fd5b5061026860048036038101906102639190611d45565b611334565b6040516102759190611d70565b60405180910390f35b348015610289575f80fd5b506102a4600480360381019061029f9190611d89565b611351565b6040516102b19190611b31565b60405180910390f35b3480156102c5575f80fd5b506102ce6114e9565b6040516102db9190611b31565b60405180910390f35b3480156102ef575f80fd5b5061030a60048036038101906103059190611d45565b6114ef565b005b348015610317575f80fd5b506103206115d6565b60405161032d9190611b31565b60405180910390f35b348015610341575f80fd5b5061035c6004803603810190610357919061193b565b6115dc565b005b348015610369575f80fd5b50610384600480360381019061037f9190611d45565b6116b9565b005b348015610391575f80fd5b506103ac60048036038101906103a7919061193b565b61179f565b6040516103c0989796959493929190611e11565b60405180910390f35b3480156103d4575f80fd5b506103dd611894565b6040516103ea9190611e94565b60405180910390f35b60075f3373ffffffffffffffffffffffffffffffffffffffff1673ffffffffffffffffffffffffffffffffffffffff1681526020019081526020015f205f9054906101000a900460ff1661047c576040517f08c379a000000000000000000000000000000000000000000000000000000000815260040161047390611f1d565b60405180910390fd5b5f60065f8481526020019081526020015f209050806007015f9054906101000a900460ff16156104e1576040517f08c379a00000000000000000000000000000000000000000000000000000000081526004016104d890611f85565b60405180910390fd5b5f6040516020016104f190611ff7565b604051602081830303815290604052805190602001208260020160405160200161051b91906120fa565b604051602081830303815290604052805190602001200361053e575f90506106f1565b60405160200161054d9061215a565b604051602081830303815290604052805190602001208260020160405160200161057791906120fa565b604051602081830303815290604052805190602001200361059b57600190506106f0565b6040516020016105aa906121b8565b60405160208183030381529060405280519060200120826002016040516020016105d491906120fa565b60405160208183030381529060405280519060200120036105f857600290506106ef565b60405160200161060790612216565b604051602081830303815290604052805190602001208260020160405160200161063191906120fa565b604051602081830303815290604052805190602001200361065557600390506106ee565b60405160200161066490612274565b604051602081830303815290604052805190602001208260020160405160200161068e91906120fa565b60405160208183030381529060405280519060200120036106b257600490506106ed565b6040517f08c379a00000000000000000000000000000000000000000000000000000000081526004016106e4906122d2565b60405180910390fd5b5b5b5b5b5f8054906101000a900473ffffffffffffffffffffffffffffffffffffffff1673ffffffffffffffffffffffffffffffffffffffff1663a7a6be96836001015f9054906101000a900473ffffffffffffffffffffffffffffffffffffffff16858486600301546040518563ffffffff1660e01b81526004016107769493929190612363565b6020604051808303815f875af1158015610792573d5f803e3d5ffd5b505050506040513d601f19601f820116820180604052508101906107b691906123d0565b506001826007015f6101000a81548160ff0219169083151502179055508282600401819055503373ffffffffffffffffffffffffffffffffffffffff16847fd7c96d6fc66839b1626cff5f8eccbacfa07b17981e577e09f16310f5fca240a860405160405180910390a350505050565b5f60055f8381526020019081526020015f2090503373ffffffffffffffffffffffffffffffffffffffff16816001015f9054906101000a900473ffffffffffffffffffffffffffffffffffffffff1673ffffffffffffffffffffffffffffffffffffffff16146108cb576040517f08c379a00000000000000000000000000000000000000000000000000000000081526004016108c290612445565b60405180910390fd5b806006015f9054906101000a900460ff1661091b576040517f08c379a0000000000000000000000000000000000000000000000000000000008152600401610912906124ad565b60405180910390fd5b5f8054906101000a900473ffffffffffffffffffffffffffffffffffffffff1673ffffffffffffffffffffffffffffffffffffffff1663a9059cbb826001015f9054906101000a900473ffffffffffffffffffffffffffffffffffffffff1683600201546040518363ffffffff1660e01b815260040161099c9291906124cb565b6020604051808303815f875af11580156109b8573d5f803e3d5ffd5b505050506040513d601f19601f820116820180604052508101906109dc91906123d0565b610a1b576040517f08c379a0000000000000000000000000000000000000000000000000000000008152600401610a129061253c565b60405180910390fd5b5f816006015f6101000a81548160ff0219169083151502179055503373ffffffffffffffffffffffffffffffffffffffff16827f8e25282255ab31897df2b0456bb993ac7f84d376861aefd84901d2d63a7428a260405160405180910390a35050565b5f8411610ac0576040517f08c379a0000000000000000000000000000000000000000000000000000000008152600401610ab7906125ca565b60405180910390fd5b5f8311610b02576040517f08c379a0000000000000000000000000000000000000000000000000000000008152600401610af990612658565b60405180910390fd5b5f8054906101000a900473ffffffffffffffffffffffffffffffffffffffff1673ffffffffffffffffffffffffffffffffffffffff166323b872dd3330876040518463ffffffff1660e01b8152600401610b5e93929190612676565b6020604051808303815f875af1158015610b7a573d5f803e3d5ffd5b505050506040513d601f19601f82011682018060405250810190610b9e91906123d0565b610bdd576040517f08c379a0000000000000000000000000000000000000000000000000000000008152600401610bd49061253c565b60405180910390fd5b60015f815480929190610bef906126d8565b919050555060405180610100016040528060015481526020013373ffffffffffffffffffffffffffffffffffffffff1681526020018581526020018481526020018381526020018281526020016001151581526020014281525060055f60015481526020019081526020015f205f820151815f01556020820151816001015f6101000a81548173ffffffffffffffffffffffffffffffffffffffff021916908373ffffffffffffffffffffffffffffffffffffffff16021790555060408201518160020155606082015181600301556080820151816004019081610cd391906128a1565b5060a0820151816005015560c0820151816006015f6101000a81548160ff02191690831515021790555060e082015181600701559050503373ffffffffffffffffffffffffffffffffffffffff166001547f12dc294b81a709d694b1337a350a12a00076c19a77a25aab67a5f0c07e0f164d8686604051610d55929190612970565b60405180910390a350505050565b60045f9054906101000a900473ffffffffffffffffffffffffffffffffffffffff1673ffffffffffffffffffffffffffffffffffffffff163373ffffffffffffffffffffffffffffffffffffffff1614610df2576040517f08c379a0000000000000000000000000000000000000000000000000000000008152600401610de990612a07565b60405180910390fd5b60045f9054906101000a900473ffffffffffffffffffffffffffffffffffffffff1673ffffffffffffffffffffffffffffffffffffffff166108fc4790811502906040515f60405180830381858888f19350505050158015610e56573d5f803e3d5ffd5b50565b5f60055f8381526020019081526020015f209050806006015f9054906101000a900460ff16610ebd576040517f08c379a0000000000000000000000000000000000000000000000000000000008152600401610eb4906124ad565b60405180910390fd5b5f81600301548260020154610ed29190612a25565b905080341015610f17576040517f08c379a0000000000000000000000000000000000000000000000000000000008152600401610f0e90612ab0565b60405180910390fd5b5f606460035483610f289190612a25565b610f329190612afb565b90505f8183610f419190612b2b565b90505f8054906101000a900473ffffffffffffffffffffffffffffffffffffffff1673ffffffffffffffffffffffffffffffffffffffff1663a9059cbb3386600201546040518363ffffffff1660e01b8152600401610fa19291906124cb565b6020604051808303815f875af1158015610fbd573d5f803e3d5ffd5b505050506040513d601f19601f82011682018060405250810190610fe191906123d0565b611020576040517f08c379a00000000000000000000000000000000000000000000000000000000081526004016110179061253c565b60405180910390fd5b836001015f9054906101000a900473ffffffffffffffffffffffffffffffffffffffff1673ffffffffffffffffffffffffffffffffffffffff166108fc8290811502906040515f60405180830381858888f19350505050158015611086573d5f803e3d5ffd5b50823411156110df573373ffffffffffffffffffffffffffffffffffffffff166108fc84346110b59190612b2b565b90811502906040515f60405180830381858888f193505050501580156110dd573d5f803e3d5ffd5b505b5f846006015f6101000a81548160ff021916908315150217905550836001015f9054906101000a900473ffffffffffffffffffffffffffffffffffffffff1673ffffffffffffffffffffffffffffffffffffffff163373ffffffffffffffffffffffffffffffffffffffff16867f67806fb1f9a1d5258c8ae3101868dc1bbd114cb2c1829b37dbdd88d64cf17d82876002015487604051611181929190612970565b60405180910390a45050505050565b60025481565b5f8054906101000a900473ffffffffffffffffffffffffffffffffffffffff1681565b6006602052805f5260405f205f91509050805f015490806001015f9054906101000a900473ffffffffffffffffffffffffffffffffffffffff169080600201805461120390612038565b80601f016020809104026020016040519081016040528092919081815260200182805461122f90612038565b801561127a5780601f106112515761010080835404028352916020019161127a565b820191905f5260205f20905b81548152906001019060200180831161125d57829003601f168201915b5050505050908060030154908060040154908060050154908060060180546112a190612038565b80601f01602080910402602001604051908101604052809291908181526020018280546112cd90612038565b80156113185780601f106112ef57610100808354040283529160200191611318565b820191905f5260205f20905b8154815290600101906020018083116112fb57829003601f168201915b505050505090806007015f9054906101000a900460ff16905088565b6007602052805f5260405f205f915054906101000a900460ff1681565b5f60025f815480929190611364906126d8565b919050555060405180610100016040528060025481526020013373ffffffffffffffffffffffffffffffffffffffff1681526020018581526020018481526020015f81526020014281526020018381526020015f151581525060065f60025481526020019081526020015f205f820151815f01556020820151816001015f6101000a81548173ffffffffffffffffffffffffffffffffffffffff021916908373ffffffffffffffffffffffffffffffffffffffff160217905550604082015181600201908161143391906128a1565b50606082015181600301556080820151816004015560a0820151816005015560c082015181600601908161146791906128a1565b5060e0820151816007015f6101000a81548160ff0219169083151502179055509050503373ffffffffffffffffffffffffffffffffffffffff166002547fcc68fee6ac9c3d08b8ad0fe1b8571648b4dbc9ef132835296f96d1027460087c86866040516114d5929190612b5e565b60405180910390a360025490509392505050565b60035481565b60045f9054906101000a900473ffffffffffffffffffffffffffffffffffffffff1673ffffffffffffffffffffffffffffffffffffffff163373ffffffffffffffffffffffffffffffffffffffff161461157e576040517f08c379a000000000000000000000000000000000000000000000000000000000815260040161157590612a07565b60405180910390fd5b600160075f8373ffffffffffffffffffffffffffffffffffffffff1673ffffffffffffffffffffffffffffffffffffffff1681526020019081526020015f205f6101000a81548160ff02191690831515021790555050565b60015481565b60045f9054906101000a900473ffffffffffffffffffffffffffffffffffffffff1673ffffffffffffffffffffffffffffffffffffffff163373ffffffffffffffffffffffffffffffffffffffff161461166b576040517f08c379a000000000000000000000000000000000000000000000000000000000815260040161166290612a07565b60405180910390fd5b600a8111156116af576040517f08c379a00000000000000000000000000000000000000000000000000000000081526004016116a690612bd6565b60405180910390fd5b8060038190555050565b60045f9054906101000a900473ffffffffffffffffffffffffffffffffffffffff1673ffffffffffffffffffffffffffffffffffffffff163373ffffffffffffffffffffffffffffffffffffffff1614611748576040517f08c379a000000000000000000000000000000000000000000000000000000000815260040161173f90612a07565b60405180910390fd5b5f60075f8373ffffffffffffffffffffffffffffffffffffffff1673ffffffffffffffffffffffffffffffffffffffff1681526020019081526020015f205f6101000a81548160ff02191690831515021790555050565b6005602052805f5260405f205f91509050805f015490806001015f9054906101000a900473ffffffffffffffffffffffffffffffffffffffff16908060020154908060030154908060040180546117f590612038565b80601f016020809104026020016040519081016040528092919081815260200182805461182190612038565b801561186c5780601f106118435761010080835404028352916020019161186c565b820191905f5260205f20905b81548152906001019060200180831161184f57829003601f168201915b505050505090806005015490806006015f9054906101000a900460ff16908060070154905088565b60045f9054906101000a900473ffffffffffffffffffffffffffffffffffffffff1681565b5f604051905090565b5f80fd5b5f80fd5b5f819050919050565b6118dc816118ca565b81146118e6575f80fd5b50565b5f813590506118f7816118d3565b92915050565b5f8060408385031215611913576119126118c2565b5b5f611920858286016118e9565b9250506020611931858286016118e9565b9150509250929050565b5f602082840312156119505761194f6118c2565b5b5f61195d848285016118e9565b91505092915050565b5f80fd5b5f80fd5b5f601f19601f8301169050919050565b7f4e487b71000000000000000000000000000000000000000000000000000000005f52604160045260245ffd5b6119b48261196e565b810181811067ffffffffffffffff821117156119d3576119d261197e565b5b80604052505050565b5f6119e56118b9565b90506119f182826119ab565b919050565b5f67ffffffffffffffff821115611a1057611a0f61197e565b5b611a198261196e565b9050602081019050919050565b828183375f83830152505050565b5f611a46611a41846119f6565b6119dc565b905082815260208101848484011115611a6257611a6161196a565b5b611a6d848285611a26565b509392505050565b5f82601f830112611a8957611a88611966565b5b8135611a99848260208601611a34565b91505092915050565b5f805f8060808587031215611aba57611ab96118c2565b5b5f611ac7878288016118e9565b9450506020611ad8878288016118e9565b935050604085013567ffffffffffffffff811115611af957611af86118c6565b5b611b0587828801611a75565b9250506060611b16878288016118e9565b91505092959194509250565b611b2b816118ca565b82525050565b5f602082019050611b445f830184611b22565b92915050565b5f73ffffffffffffffffffffffffffffffffffffffff82169050919050565b5f819050919050565b5f611b8c611b87611b8284611b4a565b611b69565b611b4a565b9050919050565b5f611b9d82611b72565b9050919050565b5f611bae82611b93565b9050919050565b611bbe81611ba4565b82525050565b5f602082019050611bd75f830184611bb5565b92915050565b5f611be782611b4a565b9050919050565b611bf781611bdd565b82525050565b5f81519050919050565b5f82825260208201905092915050565b5f5b83811015611c34578082015181840152602081019050611c19565b5f8484015250505050565b5f611c4982611bfd565b611c538185611c07565b9350611c63818560208601611c17565b611c6c8161196e565b840191505092915050565b5f8115159050919050565b611c8b81611c77565b82525050565b5f61010082019050611ca55f83018b611b22565b611cb2602083018a611bee565b8181036040830152611cc48189611c3f565b9050611cd36060830188611b22565b611ce06080830187611b22565b611ced60a0830186611b22565b81810360c0830152611cff8185611c3f565b9050611d0e60e0830184611c82565b9998505050505050505050565b611d2481611bdd565b8114611d2e575f80fd5b50565b5f81359050611d3f81611d1b565b92915050565b5f60208284031215611d5a57611d596118c2565b5b5f611d6784828501611d31565b91505092915050565b5f602082019050611d835f830184611c82565b92915050565b5f805f60608486031215611da057611d9f6118c2565b5b5f84013567ffffffffffffffff811115611dbd57611dbc6118c6565b5b611dc986828701611a75565b9350506020611dda868287016118e9565b925050604084013567ffffffffffffffff811115611dfb57611dfa6118c6565b5b611e0786828701611a75565b9150509250925092565b5f61010082019050611e255f83018b611b22565b611e32602083018a611bee565b611e3f6040830189611b22565b611e4c6060830188611b22565b8181036080830152611e5e8187611c3f565b9050611e6d60a0830186611b22565b611e7a60c0830185611c82565b611e8760e0830184611b22565b9998505050505050505050565b5f602082019050611ea75f830184611bee565b92915050565b7f4f6e6c7920617574686f72697a6564207665726966696572732063616e2070655f8201527f72666f726d207468697320616374696f6e000000000000000000000000000000602082015250565b5f611f07603183611c07565b9150611f1282611ead565b604082019050919050565b5f6020820190508181035f830152611f3481611efb565b9050919050565b7f436572746966696361746520616c7265616479207665726966696564000000005f82015250565b5f611f6f601c83611c07565b9150611f7a82611f3b565b602082019050919050565b5f6020820190508181035f830152611f9c81611f63565b9050919050565b5f81905092915050565b7f536f6c61720000000000000000000000000000000000000000000000000000005f82015250565b5f611fe1600583611fa3565b9150611fec82611fad565b600582019050919050565b5f61200182611fd5565b9150819050919050565b7f4e487b71000000000000000000000000000000000000000000000000000000005f52602260045260245ffd5b5f600282049050600182168061204f57607f821691505b6020821081036120625761206161200b565b5b50919050565b5f819050815f5260205f209050919050565b5f815461208681612038565b6120908186611fa3565b9450600182165f81146120aa57600181146120bf576120f1565b60ff19831686528115158202860193506120f1565b6120c885612068565b5f5b838110156120e9578154818901526001820191506020810190506120ca565b838801955050505b50505092915050565b5f612105828461207a565b915081905092915050565b7f57696e64000000000000000000000000000000000000000000000000000000005f82015250565b5f612144600483611fa3565b915061214f82612110565b600482019050919050565b5f61216482612138565b9150819050919050565b7f487964726f0000000000000000000000000000000000000000000000000000005f82015250565b5f6121a2600583611fa3565b91506121ad8261216e565b600582019050919050565b5f6121c282612196565b9150819050919050565b7f42696f6d617373000000000000000000000000000000000000000000000000005f82015250565b5f612200600783611fa3565b915061220b826121cc565b600782019050919050565b5f612220826121f4565b9150819050919050565b7f47656f746865726d616c000000000000000000000000000000000000000000005f82015250565b5f61225e600a83611fa3565b91506122698261222a565b600a82019050919050565b5f61227e82612252565b9150819050919050565b7f496e76616c696420656e6572677920736f7572636500000000000000000000005f82015250565b5f6122bc601583611c07565b91506122c782612288565b602082019050919050565b5f6020820190508181035f8301526122e9816122b0565b9050919050565b7f4e487b71000000000000000000000000000000000000000000000000000000005f52602160045260245ffd5b6005811061232e5761232d6122f0565b5b50565b5f81905061233e8261231d565b919050565b5f61234d82612331565b9050919050565b61235d81612343565b82525050565b5f6080820190506123765f830187611bee565b6123836020830186611b22565b6123906040830185612354565b61239d6060830184611b22565b95945050505050565b6123af81611c77565b81146123b9575f80fd5b50565b5f815190506123ca816123a6565b92915050565b5f602082840312156123e5576123e46118c2565b5b5f6123f2848285016123bc565b91505092915050565b7f4f6e6c792073656c6c65722063616e2063616e63656c206c697374696e6700005f82015250565b5f61242f601e83611c07565b915061243a826123fb565b602082019050919050565b5f6020820190508181035f83015261245c81612423565b9050919050565b7f4c697374696e67206973206e6f742061637469766500000000000000000000005f82015250565b5f612497601583611c07565b91506124a282612463565b602082019050919050565b5f6020820190508181035f8301526124c48161248b565b9050919050565b5f6040820190506124de5f830185611bee565b6124eb6020830184611b22565b9392505050565b7f546f6b656e207472616e73666572206661696c656400000000000000000000005f82015250565b5f612526601583611c07565b9150612531826124f2565b602082019050919050565b5f6020820190508181035f8301526125538161251a565b9050919050565b7f546f6b656e20616d6f756e74206d7573742062652067726561746572207468615f8201527f6e20300000000000000000000000000000000000000000000000000000000000602082015250565b5f6125b4602383611c07565b91506125bf8261255a565b604082019050919050565b5f6020820190508181035f8301526125e1816125a8565b9050919050565b7f50726963652070657220746f6b656e206d7573742062652067726561746572205f8201527f7468616e20300000000000000000000000000000000000000000000000000000602082015250565b5f612642602683611c07565b915061264d826125e8565b604082019050919050565b5f6020820190508181035f83015261266f81612636565b9050919050565b5f6060820190506126895f830186611bee565b6126966020830185611bee565b6126a36040830184611b22565b949350505050565b7f4e487b71000000000000000000000000000000000000000000000000000000005f52601160045260245ffd5b5f6126e2826118ca565b91507fffffffffffffffffffffffffffffffffffffffffffffffffffffffffffffffff8203612714576127136126ab565b5b600182019050919050565b5f6020601f8301049050919050565b5f82821b905092915050565b5f600883026127697fffffffffffffffffffffffffffffffffffffffffffffffffffffffffffffffff8261272e565b612773868361272e565b95508019841693508086168417925050509392505050565b5f6127a56127a061279b846118ca565b611b69565b6118ca565b9050919050565b5f819050919050565b6127be8361278b565b6127d26127ca826127ac565b84845461273a565b825550505050565b5f90565b6127e66127da565b6127f18184846127b5565b505050565b5b81811015612814576128095f826127de565b6001810190506127f7565b5050565b601f8211156128595761282a81612068565b6128338461271f565b81016020851015612842578190505b61285661284e8561271f565b8301826127f6565b50505b505050565b5f82821c905092915050565b5f6128795f198460080261285e565b1980831691505092915050565b5f612891838361286a565b9150826002028217905092915050565b6128aa82611bfd565b67ffffffffffffffff8111156128c3576128c261197e565b5b6128cd8254612038565b6128d8828285612818565b5f60209050601f831160018114612909575f84156128f7578287015190505b6129018582612886565b865550612968565b601f19841661291786612068565b5f5b8281101561293e57848901518255600182019150602085019450602081019050612919565b8683101561295b5784890151612957601f89168261286a565b8355505b6001600288020188555050505b505050505050565b5f6040820190506129835f830185611b22565b6129906020830184611b22565b9392505050565b7f4f6e6c792061646d696e2063616e20706572666f726d207468697320616374695f8201527f6f6e000000000000000000000000000000000000000000000000000000000000602082015250565b5f6129f1602283611c07565b91506129fc82612997565b604082019050919050565b5f6020820190508181035f830152612a1e816129e5565b9050919050565b5f612a2f826118ca565b9150612a3a836118ca565b9250828202612a48816118ca565b91508282048414831517612a5f57612a5e6126ab565b5b5092915050565b7f496e73756666696369656e74207061796d656e740000000000000000000000005f82015250565b5f612a9a601483611c07565b9150612aa582612a66565b602082019050919050565b5f6020820190508181035f830152612ac781612a8e565b9050919050565b7f4e487b71000000000000000000000000000000000000000000000000000000005f52601260045260245ffd5b5f612b05826118ca565b9150612b10836118ca565b925082612b2057612b1f612ace565b5b828204905092915050565b5f612b35826118ca565b9150612b40836118ca565b9250828203905081811115612b5857612b576126ab565b5b92915050565b5f6040820190508181035f830152612b768185611c3f565b9050612b856020830184611b22565b9392505050565b7f4665652063616e6e6f74206578636565642031302500000000000000000000005f82015250565b5f612bc0601583611c07565b9150612bcb82612b8c565b602082019050919050565b5f6020820190508181035f830152612bed81612bb4565b905091905056fea26469706673582212206d3c3feb13dc5ec32a7a9713061ef7841ac6c0f3afc67c7462835c1f53df619564736f6c63430008150033",
  "immutableReferences": {},
  "source": "// SPDX-License-Identifier: MIT\npragma solidity ^0.8.17;\n\ncontract EnergyMarketplace {\n    struct EnergyListing {\n        uint256 id;\n        address seller;\n        uint256 tokenAmount;\n        uint256 pricePerToken;\n        string energySource;\n        uint256 kWhRepresented;\n        bool active;\n        uint256 timestamp;\n    }\n\n    struct Certificate {\n        uint256 id;\n        address producer;\n        string energySource;\n        uint256 kWhProduced;\n        uint256 tokenAmount;\n        uint256 timestamp;\n        string location;\n        bool verified;\n    }\n\n    EnergyToken public tokenContract;\n    uint256 public listingCount;\n    uint256 public certificateCount;\n    uint256 public platformFeePercent = 2; // 2% fee\n    address public admin;\n\n    mapping(uint256 => EnergyListing) public listings;\n    mapping(uint256 => Certificate) public certificates;\n    mapping(address => bool) public verifiers;\n\n    event ListingCreated(uint256 indexed id, address indexed seller, uint256 tokenAmount, uint256 pricePerToken);\n    event ListingPurchased(uint256 indexed id, address indexed buyer, address indexed seller, uint256 tokenAmount, uint256 totalPrice);\n    event ListingCancelled(uint256 indexed id, address indexed seller);\n    event CertificateCreated(uint256 indexed id, address indexed producer, string energySource, uint256 kWhProduced);\n    event CertificateVerified(uint256 indexed id, address indexed verifier);\n\n    constructor(address _tokenAddress) {\n        tokenContract = EnergyToken(_tokenAddress);\n        admin = msg.sender;\n    }\n\n    modifier onlyAdmin() {\n        require(msg.sender == admin, \"Only admin can perform this action\");\n        _;\n    }\n\n    modifier onlyVerifier() {\n        require(verifiers[msg.sender], \"Only authorized verifiers can perform this action\");\n        _;\n    }\n\n    function addVerifier(address verifier) public onlyAdmin {\n        verifiers[verifier] = true;\n    }\n\n    function removeVerifier(address verifier) public onlyAdmin {\n        verifiers[verifier] = false;\n    }\n\n    function createCertificate(\n        string memory energySource,\n        uint256 kWhProduced,\n        string memory location\n    ) public returns (uint256) {\n        certificateCount++;\n\n        certificates[certificateCount] = Certificate({\n            id: certificateCount,\n            producer: msg.sender,\n            energySource: energySource,\n            kWhProduced: kWhProduced,\n            tokenAmount: 0, // Will be set when verified\n            timestamp: block.timestamp,\n            location: location,\n            verified: false\n        });\n\n        emit CertificateCreated(certificateCount, msg.sender, energySource, kWhProduced);\n        return certificateCount;\n    }\n\n    function verifyCertificate(uint256 certificateId, uint256 tokenAmount) public onlyVerifier {\n        Certificate storage cert = certificates[certificateId];\n        require(!cert.verified, \"Certificate already verified\");\n\n        // Determine energy source enum\n        EnergyToken.EnergySource energySourceEnum;\n        if (keccak256(abi.encodePacked(cert.energySource)) == keccak256(abi.encodePacked(\"Solar\"))) {\n            energySourceEnum = EnergyToken.EnergySource.Solar;\n        } else if (keccak256(abi.encodePacked(cert.energySource)) == keccak256(abi.encodePacked(\"Wind\"))) {\n            energySourceEnum = EnergyToken.EnergySource.Wind;\n        } else if (keccak256(abi.encodePacked(cert.energySource)) == keccak256(abi.encodePacked(\"Hydro\"))) {\n            energySourceEnum = EnergyToken.EnergySource.Hydro;\n        } else if (keccak256(abi.encodePacked(cert.energySource)) == keccak256(abi.encodePacked(\"Biomass\"))) {\n            energySourceEnum = EnergyToken.EnergySource.Biomass;\n        } else if (keccak256(abi.encodePacked(cert.energySource)) == keccak256(abi.encodePacked(\"Geothermal\"))) {\n            energySourceEnum = EnergyToken.EnergySource.Geothermal;\n        } else {\n            revert(\"Invalid energy source\");\n        }\n\n        // Mint tokens to the producer\n        tokenContract.mint(cert.producer, tokenAmount, energySourceEnum, cert.kWhProduced);\n\n        // Update certificate\n        cert.verified = true;\n        cert.tokenAmount = tokenAmount;\n\n        emit CertificateVerified(certificateId, msg.sender);\n    }\n\n    function createListing(uint256 tokenAmount, uint256 pricePerToken, string memory energySource, uint256 kWhRepresented) public {\n        require(tokenAmount > 0, \"Token amount must be greater than 0\");\n        require(pricePerToken > 0, \"Price per token must be greater than 0\");\n\n        // Transfer tokens from seller to this contract\n        require(\n            tokenContract.transferFrom(msg.sender, address(this), tokenAmount),\n            \"Token transfer failed\"\n        );\n\n        listingCount++;\n\n        listings[listingCount] = EnergyListing({\n            id: listingCount,\n            seller: msg.sender,\n            tokenAmount: tokenAmount,\n            pricePerToken: pricePerToken,\n            energySource: energySource,\n            kWhRepresented: kWhRepresented,\n            active: true,\n            timestamp: block.timestamp\n        });\n\n        emit ListingCreated(listingCount, msg.sender, tokenAmount, pricePerToken);\n    }\n\n    function buyListing(uint256 listingId) public payable {\n        EnergyListing storage listing = listings[listingId];\n        require(listing.active, \"Listing is not active\");\n\n        uint256 totalPrice = listing.tokenAmount * listing.pricePerToken;\n        require(msg.value >= totalPrice, \"Insufficient payment\");\n\n        // Calculate platform fee\n        uint256 platformFee = (totalPrice * platformFeePercent) / 100;\n        uint256 sellerPayment = totalPrice - platformFee;\n\n        // Transfer tokens to buyer\n        require(\n            tokenContract.transfer(msg.sender, listing.tokenAmount),\n            \"Token transfer failed\"\n        );\n\n        // Transfer ETH to seller\n        payable(listing.seller).transfer(sellerPayment);\n\n        // Refund excess payment\n        if (msg.value > totalPrice) {\n            payable(msg.sender).transfer(msg.value - totalPrice);\n        }\n\n        // Mark listing as inactive\n        listing.active = false;\n\n        emit ListingPurchased(listingId, msg.sender, listing.seller, listing.tokenAmount, totalPrice);\n    }\n\n    function cancelListing(uint256 listingId) public {\n        EnergyListing storage listing = listings[listingId];\n        require(listing.seller == msg.sender, \"Only seller can cancel listing\");\n        require(listing.active, \"Listing is not active\");\n\n        // Return tokens to seller\n        require(\n            tokenContract.transfer(listing.seller, listing.tokenAmount),\n            \"Token transfer failed\"\n        );\n\n        // Mark listing as inactive\n        listing.active = false;\n\n        emit ListingCancelled(listingId, msg.sender);\n    }\n\n    function withdrawFees() public onlyAdmin {\n        payable(admin).transfer(address(this).balance);\n    }\n\n    function updatePlatformFee(uint256 newFeePercent) public onlyAdmin {\n        require(newFeePercent <= 10, \"Fee cannot exceed 10%\");\n        platformFeePercent = newFeePercent;\n    }\n}\n\ncontract EnergyToken {\n    string public name = \"Renewable Energy Credit\";\n    string public symbol = \"REC\";\n    uint8 public decimals = 18;\n    uint256 public totalSupply;\n\n    mapping(address => uint256) public balanceOf;\n    mapping(address => mapping(address => uint256)) public allowance;\n\n    event Transfer(address indexed from, address indexed to, uint256 value);\n    event Approval(address indexed owner, address indexed spender, uint256 value);\n    event Mint(address indexed to, uint256 value, string energySource, uint256 kWhProduced);\n\n    // Energy source types for minting\n    enum EnergySource { Solar, Wind, Hydro, Biomass, Geothermal }\n\n    // Market controller permissions\n    address public marketController;\n\n    constructor(address _marketController) {\n        marketController = _marketController;\n    }\n\n    modifier onlyMarketController() {\n        require(msg.sender == marketController, \"Only market controller can perform this action\");\n        _;\n    }\n\n    function transfer(address to, uint256 value) public returns (bool success) {\n        require(balanceOf[msg.sender] >= value, \"Insufficient balance\");\n\n        balanceOf[msg.sender] -= value;\n        balanceOf[to] += value;\n\n        emit Transfer(msg.sender, to, value);\n        return true;\n    }\n\n    function approve(address spender, uint256 value) public returns (bool success) {\n        allowance[msg.sender][spender] = value;\n        emit Approval(msg.sender, spender, value);\n        return true;\n    }\n\n    function transferFrom(address from, address to, uint256 value) public returns (bool success) {\n        require(balanceOf[from] >= value, \"Insufficient balance\");\n        require(allowance[from][msg.sender] >= value, \"Insufficient allowance\");\n\n        balanceOf[from] -= value;\n        balanceOf[to] += value;\n        allowance[from][msg.sender] -= value;\n\n        emit Transfer(from, to, value);\n        return true;\n    }\n\n    function mint(address to, uint256 value, EnergySource energySource, uint256 kWhProduced) public onlyMarketController returns (bool success) {\n        balanceOf[to] += value;\n        totalSupply += value;\n\n        string memory energySourceString;\n        if (energySource == EnergySource.Solar) energySourceString = \"Solar\";\n        else if (energySource == EnergySource.Wind) energySourceString = \"Wind\";\n        else if (energySource == EnergySource.Hydro) energySourceString = \"Hydro\";\n        else if (energySource == EnergySource.Biomass) energySourceString = \"Biomass\";\n        else if (energySource == EnergySource.Geothermal) energySourceString = \"Geothermal\";\n\n        emit Mint(to, value, energySourceString, kWhProduced);\n        emit Transfer(address(0), to, value);\n        return true;\n    }\n\n    function changeMarketController(address newController) public onlyMarketController {\n        marketController = newController;\n    }\n}\n\n\ncontract RenewableEnergyCertification {\n    struct Producer {\n        address wallet;\n        string name;\n        string location;\n        string[] energyTypes;\n        uint256 totalCapacityKW;\n        bool verified;\n        uint256 registrationTime;\n    }\n\n    struct AuditReport {\n        uint256 id;\n        address producer;\n        address auditor;\n        uint256 timestamp;\n        string reportUri;\n        string comments;\n        bool passed;\n    }\n\n    mapping(address => Producer) public producers;\n    mapping(address => bool) public registeredProducers;\n    mapping(address => bool) public authorizedAuditors;\n    mapping(uint256 => AuditReport) public auditReports;\n\n    address public admin;\n    uint256 public auditReportCount;\n    EnergyMarketplace public marketplace;\n\n    event ProducerRegistered(address indexed producerAddress, string name, uint256 capacityKW);\n    event ProducerVerified(address indexed producerAddress, address indexed auditor);\n    event AuditorAuthorized(address indexed auditor);\n    event AuditorRevoked(address indexed auditor);\n    event AuditReportFiled(uint256 indexed reportId, address indexed producer, address indexed auditor, bool passed);\n\n    constructor(address _marketplaceAddress) {\n        admin = msg.sender;\n        marketplace = EnergyMarketplace(_marketplaceAddress);\n    }\n\n    modifier onlyAdmin() {\n        require(msg.sender == admin, \"Only admin can perform this action\");\n        _;\n    }\n\n    modifier onlyAuditor() {\n        require(authorizedAuditors[msg.sender], \"Only authorized auditors can perform this action\");\n        _;\n    }\n\n    function registerProducer(\n        string memory name,\n        string memory location,\n        string[] memory energyTypes,\n        uint256 capacityKW\n    ) public {\n        require(!registeredProducers[msg.sender], \"Producer already registered\");\n\n        producers[msg.sender] = Producer({\n            wallet: msg.sender,\n            name: name,\n            location: location,\n            energyTypes: energyTypes,\n            totalCapacityKW: capacityKW,\n            verified: false,\n            registrationTime: block.timestamp\n        });\n\n        registeredProducers[msg.sender] = true;\n\n        emit ProducerRegistered(msg.sender, name, capacityKW);\n    }\n\n    function authorizeAuditor(address auditor) public onlyAdmin {\n        authorizedAuditors[auditor] = true;\n        emit AuditorAuthorized(auditor);\n    }\n\n    function revokeAuditor(address auditor) public onlyAdmin {\n        authorizedAuditors[auditor] = false;\n        emit AuditorRevoked(auditor);\n    }\n\n    function verifyProducer(address producerAddress) public onlyAuditor {\n        require(registeredProducers[producerAddress], \"Producer not registered\");\n        producers[producerAddress].verified = true;\n        emit ProducerVerified(producerAddress, msg.sender);\n    }\n\n    function fileAuditReport(\n        address producerAddress,\n        string memory reportUri,\n        string memory comments,\n        bool passed\n    ) public onlyAuditor returns (uint256) {\n        require(registeredProducers[producerAddress], \"Producer not registered\");\n\n        auditReportCount++;\n\n        auditReports[auditReportCount] = AuditReport({\n            id: auditReportCount,\n            producer: producerAddress,\n            auditor: msg.sender,\n            timestamp: block.timestamp,\n            reportUri: reportUri,\n            comments: comments,\n            passed: passed\n        });\n\n        if (passed) {\n            producers[producerAddress].verified = true;\n        }\n\n        emit AuditReportFiled(auditReportCount, producerAddress, msg.sender, passed);\n        return auditReportCount;\n    }\n\n    function submitEnergyCertificate(\n        string memory energySource,\n        uint256 kWhProduced,\n        string memory location\n    ) public returns (uint256) {\n        require(registeredProducers[msg.sender], \"Must be a registered producer\");\n        require(producers[msg.sender].verified, \"Producer must be verified\");\n\n        return marketplace.createCertificate(energySource, kWhProduced, location);\n    }\n\n    function transferOwnership(address newAdmin) public onlyAdmin {\n        admin = newAdmin;\n    }\n}\n",
  "sourcePath": "/Users/kiranrajpurohit/Downloads/bclab/recs-dapp/contracts/EnergyContracts.sol",
  "compiler": {
    "name": "solc",
    "version": "0.8.21+commit.d9974bed.Emscripten.clang"
  },
  "schemaVersion": "3.4.16",
  "updatedAt": "2025-04-24T10:41:03.561Z",
  "networkType": "ethereum",
  "devdoc": {
    "kind": "dev",
    "methods": {},
    "version": 1
  },
  "userdoc": {
    "kind": "user",
    "methods": {},
    "version": 1
  }
}