{
  "contractName": "EnergyToken",
  "abi": [
    {
      "inputs": [
        {
          "internalType": "address",
          "name": "_marketController",
          "type": "address"
        }
      ],
      "stateMutability": "nonpayable",
      "type": "constructor"
    },
    {
      "anonymous": false,
      "inputs": [
        {
          "indexed": true,
          "internalType": "address",
          "name": "owner",
          "type": "address"
        },
        {
          "indexed": true,
          "internalType": "address",
          "name": "spender",
          "type": "address"
        },
        {
          "indexed": false,
          "internalType": "uint256",
          "name": "value",
          "type": "uint256"
        }
      ],
      "name": "Approval",
      "type": "event"
    },
    {
      "anonymous": false,
      "inputs": [
        {
          "indexed": true,
          "internalType": "address",
          "name": "to",
          "type": "address"
        },
        {
          "indexed": false,
          "internalType": "uint256",
          "name": "value",
          "type": "uint256"
        },
        {
          "indexed": false,
          "internalType": "string",
          "name": "energySource",
          "type": "string"
        },
        {
          "indexed": false,
          "internalType": "uint256",
          "name": "kWhProduced",
          "type": "uint256"
        }
      ],
      "name": "Mint",
      "type": "event"
    },
    {
      "anonymous": false,
      "inputs": [
        {
          "indexed": true,
          "internalType": "address",
          "name": "from",
          "type": "address"
        },
        {
          "indexed": true,
          "internalType": "address",
          "name": "to",
          "type": "address"
        },
        {
          "indexed": false,
          "internalType": "uint256",
          "name": "value",
          "type": "uint256"
        }
      ],
      "name": "Transfer",
      "type": "event"
    },
    {
      "inputs": [
        {
          "internalType": "address",
          "name": "",
          "type": "address"
        },
        {
          "internalType": "address",
          "name": "",
          "type": "address"
        }
      ],
      "name": "allowance",
      "outputs": [
        {
          "internalType": "uint256",
          "name": "",
          "type": "uint256"
        }
      ],
      "stateMutability": "view",
      "type": "function",
      "constant": true
    },
    {
      "inputs": [
        {
          "internalType": "address",
          "name": "",
          "type": "address"
        }
      ],
      "name": "balanceOf",
      "outputs": [
        {
          "internalType": "uint256",
          "name": "",
          "type": "uint256"
        }
      ],
      "stateMutability": "view",
      "type": "function",
      "constant": true
    },
    {
      "inputs": [],
      "name": "decimals",
      "outputs": [
        {
          "internalType": "uint8",
          "name": "",
          "type": "uint8"
        }
      ],
      "stateMutability": "view",
      "type": "function",
      "constant": true
    },
    {
      "inputs": [],
      "name": "marketController",
      "outputs": [
        {
          "internalType": "address",
          "name": "",
          "type": "address"
        }
      ],
      "stateMutability": "view",
      "type": "function",
      "constant": true
    },
    {
      "inputs": [],
      "name": "name",
      "outputs": [
        {
          "internalType": "string",
          "name": "",
          "type": "string"
        }
      ],
      "stateMutability": "view",
      "type": "function",
      "constant": true
    },
    {
      "inputs": [],
      "name": "symbol",
      "outputs": [
        {
          "internalType": "string",
          "name": "",
          "type": "string"
        }
      ],
      "stateMutability": "view",
      "type": "function",
      "constant": true
    },
    {
      "inputs": [],
      "name": "totalSupply",
      "outputs": [
        {
          "internalType": "uint256",
          "name": "",
          "type": "uint256"
        }
      ],
      "stateMutability": "view",
      "type": "function",
      "constant": true
    },
    {
      "inputs": [
        {
          "internalType": "address",
          "name": "to",
          "type": "address"
        },
        {
          "internalType": "uint256",
          "name": "value",
          "type": "uint256"
        }
      ],
      "name": "transfer",
      "outputs": [
        {
          "internalType": "bool",
          "name": "success",
          "type": "bool"
        }
      ],
      "stateMutability": "nonpayable",
      "type": "function"
    },
    {
      "inputs": [
        {
          "internalType": "address",
          "name": "spender",
          "type": "address"
        },
        {
          "internalType": "uint256",
          "name": "value",
          "type": "uint256"
        }
      ],
      "name": "approve",
      "outputs": [
        {
          "internalType": "bool",
          "name": "success",
          "type": "bool"
        }
      ],
      "stateMutability": "nonpayable",
      "type": "function"
    },
    {
      "inputs": [
        {
          "internalType": "address",
          "name": "from",
          "type": "address"
        },
        {
          "internalType": "address",
          "name": "to",
          "type": "address"
        },
        {
          "internalType": "uint256",
          "name": "value",
          "type": "uint256"
        }
      ],
      "name": "transferFrom",
      "outputs": [
        {
          "internalType": "bool",
          "name": "success",
          "type": "bool"
        }
      ],
      "stateMutability": "nonpayable",
      "type": "function"
    },
    {
      "inputs": [
        {
          "internalType": "address",
          "name": "to",
          "type": "address"
        },
        {
          "internalType": "uint256",
          "name": "value",
          "type": "uint256"
        },
        {
          "internalType": "enum EnergyToken.EnergySource",
          "name": "energySource",
          "type": "uint8"
        },
        {
          "internalType": "uint256",
          "name": "kWhProduced",
          "type": "uint256"
        }
      ],
      "name": "mint",
      "outputs": [
        {
          "internalType": "bool",
          "name": "success",
          "type": "bool"
        }
      ],
      "stateMutability": "nonpayable",
      "type": "function"
    },
    {
      "inputs": [
        {
          "internalType": "address",
          "name": "newController",
          "type": "address"
        }
      ],
      "name": "changeMarketController",
      "outputs": [],
      "stateMutability": "nonpayable",
      "type": "function"
    }
  ],
  "bytecode": "0x60806040526040518060400160405280601781526020017f52656e657761626c6520456e65726779204372656469740000000000000000008152505f908162000049919062000389565b506040518060400160405280600381526020017f52454300000000000000000000000000000000000000000000000000000000008152506001908162000090919062000389565b50601260025f6101000a81548160ff021916908360ff160217905550348015620000b8575f80fd5b506040516200197f3803806200197f8339818101604052810190620000de9190620004d2565b8060065f6101000a81548173ffffffffffffffffffffffffffffffffffffffff021916908373ffffffffffffffffffffffffffffffffffffffff1602179055505062000502565b5f81519050919050565b7f4e487b71000000000000000000000000000000000000000000000000000000005f52604160045260245ffd5b7f4e487b71000000000000000000000000000000000000000000000000000000005f52602260045260245ffd5b5f6002820490506001821680620001a157607f821691505b602082108103620001b757620001b66200015c565b5b50919050565b5f819050815f5260205f209050919050565b5f6020601f8301049050919050565b5f82821b905092915050565b5f600883026200021b7fffffffffffffffffffffffffffffffffffffffffffffffffffffffffffffffff82620001de565b620002278683620001de565b95508019841693508086168417925050509392505050565b5f819050919050565b5f819050919050565b5f620002716200026b62000265846200023f565b62000248565b6200023f565b9050919050565b5f819050919050565b6200028c8362000251565b620002a46200029b8262000278565b848454620001ea565b825550505050565b5f90565b620002ba620002ac565b620002c781848462000281565b505050565b5b81811015620002ee57620002e25f82620002b0565b600181019050620002cd565b5050565b601f8211156200033d576200030781620001bd565b6200031284620001cf565b8101602085101562000322578190505b6200033a6200033185620001cf565b830182620002cc565b50505b505050565b5f82821c905092915050565b5f6200035f5f198460080262000342565b1980831691505092915050565b5f6200037983836200034e565b9150826002028217905092915050565b620003948262000125565b67ffffffffffffffff811115620003b057620003af6200012f565b5b620003bc825462000189565b620003c9828285620002f2565b5f60209050601f831160018114620003ff575f8415620003ea578287015190505b620003f685826200036c565b86555062000465565b601f1984166200040f86620001bd565b5f5b82811015620004385784890151825560018201915060208501945060208101905062000411565b8683101562000458578489015162000454601f8916826200034e565b8355505b6001600288020188555050505b505050505050565b5f80fd5b5f73ffffffffffffffffffffffffffffffffffffffff82169050919050565b5f6200049c8262000471565b9050919050565b620004ae8162000490565b8114620004b9575f80fd5b50565b5f81519050620004cc81620004a3565b92915050565b5f60208284031215620004ea57620004e96200046d565b5b5f620004f984828501620004bc565b91505092915050565b61146f80620005105f395ff3fe608060405234801561000f575f80fd5b50600436106100b2575f3560e01c806395d89b411161006f57806395d89b41146101a0578063a7a6be96146101be578063a9059cbb146101ee578063bdbb0b931461021e578063dd62ed3e1461023a578063e9aa81b91461026a576100b2565b806306fdde03146100b6578063095ea7b3146100d457806318160ddd1461010457806323b872dd14610122578063313ce5671461015257806370a0823114610170575b5f80fd5b6100be610288565b6040516100cb9190610e9c565b60405180910390f35b6100ee60048036038101906100e99190610f4d565b610313565b6040516100fb9190610fa5565b60405180910390f35b61010c610400565b6040516101199190610fcd565b60405180910390f35b61013c60048036038101906101379190610fe6565b610406565b6040516101499190610fa5565b60405180910390f35b61015a6106e6565b6040516101679190611051565b60405180910390f35b61018a6004803603810190610185919061106a565b6106f8565b6040516101979190610fcd565b60405180910390f35b6101a861070d565b6040516101b59190610e9c565b60405180910390f35b6101d860048036038101906101d391906110b8565b610799565b6040516101e59190610fa5565b60405180910390f35b61020860048036038101906102039190610f4d565b610b65565b6040516102159190610fa5565b60405180910390f35b6102386004803603810190610233919061106a565b610cfb565b005b610254600480360381019061024f919061111c565b610dcd565b6040516102619190610fcd565b60405180910390f35b610272610ded565b60405161027f9190611169565b60405180910390f35b5f8054610294906111af565b80601f01602080910402602001604051908101604052809291908181526020018280546102c0906111af565b801561030b5780601f106102e25761010080835404028352916020019161030b565b820191905f5260205f20905b8154815290600101906020018083116102ee57829003601f168201915b505050505081565b5f8160055f3373ffffffffffffffffffffffffffffffffffffffff1673ffffffffffffffffffffffffffffffffffffffff1681526020019081526020015f205f8573ffffffffffffffffffffffffffffffffffffffff1673ffffffffffffffffffffffffffffffffffffffff1681526020019081526020015f20819055508273ffffffffffffffffffffffffffffffffffffffff163373ffffffffffffffffffffffffffffffffffffffff167f8c5be1e5ebec7d5bd14f71427d1e84f3dd0314c0f7b2291e5b200ac8c7c3b925846040516103ee9190610fcd565b60405180910390a36001905092915050565b60035481565b5f8160045f8673ffffffffffffffffffffffffffffffffffffffff1673ffffffffffffffffffffffffffffffffffffffff1681526020019081526020015f20541015610487576040517f08c379a000000000000000000000000000000000000000000000000000000000815260040161047e90611229565b60405180910390fd5b8160055f8673ffffffffffffffffffffffffffffffffffffffff1673ffffffffffffffffffffffffffffffffffffffff1681526020019081526020015f205f3373ffffffffffffffffffffffffffffffffffffffff1673ffffffffffffffffffffffffffffffffffffffff1681526020019081526020015f20541015610542576040517f08c379a000000000000000000000000000000000000000000000000000000000815260040161053990611291565b60405180910390fd5b8160045f8673ffffffffffffffffffffffffffffffffffffffff1673ffffffffffffffffffffffffffffffffffffffff1681526020019081526020015f205f82825461058e91906112dc565b925050819055508160045f8573ffffffffffffffffffffffffffffffffffffffff1673ffffffffffffffffffffffffffffffffffffffff1681526020019081526020015f205f8282546105e1919061130f565b925050819055508160055f8673ffffffffffffffffffffffffffffffffffffffff1673ffffffffffffffffffffffffffffffffffffffff1681526020019081526020015f205f3373ffffffffffffffffffffffffffffffffffffffff1673ffffffffffffffffffffffffffffffffffffffff1681526020019081526020015f205f82825461066f91906112dc565b925050819055508273ffffffffffffffffffffffffffffffffffffffff168473ffffffffffffffffffffffffffffffffffffffff167fddf252ad1be2c89b69c2b068fc378daa952ba7f163c4a11628f55a4df523b3ef846040516106d39190610fcd565b60405180910390a3600190509392505050565b60025f9054906101000a900460ff1681565b6004602052805f5260405f205f915090505481565b6001805461071a906111af565b80601f0160208091040260200160405190810160405280929190818152602001828054610746906111af565b80156107915780601f1061076857610100808354040283529160200191610791565b820191905f5260205f20905b81548152906001019060200180831161077457829003601f168201915b505050505081565b5f60065f9054906101000a900473ffffffffffffffffffffffffffffffffffffffff1673ffffffffffffffffffffffffffffffffffffffff163373ffffffffffffffffffffffffffffffffffffffff1614610829576040517f08c379a0000000000000000000000000000000000000000000000000000000008152600401610820906113b2565b60405180910390fd5b8360045f8773ffffffffffffffffffffffffffffffffffffffff1673ffffffffffffffffffffffffffffffffffffffff1681526020019081526020015f205f828254610875919061130f565b925050819055508360035f82825461088d919061130f565b9250508190555060605f60048111156108a9576108a86113d0565b5b8460048111156108bc576108bb6113d0565b5b036108fe576040518060400160405280600581526020017f536f6c61720000000000000000000000000000000000000000000000000000008152509050610aa1565b60016004811115610912576109116113d0565b5b846004811115610925576109246113d0565b5b03610967576040518060400160405280600481526020017f57696e64000000000000000000000000000000000000000000000000000000008152509050610aa0565b6002600481111561097b5761097a6113d0565b5b84600481111561098e5761098d6113d0565b5b036109d0576040518060400160405280600581526020017f487964726f0000000000000000000000000000000000000000000000000000008152509050610a9f565b600360048111156109e4576109e36113d0565b5b8460048111156109f7576109f66113d0565b5b03610a39576040518060400160405280600781526020017f42696f6d617373000000000000000000000000000000000000000000000000008152509050610a9e565b600480811115610a4c57610a4b6113d0565b5b846004811115610a5f57610a5e6113d0565b5b03610a9d576040518060400160405280600a81526020017f47656f746865726d616c0000000000000000000000000000000000000000000081525090505b5b5b5b5b8573ffffffffffffffffffffffffffffffffffffffff167f704496b72f6d3fd6e462fa31e27faddedde127bc9942bc94320e0c115b00cedf868386604051610aeb939291906113fd565b60405180910390a28573ffffffffffffffffffffffffffffffffffffffff165f73ffffffffffffffffffffffffffffffffffffffff167fddf252ad1be2c89b69c2b068fc378daa952ba7f163c4a11628f55a4df523b3ef87604051610b509190610fcd565b60405180910390a36001915050949350505050565b5f8160045f3373ffffffffffffffffffffffffffffffffffffffff1673ffffffffffffffffffffffffffffffffffffffff1681526020019081526020015f20541015610be6576040517f08c379a0000000000000000000000000000000000000000000000000000000008152600401610bdd90611229565b60405180910390fd5b8160045f3373ffffffffffffffffffffffffffffffffffffffff1673ffffffffffffffffffffffffffffffffffffffff1681526020019081526020015f205f828254610c3291906112dc565b925050819055508160045f8573ffffffffffffffffffffffffffffffffffffffff1673ffffffffffffffffffffffffffffffffffffffff1681526020019081526020015f205f828254610c85919061130f565b925050819055508273ffffffffffffffffffffffffffffffffffffffff163373ffffffffffffffffffffffffffffffffffffffff167fddf252ad1be2c89b69c2b068fc378daa952ba7f163c4a11628f55a4df523b3ef84604051610ce99190610fcd565b60405180910390a36001905092915050565b60065f9054906101000a900473ffffffffffffffffffffffffffffffffffffffff1673ffffffffffffffffffffffffffffffffffffffff163373ffffffffffffffffffffffffffffffffffffffff1614610d8a576040517f08c379a0000000000000000000000000000000000000000000000000000000008152600401610d81906113b2565b60405180910390fd5b8060065f6101000a81548173ffffffffffffffffffffffffffffffffffffffff021916908373ffffffffffffffffffffffffffffffffffffffff16021790555050565b6005602052815f5260405f20602052805f5260405f205f91509150505481565b60065f9054906101000a900473ffffffffffffffffffffffffffffffffffffffff1681565b5f81519050919050565b5f82825260208201905092915050565b5f5b83811015610e49578082015181840152602081019050610e2e565b5f8484015250505050565b5f601f19601f8301169050919050565b5f610e6e82610e12565b610e788185610e1c565b9350610e88818560208601610e2c565b610e9181610e54565b840191505092915050565b5f6020820190508181035f830152610eb48184610e64565b905092915050565b5f80fd5b5f73ffffffffffffffffffffffffffffffffffffffff82169050919050565b5f610ee982610ec0565b9050919050565b610ef981610edf565b8114610f03575f80fd5b50565b5f81359050610f1481610ef0565b92915050565b5f819050919050565b610f2c81610f1a565b8114610f36575f80fd5b50565b5f81359050610f4781610f23565b92915050565b5f8060408385031215610f6357610f62610ebc565b5b5f610f7085828601610f06565b9250506020610f8185828601610f39565b9150509250929050565b5f8115159050919050565b610f9f81610f8b565b82525050565b5f602082019050610fb85f830184610f96565b92915050565b610fc781610f1a565b82525050565b5f602082019050610fe05f830184610fbe565b92915050565b5f805f60608486031215610ffd57610ffc610ebc565b5b5f61100a86828701610f06565b935050602061101b86828701610f06565b925050604061102c86828701610f39565b9150509250925092565b5f60ff82169050919050565b61104b81611036565b82525050565b5f6020820190506110645f830184611042565b92915050565b5f6020828403121561107f5761107e610ebc565b5b5f61108c84828501610f06565b91505092915050565b600581106110a1575f80fd5b50565b5f813590506110b281611095565b92915050565b5f805f80608085870312156110d0576110cf610ebc565b5b5f6110dd87828801610f06565b94505060206110ee87828801610f39565b93505060406110ff878288016110a4565b925050606061111087828801610f39565b91505092959194509250565b5f806040838503121561113257611131610ebc565b5b5f61113f85828601610f06565b925050602061115085828601610f06565b9150509250929050565b61116381610edf565b82525050565b5f60208201905061117c5f83018461115a565b92915050565b7f4e487b71000000000000000000000000000000000000000000000000000000005f52602260045260245ffd5b5f60028204905060018216806111c657607f821691505b6020821081036111d9576111d8611182565b5b50919050565b7f496e73756666696369656e742062616c616e63650000000000000000000000005f82015250565b5f611213601483610e1c565b915061121e826111df565b602082019050919050565b5f6020820190508181035f83015261124081611207565b9050919050565b7f496e73756666696369656e7420616c6c6f77616e6365000000000000000000005f82015250565b5f61127b601683610e1c565b915061128682611247565b602082019050919050565b5f6020820190508181035f8301526112a88161126f565b9050919050565b7f4e487b71000000000000000000000000000000000000000000000000000000005f52601160045260245ffd5b5f6112e682610f1a565b91506112f183610f1a565b9250828203905081811115611309576113086112af565b5b92915050565b5f61131982610f1a565b915061132483610f1a565b925082820190508082111561133c5761133b6112af565b5b92915050565b7f4f6e6c79206d61726b657420636f6e74726f6c6c65722063616e20706572666f5f8201527f726d207468697320616374696f6e000000000000000000000000000000000000602082015250565b5f61139c602e83610e1c565b91506113a782611342565b604082019050919050565b5f6020820190508181035f8301526113c981611390565b9050919050565b7f4e487b71000000000000000000000000000000000000000000000000000000005f52602160045260245ffd5b5f6060820190506114105f830186610fbe565b81810360208301526114228185610e64565b90506114316040830184610fbe565b94935050505056fea2646970667358221220d1de5730cedb6b3e4bac165a43b262404cc20151702f9e521a65ed9eb744a4c764736f6c63430008150033",
  "immutableReferences": {},
  "source": "// SPDX-License-Identifier: MIT\npragma solidity ^0.8.17;\n\ncontract EnergyMarketplace {\n    struct EnergyListing {\n        uint256 id;\n        address seller;\n        uint256 tokenAmount;\n        uint256 pricePerToken;\n        string energySource;\n        uint256 kWhRepresented;\n        bool active;\n        uint256 timestamp;\n    }\n\n    struct Certificate {\n        uint256 id;\n        address producer;\n        string energySource;\n        uint256 kWhProduced;\n        uint256 tokenAmount;\n        uint256 timestamp;\n        string location;\n        bool verified;\n    }\n\n    EnergyToken public tokenContract;\n    uint256 public listingCount;\n    uint256 public certificateCount;\n    uint256 public platformFeePercent = 2; // 2% fee\n    address public admin;\n\n    mapping(uint256 => EnergyListing) public listings;\n    mapping(uint256 => Certificate) public certificates;\n    mapping(address => bool) public verifiers;\n\n    event ListingCreated(uint256 indexed id, address indexed seller, uint256 tokenAmount, uint256 pricePerToken);\n    event ListingPurchased(uint256 indexed id, address indexed buyer, address indexed seller, uint256 tokenAmount, uint256 totalPrice);\n    event ListingCancelled(uint256 indexed id, address indexed seller);\n    event CertificateCreated(uint256 indexed id, address indexed producer, string energySource, uint256 kWhProduced);\n    event CertificateVerified(uint256 indexed id, address indexed verifier);\n\n    constructor(address _tokenAddress) {\n        tokenContract = EnergyToken(_tokenAddress);\n        admin = msg.sender;\n    }\n\n    modifier onlyAdmin() {\n        require(msg.sender == admin, \"Only admin can perform this action\");\n        _;\n    }\n\n    modifier onlyVerifier() {\n        require(verifiers[msg.sender], \"Only authorized verifiers can perform this action\");\n        _;\n    }\n\n    function addVerifier(address verifier) public onlyAdmin {\n        verifiers[verifier] = true;\n    }\n\n    function removeVerifier(address verifier) public onlyAdmin {\n        verifiers[verifier] = false;\n    }\n\n    function createCertificate(\n        string memory energySource,\n        uint256 kWhProduced,\n        string memory location\n    ) public returns (uint256) {\n        certificateCount++;\n\n        certificates[certificateCount] = Certificate({\n            id: certificateCount,\n            producer: msg.sender,\n            energySource: energySource,\n            kWhProduced: kWhProduced,\n            tokenAmount: 0, // Will be set when verified\n            timestamp: block.timestamp,\n            location: location,\n            verified: false\n        });\n\n        emit CertificateCreated(certificateCount, msg.sender, energySource, kWhProduced);\n        return certificateCount;\n    }\n\n    function verifyCertificate(uint256 certificateId, uint256 tokenAmount) public onlyVerifier {\n        Certificate storage cert = certificates[certificateId];\n        require(!cert.verified, \"Certificate already verified\");\n\n        // Determine energy source enum\n        EnergyToken.EnergySource energySourceEnum;\n        if (keccak256(abi.encodePacked(cert.energySource)) == keccak256(abi.encodePacked(\"Solar\"))) {\n            energySourceEnum = EnergyToken.EnergySource.Solar;\n        } else if (keccak256(abi.encodePacked(cert.energySource)) == keccak256(abi.encodePacked(\"Wind\"))) {\n            energySourceEnum = EnergyToken.EnergySource.Wind;\n        } else if (keccak256(abi.encodePacked(cert.energySource)) == keccak256(abi.encodePacked(\"Hydro\"))) {\n            energySourceEnum = EnergyToken.EnergySource.Hydro;\n        } else if (keccak256(abi.encodePacked(cert.energySource)) == keccak256(abi.encodePacked(\"Biomass\"))) {\n            energySourceEnum = EnergyToken.EnergySource.Biomass;\n        } else if (keccak256(abi.encodePacked(cert.energySource)) == keccak256(abi.encodePacked(\"Geothermal\"))) {\n            energySourceEnum = EnergyToken.EnergySource.Geothermal;\n        } else {\n            revert(\"Invalid energy source\");\n        }\n\n        // Mint tokens to the producer\n        tokenContract.mint(cert.producer, tokenAmount, energySourceEnum, cert.kWhProduced);\n\n        // Update certificate\n        cert.verified = true;\n        cert.tokenAmount = tokenAmount;\n\n        emit CertificateVerified(certificateId, msg.sender);\n    }\n\n    function createListing(uint256 tokenAmount, uint256 pricePerToken, string memory energySource, uint256 kWhRepresented) public {\n        require(tokenAmount > 0, \"Token amount must be greater than 0\");\n        require(pricePerToken > 0, \"Price per token must be greater than 0\");\n\n        // Transfer tokens from seller to this contract\n        require(\n            tokenContract.transferFrom(msg.sender, address(this), tokenAmount),\n            \"Token transfer failed\"\n        );\n\n        listingCount++;\n\n        listings[listingCount] = EnergyListing({\n            id: listingCount,\n            seller: msg.sender,\n            tokenAmount: tokenAmount,\n            pricePerToken: pricePerToken,\n            energySource: energySource,\n            kWhRepresented: kWhRepresented,\n            active: true,\n            timestamp: block.timestamp\n        });\n\n        emit ListingCreated(listingCount, msg.sender, tokenAmount, pricePerToken);\n    }\n\n    function buyListing(uint256 listingId) public payable {\n        EnergyListing storage listing = listings[listingId];\n        require(listing.active, \"Listing is not active\");\n\n        uint256 totalPrice = listing.tokenAmount * listing.pricePerToken;\n        require(msg.value >= totalPrice, \"Insufficient payment\");\n\n        // Calculate platform fee\n        uint256 platformFee = (totalPrice * platformFeePercent) / 100;\n        uint256 sellerPayment = totalPrice - platformFee;\n\n        // Transfer tokens to buyer\n        require(\n            tokenContract.transfer(msg.sender, listing.tokenAmount),\n            \"Token transfer failed\"\n        );\n\n        // Transfer ETH to seller\n        payable(listing.seller).transfer(sellerPayment);\n\n        // Refund excess payment\n        if (msg.value > totalPrice) {\n            payable(msg.sender).transfer(msg.value - totalPrice);\n        }\n\n        // Mark listing as inactive\n        listing.active = false;\n\n        emit ListingPurchased(listingId, msg.sender, listing.seller, listing.tokenAmount, totalPrice);\n    }\n\n    function cancelListing(uint256 listingId) public {\n        EnergyListing storage listing = listings[listingId];\n        require(listing.seller == msg.sender, \"Only seller can cancel listing\");\n        require(listing.active, \"Listing is not active\");\n\n        // Return tokens to seller\n        require(\n            tokenContract.transfer(listing.seller, listing.tokenAmount),\n            \"Token transfer failed\"\n        );\n\n        // Mark listing as inactive\n        listing.active = false;\n\n        emit ListingCancelled(listingId, msg.sender);\n    }\n\n    function withdrawFees() public onlyAdmin {\n        payable(admin).transfer(address(this).balance);\n    }\n\n    function updatePlatformFee(uint256 newFeePercent) public onlyAdmin {\n        require(newFeePercent <= 10, \"Fee cannot exceed 10%\");\n        platformFeePercent = newFeePercent;\n    }\n}\n\ncontract EnergyToken {\n    string public name = \"Renewable Energy Credit\";\n    string public symbol = \"REC\";\n    uint8 public decimals = 18;\n    uint256 public totalSupply;\n\n    mapping(address => uint256) public balanceOf;\n    mapping(address => mapping(address => uint256)) public allowance;\n\n    event Transfer(address indexed from, address indexed to, uint256 value);\n    event Approval(address indexed owner, address indexed spender, uint256 value);\n    event Mint(address indexed to, uint256 value, string energySource, uint256 kWhProduced);\n\n    // Energy source types for minting\n    enum EnergySource { Solar, Wind, Hydro, Biomass, Geothermal }\n\n    // Market controller permissions\n    address public marketController;\n\n    constructor(address _marketController) {\n        marketController = _marketController;\n    }\n\n    modifier onlyMarketController() {\n        require(msg.sender == marketController, \"Only market controller can perform this action\");\n        _;\n    }\n\n    function transfer(address to, uint256 value) public returns (bool success) {\n        require(balanceOf[msg.sender] >= value, \"Insufficient balance\");\n\n        balanceOf[msg.sender] -= value;\n        balanceOf[to] += value;\n\n        emit Transfer(msg.sender, to, value);\n        return true;\n    }\n\n    function approve(address spender, uint256 value) public returns (bool success) {\n        allowance[msg.sender][spender] = value;\n        emit Approval(msg.sender, spender, value);\n        return true;\n    }\n\n    function transferFrom(address from, address to, uint256 value) public returns (bool success) {\n        require(balanceOf[from] >= value, \"Insufficient balance\");\n        require(allowance[from][msg.sender] >= value, \"Insufficient allowance\");\n\n        balanceOf[from] -= value;\n        balanceOf[to] += value;\n        allowance[from][msg.sender] -= value;\n\n        emit Transfer(from, to, value);\n        return true;\n    }\n\n    function mint(address to, uint256 value, EnergySource energySource, uint256 kWhProduced) public onlyMarketController returns (bool success) {\n        balanceOf[to] += value;\n        totalSupply += value;\n\n        string memory energySourceString;\n        if (energySource == EnergySource.Solar) energySourceString = \"Solar\";\n        else if (energySource == EnergySource.Wind) energySourceString = \"Wind\";\n        else if (energySource == EnergySource.Hydro) energySourceString = \"Hydro\";\n        else if (energySource == EnergySource.Biomass) energySourceString = \"Biomass\";\n        else if (energySource == EnergySource.Geothermal) energySourceString = \"Geothermal\";\n\n        emit Mint(to, value, energySourceString, kWhProduced);\n        emit Transfer(address(0), to, value);\n        return true;\n    }\n\n    function changeMarketController(address newController) public onlyMarketController {\n        marketController = newController;\n    }\n}\n\n\ncontract RenewableEnergyCertification {\n    struct Producer {\n        address wallet;\n        string name;\n        string location;\n        string[] energyTypes;\n        uint256 totalCapacityKW;\n        bool verified;\n        uint256 registrationTime;\n    }\n\n    struct AuditReport {\n        uint256 id;\n        address producer;\n        address auditor;\n        uint256 timestamp;\n        string reportUri;\n        string comments;\n        bool passed;\n    }\n\n    mapping(address => Producer) public producers;\n    mapping(address => bool) public registeredProducers;\n    mapping(address => bool) public authorizedAuditors;\n    mapping(uint256 => AuditReport) public auditReports;\n\n    address public admin;\n    uint256 public auditReportCount;\n    EnergyMarketplace public marketplace;\n\n    event ProducerRegistered(address indexed producerAddress, string name, uint256 capacityKW);\n    event ProducerVerified(address indexed producerAddress, address indexed auditor);\n    event AuditorAuthorized(address indexed auditor);\n    event AuditorRevoked(address indexed auditor);\n    event AuditReportFiled(uint256 indexed reportId, address indexed producer, address indexed auditor, bool passed);\n\n    constructor(address _marketplaceAddress) {\n        admin = msg.sender;\n        marketplace = EnergyMarketplace(_marketplaceAddress);\n    }\n\n    modifier onlyAdmin() {\n        require(msg.sender == admin, \"Only admin can perform this action\");\n        _;\n    }\n\n    modifier onlyAuditor() {\n        require(authorizedAuditors[msg.sender], \"Only authorized auditors can perform this action\");\n        _;\n    }\n\n    function registerProducer(\n        string memory name,\n        string memory location,\n        string[] memory energyTypes,\n        uint256 capacityKW\n    ) public {\n        require(!registeredProducers[msg.sender], \"Producer already registered\");\n\n        producers[msg.sender] = Producer({\n            wallet: msg.sender,\n            name: name,\n            location: location,\n            energyTypes: energyTypes,\n            totalCapacityKW: capacityKW,\n            verified: false,\n            registrationTime: block.timestamp\n        });\n\n        registeredProducers[msg.sender] = true;\n\n        emit ProducerRegistered(msg.sender, name, capacityKW);\n    }\n\n    function authorizeAuditor(address auditor) public onlyAdmin {\n        authorizedAuditors[auditor] = true;\n        emit AuditorAuthorized(auditor);\n    }\n\n    function revokeAuditor(address auditor) public onlyAdmin {\n        authorizedAuditors[auditor] = false;\n        emit AuditorRevoked(auditor);\n    }\n\n    function verifyProducer(address producerAddress) public onlyAuditor {\n        require(registeredProducers[producerAddress], \"Producer not registered\");\n        producers[producerAddress].verified = true;\n        emit ProducerVerified(producerAddress, msg.sender);\n    }\n\n    function fileAuditReport(\n        address producerAddress,\n        string memory reportUri,\n        string memory comments,\n        bool passed\n    ) public onlyAuditor returns (uint256) {\n        require(registeredProducers[producerAddress], \"Producer not registered\");\n\n        auditReportCount++;\n\n        auditReports[auditReportCount] = AuditReport({\n            id: auditReportCount,\n            producer: producerAddress,\n            auditor: msg.sender,\n            timestamp: block.timestamp,\n            reportUri: reportUri,\n            comments: comments,\n            passed: passed\n        });\n\n        if (passed) {\n            producers[producerAddress].verified = true;\n        }\n\n        emit AuditReportFiled(auditReportCount, producerAddress, msg.sender, passed);\n        return auditReportCount;\n    }\n\n    function submitEnergyCertificate(\n        string memory energySource,\n        uint256 kWhProduced,\n        string memory location\n    ) public returns (uint256) {\n        require(registeredProducers[msg.sender], \"Must be a registered producer\");\n        require(producers[msg.sender].verified, \"Producer must be verified\");\n\n        return marketplace.createCertificate(energySource, kWhProduced, location);\n    }\n\n    function transferOwnership(address newAdmin) public onlyAdmin {\n        admin = newAdmin;\n    }\n}\n",
  "sourcePath": "/Users/kiranrajpurohit/Downloads/bclab/recs-dapp/contracts/EnergyContracts.sol",
  "compiler": {
    "name": "solc",
    "version": "0.8.21+commit.d9974bed.Emscripten.clang"
  },
  "schemaVersion": "3.4.16",
  "updatedAt": "2025-04-24T10:41:03.553Z",
  "networkType": "ethereum",
  "devdoc": {
    "kind": "dev",
    "methods": {},
    "version": 1
  },
  "userdoc": {
    "kind": "user",
    "methods": {},
    "version": 1
  }
}