{
  "contractName": "RenewableEnergyCertification",
  "abi": [
    {
      "inputs": [
        {
          "internalType": "address",
          "name": "_marketplaceAddress",
          "type": "address"
        }
      ],
      "stateMutability": "nonpayable",
      "type": "constructor"
    },
    {
      "anonymous": false,
      "inputs": [
        {
          "indexed": true,
          "internalType": "uint256",
          "name": "reportId",
          "type": "uint256"
        },
        {
          "indexed": true,
          "internalType": "address",
          "name": "producer",
          "type": "address"
        },
        {
          "indexed": true,
          "internalType": "address",
          "name": "auditor",
          "type": "address"
        },
        {
          "indexed": false,
          "internalType": "bool",
          "name": "passed",
          "type": "bool"
        }
      ],
      "name": "AuditReportFiled",
      "type": "event"
    },
    {
      "anonymous": false,
      "inputs": [
        {
          "indexed": true,
          "internalType": "address",
          "name": "auditor",
          "type": "address"
        }
      ],
      "name": "AuditorAuthorized",
      "type": "event"
    },
    {
      "anonymous": false,
      "inputs": [
        {
          "indexed": true,
          "internalType": "address",
          "name": "auditor",
          "type": "address"
        }
      ],
      "name": "AuditorRevoked",
      "type": "event"
    },
    {
      "anonymous": false,
      "inputs": [
        {
          "indexed": true,
          "internalType": "address",
          "name": "producerAddress",
          "type": "address"
        },
        {
          "indexed": false,
          "internalType": "string",
          "name": "name",
          "type": "string"
        },
        {
          "indexed": false,
          "internalType": "uint256",
          "name": "capacityKW",
          "type": "uint256"
        }
      ],
      "name": "ProducerRegistered",
      "type": "event"
    },
    {
      "anonymous": false,
      "inputs": [
        {
          "indexed": true,
          "internalType": "address",
          "name": "producerAddress",
          "type": "address"
        },
        {
          "indexed": true,
          "internalType": "address",
          "name": "auditor",
          "type": "address"
        }
      ],
      "name": "ProducerVerified",
      "type": "event"
    },
    {
      "inputs": [],
      "name": "admin",
      "outputs": [
        {
          "internalType": "address",
          "name": "",
          "type": "address"
        }
      ],
      "stateMutability": "view",
      "type": "function",
      "constant": true
    },
    {
      "inputs": [],
      "name": "auditReportCount",
      "outputs": [
        {
          "internalType": "uint256",
          "name": "",
          "type": "uint256"
        }
      ],
      "stateMutability": "view",
      "type": "function",
      "constant": true
    },
    {
      "inputs": [
        {
          "internalType": "uint256",
          "name": "",
          "type": "uint256"
        }
      ],
      "name": "auditReports",
      "outputs": [
        {
          "internalType": "uint256",
          "name": "id",
          "type": "uint256"
        },
        {
          "internalType": "address",
          "name": "producer",
          "type": "address"
        },
        {
          "internalType": "address",
          "name": "auditor",
          "type": "address"
        },
        {
          "internalType": "uint256",
          "name": "timestamp",
          "type": "uint256"
        },
        {
          "internalType": "string",
          "name": "reportUri",
          "type": "string"
        },
        {
          "internalType": "string",
          "name": "comments",
          "type": "string"
        },
        {
          "internalType": "bool",
          "name": "passed",
          "type": "bool"
        }
      ],
      "stateMutability": "view",
      "type": "function",
      "constant": true
    },
    {
      "inputs": [
        {
          "internalType": "address",
          "name": "",
          "type": "address"
        }
      ],
      "name": "authorizedAuditors",
      "outputs": [
        {
          "internalType": "bool",
          "name": "",
          "type": "bool"
        }
      ],
      "stateMutability": "view",
      "type": "function",
      "constant": true
    },
    {
      "inputs": [],
      "name": "marketplace",
      "outputs": [
        {
          "internalType": "contract EnergyMarketplace",
          "name": "",
          "type": "address"
        }
      ],
      "stateMutability": "view",
      "type": "function",
      "constant": true
    },
    {
      "inputs": [
        {
          "internalType": "address",
          "name": "",
          "type": "address"
        }
      ],
      "name": "producers",
      "outputs": [
        {
          "internalType": "address",
          "name": "wallet",
          "type": "address"
        },
        {
          "internalType": "string",
          "name": "name",
          "type": "string"
        },
        {
          "internalType": "string",
          "name": "location",
          "type": "string"
        },
        {
          "internalType": "uint256",
          "name": "totalCapacityKW",
          "type": "uint256"
        },
        {
          "internalType": "bool",
          "name": "verified",
          "type": "bool"
        },
        {
          "internalType": "uint256",
          "name": "registrationTime",
          "type": "uint256"
        }
      ],
      "stateMutability": "view",
      "type": "function",
      "constant": true
    },
    {
      "inputs": [
        {
          "internalType": "address",
          "name": "",
          "type": "address"
        }
      ],
      "name": "registeredProducers",
      "outputs": [
        {
          "internalType": "bool",
          "name": "",
          "type": "bool"
        }
      ],
      "stateMutability": "view",
      "type": "function",
      "constant": true
    },
    {
      "inputs": [
        {
          "internalType": "string",
          "name": "name",
          "type": "string"
        },
        {
          "internalType": "string",
          "name": "location",
          "type": "string"
        },
        {
          "internalType": "string[]",
          "name": "energyTypes",
          "type": "string[]"
        },
        {
          "internalType": "uint256",
          "name": "capacityKW",
          "type": "uint256"
        }
      ],
      "name": "registerProducer",
      "outputs": [],
      "stateMutability": "nonpayable",
      "type": "function"
    },
    {
      "inputs": [
        {
          "internalType": "address",
          "name": "auditor",
          "type": "address"
        }
      ],
      "name": "authorizeAuditor",
      "outputs": [],
      "stateMutability": "nonpayable",
      "type": "function"
    },
    {
      "inputs": [
        {
          "internalType": "address",
          "name": "auditor",
          "type": "address"
        }
      ],
      "name": "revokeAuditor",
      "outputs": [],
      "stateMutability": "nonpayable",
      "type": "function"
    },
    {
      "inputs": [
        {
          "internalType": "address",
          "name": "producerAddress",
          "type": "address"
        }
      ],
      "name": "verifyProducer",
      "outputs": [],
      "stateMutability": "nonpayable",
      "type": "function"
    },
    {
      "inputs": [
        {
          "internalType": "address",
          "name": "producerAddress",
          "type": "address"
        },
        {
          "internalType": "string",
          "name": "reportUri",
          "type": "string"
        },
        {
          "internalType": "string",
          "name": "comments",
          "type": "string"
        },
        {
          "internalType": "bool",
          "name": "passed",
          "type": "bool"
        }
      ],
      "name": "fileAuditReport",
      "outputs": [
        {
          "internalType": "uint256",
          "name": "",
          "type": "uint256"
        }
      ],
      "stateMutability": "nonpayable",
      "type": "function"
    },
    {
      "inputs": [
        {
          "internalType": "string",
          "name": "energySource",
          "type": "string"
        },
        {
          "internalType": "uint256",
          "name": "kWhProduced",
          "type": "uint256"
        },
        {
          "internalType": "string",
          "name": "location",
          "type": "string"
        }
      ],
      "name": "submitEnergyCertificate",
      "outputs": [
        {
          "internalType": "uint256",
          "name": "",
          "type": "uint256"
        }
      ],
      "stateMutability": "nonpayable",
      "type": "function"
    },
    {
      "inputs": [
        {
          "internalType": "address",
          "name": "newAdmin",
          "type": "address"
        }
      ],
      "name": "transferOwnership",
      "outputs": [],
      "stateMutability": "nonpayable",
      "type": "function"
    }
  ],
  "bytecode": "0x608060405234801562000010575f80fd5b506040516200238638038062002386833981810160405281019062000036919062000122565b3360045f6101000a81548173ffffffffffffffffffffffffffffffffffffffff021916908373ffffffffffffffffffffffffffffffffffffffff1602179055508060065f6101000a81548173ffffffffffffffffffffffffffffffffffffffff021916908373ffffffffffffffffffffffffffffffffffffffff1602179055505062000152565b5f80fd5b5f73ffffffffffffffffffffffffffffffffffffffff82169050919050565b5f620000ec82620000c1565b9050919050565b620000fe81620000e0565b811462000109575f80fd5b50565b5f815190506200011c81620000f3565b92915050565b5f602082840312156200013a5762000139620000bd565b5b5f62000149848285016200010c565b91505092915050565b61222680620001605f395ff3fe608060405234801561000f575f80fd5b50600436106100e8575f3560e01c8063b402980b1161008a578063e1c3dd1811610064578063e1c3dd1814610289578063f2fde38b146102a5578063f851a440146102c1578063fe1c3a3a146102df576100e8565b8063b402980b14610221578063c007947b1461023d578063c022850114610259576100e8565b8063368fd05c116100c6578063368fd05c1461018757806376bc59ec146101b75780639cb65039146101e7578063abc8c7af14610203576100e8565b80630c7e82fd146100ec5780630daf71ac1461011c57806326324eff14610152575b5f80fd5b6101066004803603810190610101919061155f565b6102fd565b60405161011391906115f6565b60405180910390f35b6101366004803603810190610131919061160f565b6104b9565b604051610149979695949392919061170d565b60405180910390f35b61016c600480360381019061016791906117b2565b61064d565b60405161017e969594939291906117dd565b60405180910390f35b6101a1600480360381019061019c9190611874565b6107bb565b6040516101ae91906115f6565b60405180910390f35b6101d160048036038101906101cc91906117b2565b610b1a565b6040516101de9190611910565b60405180910390f35b61020160048036038101906101fc91906117b2565b610b37565b005b61020b610c61565b6040516102189190611984565b60405180910390f35b61023b600480360381019061023691906117b2565b610c86565b005b610257600480360381019061025291906117b2565b610daf565b005b610273600480360381019061026e91906117b2565b610f75565b6040516102809190611910565b60405180910390f35b6102a3600480360381019061029e9190611a7f565b610f92565b005b6102bf60048036038101906102ba91906117b2565b611210565b005b6102c96112e2565b6040516102d69190611b37565b60405180910390f35b6102e7611307565b6040516102f491906115f6565b60405180910390f35b5f60015f3373ffffffffffffffffffffffffffffffffffffffff1673ffffffffffffffffffffffffffffffffffffffff1681526020019081526020015f205f9054906101000a900460ff16610387576040517f08c379a000000000000000000000000000000000000000000000000000000000815260040161037e90611b9a565b60405180910390fd5b5f803373ffffffffffffffffffffffffffffffffffffffff1673ffffffffffffffffffffffffffffffffffffffff1681526020019081526020015f206005015f9054906101000a900460ff16610412576040517f08c379a000000000000000000000000000000000000000000000000000000000815260040161040990611c02565b60405180910390fd5b60065f9054906101000a900473ffffffffffffffffffffffffffffffffffffffff1673ffffffffffffffffffffffffffffffffffffffff166384fbce768585856040518463ffffffff1660e01b815260040161047093929190611c20565b6020604051808303815f875af115801561048c573d5f803e3d5ffd5b505050506040513d601f19601f820116820180604052508101906104b09190611c77565b90509392505050565b6003602052805f5260405f205f91509050805f015490806001015f9054906101000a900473ffffffffffffffffffffffffffffffffffffffff1690806002015f9054906101000a900473ffffffffffffffffffffffffffffffffffffffff169080600301549080600401805461052e90611ccf565b80601f016020809104026020016040519081016040528092919081815260200182805461055a90611ccf565b80156105a55780601f1061057c576101008083540402835291602001916105a5565b820191905f5260205f20905b81548152906001019060200180831161058857829003601f168201915b5050505050908060050180546105ba90611ccf565b80601f01602080910402602001604051908101604052809291908181526020018280546105e690611ccf565b80156106315780601f1061060857610100808354040283529160200191610631565b820191905f5260205f20905b81548152906001019060200180831161061457829003601f168201915b505050505090806006015f9054906101000a900460ff16905087565b5f602052805f5260405f205f91509050805f015f9054906101000a900473ffffffffffffffffffffffffffffffffffffffff169080600101805461069090611ccf565b80601f01602080910402602001604051908101604052809291908181526020018280546106bc90611ccf565b80156107075780601f106106de57610100808354040283529160200191610707565b820191905f5260205f20905b8154815290600101906020018083116106ea57829003601f168201915b50505050509080600201805461071c90611ccf565b80601f016020809104026020016040519081016040528092919081815260200182805461074890611ccf565b80156107935780601f1061076a57610100808354040283529160200191610793565b820191905f5260205f20905b81548152906001019060200180831161077657829003601f168201915b505050505090806004015490806005015f9054906101000a900460ff16908060060154905086565b5f60025f3373ffffffffffffffffffffffffffffffffffffffff1673ffffffffffffffffffffffffffffffffffffffff1681526020019081526020015f205f9054906101000a900460ff16610845576040517f08c379a000000000000000000000000000000000000000000000000000000000815260040161083c90611d6f565b60405180910390fd5b60015f8673ffffffffffffffffffffffffffffffffffffffff1673ffffffffffffffffffffffffffffffffffffffff1681526020019081526020015f205f9054906101000a900460ff166108ce576040517f08c379a00000000000000000000000000000000000000000000000000000000081526004016108c590611dd7565b60405180910390fd5b60055f8154809291906108e090611e22565b91905055506040518060e0016040528060055481526020018673ffffffffffffffffffffffffffffffffffffffff1681526020013373ffffffffffffffffffffffffffffffffffffffff16815260200142815260200185815260200184815260200183151581525060035f60055481526020019081526020015f205f820151815f01556020820151816001015f6101000a81548173ffffffffffffffffffffffffffffffffffffffff021916908373ffffffffffffffffffffffffffffffffffffffff1602179055506040820151816002015f6101000a81548173ffffffffffffffffffffffffffffffffffffffff021916908373ffffffffffffffffffffffffffffffffffffffff160217905550606082015181600301556080820151816004019081610a0e9190611ffd565b5060a0820151816005019081610a249190611ffd565b5060c0820151816006015f6101000a81548160ff0219169083151502179055509050508115610aa55760015f808773ffffffffffffffffffffffffffffffffffffffff1673ffffffffffffffffffffffffffffffffffffffff1681526020019081526020015f206005015f6101000a81548160ff0219169083151502179055505b3373ffffffffffffffffffffffffffffffffffffffff168573ffffffffffffffffffffffffffffffffffffffff166005547ffc63a025c64dc65123c35b0d4a16bc51610a09de1acb9a0bed6393a9fec5038d85604051610b059190611910565b60405180910390a46005549050949350505050565b6001602052805f5260405f205f915054906101000a900460ff1681565b60045f9054906101000a900473ffffffffffffffffffffffffffffffffffffffff1673ffffffffffffffffffffffffffffffffffffffff163373ffffffffffffffffffffffffffffffffffffffff1614610bc6576040517f08c379a0000000000000000000000000000000000000000000000000000000008152600401610bbd9061213c565b60405180910390fd5b600160025f8373ffffffffffffffffffffffffffffffffffffffff1673ffffffffffffffffffffffffffffffffffffffff1681526020019081526020015f205f6101000a81548160ff0219169083151502179055508073ffffffffffffffffffffffffffffffffffffffff167f7bcf8161dba1805d02b64f93065085912ef8115e91fee268661f2262f1b2f13560405160405180910390a250565b60065f9054906101000a900473ffffffffffffffffffffffffffffffffffffffff1681565b60045f9054906101000a900473ffffffffffffffffffffffffffffffffffffffff1673ffffffffffffffffffffffffffffffffffffffff163373ffffffffffffffffffffffffffffffffffffffff1614610d15576040517f08c379a0000000000000000000000000000000000000000000000000000000008152600401610d0c9061213c565b60405180910390fd5b5f60025f8373ffffffffffffffffffffffffffffffffffffffff1673ffffffffffffffffffffffffffffffffffffffff1681526020019081526020015f205f6101000a81548160ff0219169083151502179055508073ffffffffffffffffffffffffffffffffffffffff167feb2a2eb059f7ce22cdb9ce6710a0df23c2e8d5ca169ee77629faa99f8c788a0160405160405180910390a250565b60025f3373ffffffffffffffffffffffffffffffffffffffff1673ffffffffffffffffffffffffffffffffffffffff1681526020019081526020015f205f9054906101000a900460ff16610e38576040517f08c379a0000000000000000000000000000000000000000000000000000000008152600401610e2f90611d6f565b60405180910390fd5b60015f8273ffffffffffffffffffffffffffffffffffffffff1673ffffffffffffffffffffffffffffffffffffffff1681526020019081526020015f205f9054906101000a900460ff16610ec1576040517f08c379a0000000000000000000000000000000000000000000000000000000008152600401610eb890611dd7565b60405180910390fd5b60015f808373ffffffffffffffffffffffffffffffffffffffff1673ffffffffffffffffffffffffffffffffffffffff1681526020019081526020015f206005015f6101000a81548160ff0219169083151502179055503373ffffffffffffffffffffffffffffffffffffffff168173ffffffffffffffffffffffffffffffffffffffff167f29c5fb292d73374add83bddc6d2b9b9161c7212031cc75fc47eb8c31bda10d9c60405160405180910390a350565b6002602052805f5260405f205f915054906101000a900460ff1681565b60015f3373ffffffffffffffffffffffffffffffffffffffff1673ffffffffffffffffffffffffffffffffffffffff1681526020019081526020015f205f9054906101000a900460ff161561101c576040517f08c379a0000000000000000000000000000000000000000000000000000000008152600401611013906121a4565b60405180910390fd5b6040518060e001604052803373ffffffffffffffffffffffffffffffffffffffff1681526020018581526020018481526020018381526020018281526020015f15158152602001428152505f803373ffffffffffffffffffffffffffffffffffffffff1673ffffffffffffffffffffffffffffffffffffffff1681526020019081526020015f205f820151815f015f6101000a81548173ffffffffffffffffffffffffffffffffffffffff021916908373ffffffffffffffffffffffffffffffffffffffff16021790555060208201518160010190816110fc9190611ffd565b5060408201518160020190816111129190611ffd565b50606082015181600301908051906020019061112f92919061130d565b506080820151816004015560a0820151816005015f6101000a81548160ff02191690831515021790555060c082015181600601559050506001805f3373ffffffffffffffffffffffffffffffffffffffff1673ffffffffffffffffffffffffffffffffffffffff1681526020019081526020015f205f6101000a81548160ff0219169083151502179055503373ffffffffffffffffffffffffffffffffffffffff167f8e352259c32bcb7226d89eb7747d2bee6c6483666cb0045b6a74841a95c3497e85836040516112029291906121c2565b60405180910390a250505050565b60045f9054906101000a900473ffffffffffffffffffffffffffffffffffffffff1673ffffffffffffffffffffffffffffffffffffffff163373ffffffffffffffffffffffffffffffffffffffff161461129f576040517f08c379a00000000000000000000000000000000000000000000000000000000081526004016112969061213c565b60405180910390fd5b8060045f6101000a81548173ffffffffffffffffffffffffffffffffffffffff021916908373ffffffffffffffffffffffffffffffffffffffff16021790555050565b60045f9054906101000a900473ffffffffffffffffffffffffffffffffffffffff1681565b60055481565b828054828255905f5260205f20908101928215611353579160200282015b828111156113525782518290816113429190611ffd565b509160200191906001019061132b565b5b5090506113609190611364565b5090565b5b80821115611383575f818161137a9190611387565b50600101611365565b5090565b50805461139390611ccf565b5f825580601f106113a457506113c1565b601f0160209004905f5260205f20908101906113c091906113c4565b5b50565b5b808211156113db575f815f9055506001016113c5565b5090565b5f604051905090565b5f80fd5b5f80fd5b5f80fd5b5f80fd5b5f601f19601f8301169050919050565b7f4e487b71000000000000000000000000000000000000000000000000000000005f52604160045260245ffd5b61143e826113f8565b810181811067ffffffffffffffff8211171561145d5761145c611408565b5b80604052505050565b5f61146f6113df565b905061147b8282611435565b919050565b5f67ffffffffffffffff82111561149a57611499611408565b5b6114a3826113f8565b9050602081019050919050565b828183375f83830152505050565b5f6114d06114cb84611480565b611466565b9050828152602081018484840111156114ec576114eb6113f4565b5b6114f78482856114b0565b509392505050565b5f82601f830112611513576115126113f0565b5b81356115238482602086016114be565b91505092915050565b5f819050919050565b61153e8161152c565b8114611548575f80fd5b50565b5f8135905061155981611535565b92915050565b5f805f60608486031215611576576115756113e8565b5b5f84013567ffffffffffffffff811115611593576115926113ec565b5b61159f868287016114ff565b93505060206115b08682870161154b565b925050604084013567ffffffffffffffff8111156115d1576115d06113ec565b5b6115dd868287016114ff565b9150509250925092565b6115f08161152c565b82525050565b5f6020820190506116095f8301846115e7565b92915050565b5f60208284031215611624576116236113e8565b5b5f6116318482850161154b565b91505092915050565b5f73ffffffffffffffffffffffffffffffffffffffff82169050919050565b5f6116638261163a565b9050919050565b61167381611659565b82525050565b5f81519050919050565b5f82825260208201905092915050565b5f5b838110156116b0578082015181840152602081019050611695565b5f8484015250505050565b5f6116c582611679565b6116cf8185611683565b93506116df818560208601611693565b6116e8816113f8565b840191505092915050565b5f8115159050919050565b611707816116f3565b82525050565b5f60e0820190506117205f83018a6115e7565b61172d602083018961166a565b61173a604083018861166a565b61174760608301876115e7565b818103608083015261175981866116bb565b905081810360a083015261176d81856116bb565b905061177c60c08301846116fe565b98975050505050505050565b61179181611659565b811461179b575f80fd5b50565b5f813590506117ac81611788565b92915050565b5f602082840312156117c7576117c66113e8565b5b5f6117d48482850161179e565b91505092915050565b5f60c0820190506117f05f83018961166a565b818103602083015261180281886116bb565b9050818103604083015261181681876116bb565b905061182560608301866115e7565b61183260808301856116fe565b61183f60a08301846115e7565b979650505050505050565b611853816116f3565b811461185d575f80fd5b50565b5f8135905061186e8161184a565b92915050565b5f805f806080858703121561188c5761188b6113e8565b5b5f6118998782880161179e565b945050602085013567ffffffffffffffff8111156118ba576118b96113ec565b5b6118c6878288016114ff565b935050604085013567ffffffffffffffff8111156118e7576118e66113ec565b5b6118f3878288016114ff565b925050606061190487828801611860565b91505092959194509250565b5f6020820190506119235f8301846116fe565b92915050565b5f819050919050565b5f61194c6119476119428461163a565b611929565b61163a565b9050919050565b5f61195d82611932565b9050919050565b5f61196e82611953565b9050919050565b61197e81611964565b82525050565b5f6020820190506119975f830184611975565b92915050565b5f67ffffffffffffffff8211156119b7576119b6611408565b5b602082029050602081019050919050565b5f80fd5b5f6119de6119d98461199d565b611466565b90508083825260208201905060208402830185811115611a0157611a006119c8565b5b835b81811015611a4857803567ffffffffffffffff811115611a2657611a256113f0565b5b808601611a3389826114ff565b85526020850194505050602081019050611a03565b5050509392505050565b5f82601f830112611a6657611a656113f0565b5b8135611a768482602086016119cc565b91505092915050565b5f805f8060808587031215611a9757611a966113e8565b5b5f85013567ffffffffffffffff811115611ab457611ab36113ec565b5b611ac0878288016114ff565b945050602085013567ffffffffffffffff811115611ae157611ae06113ec565b5b611aed878288016114ff565b935050604085013567ffffffffffffffff811115611b0e57611b0d6113ec565b5b611b1a87828801611a52565b9250506060611b2b8782880161154b565b91505092959194509250565b5f602082019050611b4a5f83018461166a565b92915050565b7f4d757374206265206120726567697374657265642070726f64756365720000005f82015250565b5f611b84601d83611683565b9150611b8f82611b50565b602082019050919050565b5f6020820190508181035f830152611bb181611b78565b9050919050565b7f50726f6475636572206d757374206265207665726966696564000000000000005f82015250565b5f611bec601983611683565b9150611bf782611bb8565b602082019050919050565b5f6020820190508181035f830152611c1981611be0565b9050919050565b5f6060820190508181035f830152611c3881866116bb565b9050611c4760208301856115e7565b8181036040830152611c5981846116bb565b9050949350505050565b5f81519050611c7181611535565b92915050565b5f60208284031215611c8c57611c8b6113e8565b5b5f611c9984828501611c63565b91505092915050565b7f4e487b71000000000000000000000000000000000000000000000000000000005f52602260045260245ffd5b5f6002820490506001821680611ce657607f821691505b602082108103611cf957611cf8611ca2565b5b50919050565b7f4f6e6c7920617574686f72697a65642061756469746f72732063616e207065725f8201527f666f726d207468697320616374696f6e00000000000000000000000000000000602082015250565b5f611d59603083611683565b9150611d6482611cff565b604082019050919050565b5f6020820190508181035f830152611d8681611d4d565b9050919050565b7f50726f6475636572206e6f7420726567697374657265640000000000000000005f82015250565b5f611dc1601783611683565b9150611dcc82611d8d565b602082019050919050565b5f6020820190508181035f830152611dee81611db5565b9050919050565b7f4e487b71000000000000000000000000000000000000000000000000000000005f52601160045260245ffd5b5f611e2c8261152c565b91507fffffffffffffffffffffffffffffffffffffffffffffffffffffffffffffffff8203611e5e57611e5d611df5565b5b600182019050919050565b5f819050815f5260205f209050919050565b5f6020601f8301049050919050565b5f82821b905092915050565b5f60088302611ec57fffffffffffffffffffffffffffffffffffffffffffffffffffffffffffffffff82611e8a565b611ecf8683611e8a565b95508019841693508086168417925050509392505050565b5f611f01611efc611ef78461152c565b611929565b61152c565b9050919050565b5f819050919050565b611f1a83611ee7565b611f2e611f2682611f08565b848454611e96565b825550505050565b5f90565b611f42611f36565b611f4d818484611f11565b505050565b5b81811015611f7057611f655f82611f3a565b600181019050611f53565b5050565b601f821115611fb557611f8681611e69565b611f8f84611e7b565b81016020851015611f9e578190505b611fb2611faa85611e7b565b830182611f52565b50505b505050565b5f82821c905092915050565b5f611fd55f1984600802611fba565b1980831691505092915050565b5f611fed8383611fc6565b9150826002028217905092915050565b61200682611679565b67ffffffffffffffff81111561201f5761201e611408565b5b6120298254611ccf565b612034828285611f74565b5f60209050601f831160018114612065575f8415612053578287015190505b61205d8582611fe2565b8655506120c4565b601f19841661207386611e69565b5f5b8281101561209a57848901518255600182019150602085019450602081019050612075565b868310156120b757848901516120b3601f891682611fc6565b8355505b6001600288020188555050505b505050505050565b7f4f6e6c792061646d696e2063616e20706572666f726d207468697320616374695f8201527f6f6e000000000000000000000000000000000000000000000000000000000000602082015250565b5f612126602283611683565b9150612131826120cc565b604082019050919050565b5f6020820190508181035f8301526121538161211a565b9050919050565b7f50726f647563657220616c7265616479207265676973746572656400000000005f82015250565b5f61218e601b83611683565b91506121998261215a565b602082019050919050565b5f6020820190508181035f8301526121bb81612182565b9050919050565b5f6040820190508181035f8301526121da81856116bb565b90506121e960208301846115e7565b939250505056fea2646970667358221220eb145ad8bab4a35e9b91af5d36e93ff14ec61880bec55d8d4f84cf256748af1564736f6c63430008150033",
  "immutableReferences": {},
  "source": "// SPDX-License-Identifier: MIT\npragma solidity ^0.8.17;\n\ncontract EnergyMarketplace {\n    struct EnergyListing {\n        uint256 id;\n        address seller;\n        uint256 tokenAmount;\n        uint256 pricePerToken;\n        string energySource;\n        uint256 kWhRepresented;\n        bool active;\n        uint256 timestamp;\n    }\n\n    struct Certificate {\n        uint256 id;\n        address producer;\n        string energySource;\n        uint256 kWhProduced;\n        uint256 tokenAmount;\n        uint256 timestamp;\n        string location;\n        bool verified;\n    }\n\n    EnergyToken public tokenContract;\n    uint256 public listingCount;\n    uint256 public certificateCount;\n    uint256 public platformFeePercent = 2; // 2% fee\n    address public admin;\n\n    mapping(uint256 => EnergyListing) public listings;\n    mapping(uint256 => Certificate) public certificates;\n    mapping(address => bool) public verifiers;\n\n    event ListingCreated(uint256 indexed id, address indexed seller, uint256 tokenAmount, uint256 pricePerToken);\n    event ListingPurchased(uint256 indexed id, address indexed buyer, address indexed seller, uint256 tokenAmount, uint256 totalPrice);\n    event ListingCancelled(uint256 indexed id, address indexed seller);\n    event CertificateCreated(uint256 indexed id, address indexed producer, string energySource, uint256 kWhProduced);\n    event CertificateVerified(uint256 indexed id, address indexed verifier);\n\n    constructor(address _tokenAddress) {\n        tokenContract = EnergyToken(_tokenAddress);\n        admin = msg.sender;\n    }\n\n    modifier onlyAdmin() {\n        require(msg.sender == admin, \"Only admin can perform this action\");\n        _;\n    }\n\n    modifier onlyVerifier() {\n        require(verifiers[msg.sender], \"Only authorized verifiers can perform this action\");\n        _;\n    }\n\n    function addVerifier(address verifier) public onlyAdmin {\n        verifiers[verifier] = true;\n    }\n\n    function removeVerifier(address verifier) public onlyAdmin {\n        verifiers[verifier] = false;\n    }\n\n    function createCertificate(\n        string memory energySource,\n        uint256 kWhProduced,\n        string memory location\n    ) public returns (uint256) {\n        certificateCount++;\n\n        certificates[certificateCount] = Certificate({\n            id: certificateCount,\n            producer: msg.sender,\n            energySource: energySource,\n            kWhProduced: kWhProduced,\n            tokenAmount: 0, // Will be set when verified\n            timestamp: block.timestamp,\n            location: location,\n            verified: false\n        });\n\n        emit CertificateCreated(certificateCount, msg.sender, energySource, kWhProduced);\n        return certificateCount;\n    }\n\n    function verifyCertificate(uint256 certificateId, uint256 tokenAmount) public onlyVerifier {\n        Certificate storage cert = certificates[certificateId];\n        require(!cert.verified, \"Certificate already verified\");\n\n        // Determine energy source enum\n        EnergyToken.EnergySource energySourceEnum;\n        if (keccak256(abi.encodePacked(cert.energySource)) == keccak256(abi.encodePacked(\"Solar\"))) {\n            energySourceEnum = EnergyToken.EnergySource.Solar;\n        } else if (keccak256(abi.encodePacked(cert.energySource)) == keccak256(abi.encodePacked(\"Wind\"))) {\n            energySourceEnum = EnergyToken.EnergySource.Wind;\n        } else if (keccak256(abi.encodePacked(cert.energySource)) == keccak256(abi.encodePacked(\"Hydro\"))) {\n            energySourceEnum = EnergyToken.EnergySource.Hydro;\n        } else if (keccak256(abi.encodePacked(cert.energySource)) == keccak256(abi.encodePacked(\"Biomass\"))) {\n            energySourceEnum = EnergyToken.EnergySource.Biomass;\n        } else if (keccak256(abi.encodePacked(cert.energySource)) == keccak256(abi.encodePacked(\"Geothermal\"))) {\n            energySourceEnum = EnergyToken.EnergySource.Geothermal;\n        } else {\n            revert(\"Invalid energy source\");\n        }\n\n        // Mint tokens to the producer\n        tokenContract.mint(cert.producer, tokenAmount, energySourceEnum, cert.kWhProduced);\n\n        // Update certificate\n        cert.verified = true;\n        cert.tokenAmount = tokenAmount;\n\n        emit CertificateVerified(certificateId, msg.sender);\n    }\n\n    function createListing(uint256 tokenAmount, uint256 pricePerToken, string memory energySource, uint256 kWhRepresented) public {\n        require(tokenAmount > 0, \"Token amount must be greater than 0\");\n        require(pricePerToken > 0, \"Price per token must be greater than 0\");\n\n        // Transfer tokens from seller to this contract\n        require(\n            tokenContract.transferFrom(msg.sender, address(this), tokenAmount),\n            \"Token transfer failed\"\n        );\n\n        listingCount++;\n\n        listings[listingCount] = EnergyListing({\n            id: listingCount,\n            seller: msg.sender,\n            tokenAmount: tokenAmount,\n            pricePerToken: pricePerToken,\n            energySource: energySource,\n            kWhRepresented: kWhRepresented,\n            active: true,\n            timestamp: block.timestamp\n        });\n\n        emit ListingCreated(listingCount, msg.sender, tokenAmount, pricePerToken);\n    }\n\n    function buyListing(uint256 listingId) public payable {\n        EnergyListing storage listing = listings[listingId];\n        require(listing.active, \"Listing is not active\");\n\n        uint256 totalPrice = listing.tokenAmount * listing.pricePerToken;\n        require(msg.value >= totalPrice, \"Insufficient payment\");\n\n        // Calculate platform fee\n        uint256 platformFee = (totalPrice * platformFeePercent) / 100;\n        uint256 sellerPayment = totalPrice - platformFee;\n\n        // Transfer tokens to buyer\n        require(\n            tokenContract.transfer(msg.sender, listing.tokenAmount),\n            \"Token transfer failed\"\n        );\n\n        // Transfer ETH to seller\n        payable(listing.seller).transfer(sellerPayment);\n\n        // Refund excess payment\n        if (msg.value > totalPrice) {\n            payable(msg.sender).transfer(msg.value - totalPrice);\n        }\n\n        // Mark listing as inactive\n        listing.active = false;\n\n        emit ListingPurchased(listingId, msg.sender, listing.seller, listing.tokenAmount, totalPrice);\n    }\n\n    function cancelListing(uint256 listingId) public {\n        EnergyListing storage listing = listings[listingId];\n        require(listing.seller == msg.sender, \"Only seller can cancel listing\");\n        require(listing.active, \"Listing is not active\");\n\n        // Return tokens to seller\n        require(\n            tokenContract.transfer(listing.seller, listing.tokenAmount),\n            \"Token transfer failed\"\n        );\n\n        // Mark listing as inactive\n        listing.active = false;\n\n        emit ListingCancelled(listingId, msg.sender);\n    }\n\n    function withdrawFees() public onlyAdmin {\n        payable(admin).transfer(address(this).balance);\n    }\n\n    function updatePlatformFee(uint256 newFeePercent) public onlyAdmin {\n        require(newFeePercent <= 10, \"Fee cannot exceed 10%\");\n        platformFeePercent = newFeePercent;\n    }\n}\n\ncontract EnergyToken {\n    string public name = \"Renewable Energy Credit\";\n    string public symbol = \"REC\";\n    uint8 public decimals = 18;\n    uint256 public totalSupply;\n\n    mapping(address => uint256) public balanceOf;\n    mapping(address => mapping(address => uint256)) public allowance;\n\n    event Transfer(address indexed from, address indexed to, uint256 value);\n    event Approval(address indexed owner, address indexed spender, uint256 value);\n    event Mint(address indexed to, uint256 value, string energySource, uint256 kWhProduced);\n\n    // Energy source types for minting\n    enum EnergySource { Solar, Wind, Hydro, Biomass, Geothermal }\n\n    // Market controller permissions\n    address public marketController;\n\n    constructor(address _marketController) {\n        marketController = _marketController;\n    }\n\n    modifier onlyMarketController() {\n        require(msg.sender == marketController, \"Only market controller can perform this action\");\n        _;\n    }\n\n    function transfer(address to, uint256 value) public returns (bool success) {\n        require(balanceOf[msg.sender] >= value, \"Insufficient balance\");\n\n        balanceOf[msg.sender] -= value;\n        balanceOf[to] += value;\n\n        emit Transfer(msg.sender, to, value);\n        return true;\n    }\n\n    function approve(address spender, uint256 value) public returns (bool success) {\n        allowance[msg.sender][spender] = value;\n        emit Approval(msg.sender, spender, value);\n        return true;\n    }\n\n    function transferFrom(address from, address to, uint256 value) public returns (bool success) {\n        require(balanceOf[from] >= value, \"Insufficient balance\");\n        require(allowance[from][msg.sender] >= value, \"Insufficient allowance\");\n\n        balanceOf[from] -= value;\n        balanceOf[to] += value;\n        allowance[from][msg.sender] -= value;\n\n        emit Transfer(from, to, value);\n        return true;\n    }\n\n    function mint(address to, uint256 value, EnergySource energySource, uint256 kWhProduced) public onlyMarketController returns (bool success) {\n        balanceOf[to] += value;\n        totalSupply += value;\n\n        string memory energySourceString;\n        if (energySource == EnergySource.Solar) energySourceString = \"Solar\";\n        else if (energySource == EnergySource.Wind) energySourceString = \"Wind\";\n        else if (energySource == EnergySource.Hydro) energySourceString = \"Hydro\";\n        else if (energySource == EnergySource.Biomass) energySourceString = \"Biomass\";\n        else if (energySource == EnergySource.Geothermal) energySourceString = \"Geothermal\";\n\n        emit Mint(to, value, energySourceString, kWhProduced);\n        emit Transfer(address(0), to, value);\n        return true;\n    }\n\n    function changeMarketController(address newController) public onlyMarketController {\n        marketController = newController;\n    }\n}\n\n\ncontract RenewableEnergyCertification {\n    struct Producer {\n        address wallet;\n        string name;\n        string location;\n        string[] energyTypes;\n        uint256 totalCapacityKW;\n        bool verified;\n        uint256 registrationTime;\n    }\n\n    struct AuditReport {\n        uint256 id;\n        address producer;\n        address auditor;\n        uint256 timestamp;\n        string reportUri;\n        string comments;\n        bool passed;\n    }\n\n    mapping(address => Producer) public producers;\n    mapping(address => bool) public registeredProducers;\n    mapping(address => bool) public authorizedAuditors;\n    mapping(uint256 => AuditReport) public auditReports;\n\n    address public admin;\n    uint256 public auditReportCount;\n    EnergyMarketplace public marketplace;\n\n    event ProducerRegistered(address indexed producerAddress, string name, uint256 capacityKW);\n    event ProducerVerified(address indexed producerAddress, address indexed auditor);\n    event AuditorAuthorized(address indexed auditor);\n    event AuditorRevoked(address indexed auditor);\n    event AuditReportFiled(uint256 indexed reportId, address indexed producer, address indexed auditor, bool passed);\n\n    constructor(address _marketplaceAddress) {\n        admin = msg.sender;\n        marketplace = EnergyMarketplace(_marketplaceAddress);\n    }\n\n    modifier onlyAdmin() {\n        require(msg.sender == admin, \"Only admin can perform this action\");\n        _;\n    }\n\n    modifier onlyAuditor() {\n        require(authorizedAuditors[msg.sender], \"Only authorized auditors can perform this action\");\n        _;\n    }\n\n    function registerProducer(\n        string memory name,\n        string memory location,\n        string[] memory energyTypes,\n        uint256 capacityKW\n    ) public {\n        require(!registeredProducers[msg.sender], \"Producer already registered\");\n\n        producers[msg.sender] = Producer({\n            wallet: msg.sender,\n            name: name,\n            location: location,\n            energyTypes: energyTypes,\n            totalCapacityKW: capacityKW,\n            verified: false,\n            registrationTime: block.timestamp\n        });\n\n        registeredProducers[msg.sender] = true;\n\n        emit ProducerRegistered(msg.sender, name, capacityKW);\n    }\n\n    function authorizeAuditor(address auditor) public onlyAdmin {\n        authorizedAuditors[auditor] = true;\n        emit AuditorAuthorized(auditor);\n    }\n\n    function revokeAuditor(address auditor) public onlyAdmin {\n        authorizedAuditors[auditor] = false;\n        emit AuditorRevoked(auditor);\n    }\n\n    function verifyProducer(address producerAddress) public onlyAuditor {\n        require(registeredProducers[producerAddress], \"Producer not registered\");\n        producers[producerAddress].verified = true;\n        emit ProducerVerified(producerAddress, msg.sender);\n    }\n\n    function fileAuditReport(\n        address producerAddress,\n        string memory reportUri,\n        string memory comments,\n        bool passed\n    ) public onlyAuditor returns (uint256) {\n        require(registeredProducers[producerAddress], \"Producer not registered\");\n\n        auditReportCount++;\n\n        auditReports[auditReportCount] = AuditReport({\n            id: auditReportCount,\n            producer: producerAddress,\n            auditor: msg.sender,\n            timestamp: block.timestamp,\n            reportUri: reportUri,\n            comments: comments,\n            passed: passed\n        });\n\n        if (passed) {\n            producers[producerAddress].verified = true;\n        }\n\n        emit AuditReportFiled(auditReportCount, producerAddress, msg.sender, passed);\n        return auditReportCount;\n    }\n\n    function submitEnergyCertificate(\n        string memory energySource,\n        uint256 kWhProduced,\n        string memory location\n    ) public returns (uint256) {\n        require(registeredProducers[msg.sender], \"Must be a registered producer\");\n        require(producers[msg.sender].verified, \"Producer must be verified\");\n\n        return marketplace.createCertificate(energySource, kWhProduced, location);\n    }\n\n    function transferOwnership(address newAdmin) public onlyAdmin {\n        admin = newAdmin;\n    }\n}\n",
  "sourcePath": "/Users/kiranrajpurohit/Downloads/bclab/recs-dapp/contracts/EnergyContracts.sol",
  "compiler": {
    "name": "solc",
    "version": "0.8.21+commit.d9974bed.Emscripten.clang"
  },
  "schemaVersion": "3.4.16",
  "updatedAt": "2025-04-24T10:41:03.570Z",
  "networkType": "ethereum",
  "devdoc": {
    "kind": "dev",
    "methods": {},
    "version": 1
  },
  "userdoc": {
    "kind": "user",
    "methods": {},
    "version": 1
  }
}