{
  "contractName": "RenewableEnergyCertification",
  "abi": [
    {
      "inputs": [
        {
          "internalType": "address",
          "name": "_marketplaceAddress",
          "type": "address"
        }
      ],
      "stateMutability": "nonpayable",
      "type": "constructor"
    },
    {
      "anonymous": false,
      "inputs": [
        {
          "indexed": true,
          "internalType": "uint256",
          "name": "reportId",
          "type": "uint256"
        },
        {
          "indexed": true,
          "internalType": "address",
          "name": "producer",
          "type": "address"
        },
        {
          "indexed": true,
          "internalType": "address",
          "name": "auditor",
          "type": "address"
        },
        {
          "indexed": false,
          "internalType": "bool",
          "name": "passed",
          "type": "bool"
        }
      ],
      "name": "AuditReportFiled",
      "type": "event"
    },
    {
      "anonymous": false,
      "inputs": [
        {
          "indexed": true,
          "internalType": "address",
          "name": "auditor",
          "type": "address"
        }
      ],
      "name": "AuditorAuthorized",
      "type": "event"
    },
    {
      "anonymous": false,
      "inputs": [
        {
          "indexed": true,
          "internalType": "address",
          "name": "auditor",
          "type": "address"
        }
      ],
      "name": "AuditorRevoked",
      "type": "event"
    },
    {
      "anonymous": false,
      "inputs": [
        {
          "indexed": true,
          "internalType": "address",
          "name": "producerAddress",
          "type": "address"
        },
        {
          "indexed": false,
          "internalType": "string",
          "name": "name",
          "type": "string"
        },
        {
          "indexed": false,
          "internalType": "uint256",
          "name": "capacityKW",
          "type": "uint256"
        }
      ],
      "name": "ProducerRegistered",
      "type": "event"
    },
    {
      "anonymous": false,
      "inputs": [
        {
          "indexed": true,
          "internalType": "address",
          "name": "producerAddress",
          "type": "address"
        },
        {
          "indexed": true,
          "internalType": "address",
          "name": "auditor",
          "type": "address"
        }
      ],
      "name": "ProducerVerified",
      "type": "event"
    },
    {
      "inputs": [],
      "name": "admin",
      "outputs": [
        {
          "internalType": "address",
          "name": "",
          "type": "address"
        }
      ],
      "stateMutability": "view",
      "type": "function"
    },
    {
      "inputs": [],
      "name": "auditReportCount",
      "outputs": [
        {
          "internalType": "uint256",
          "name": "",
          "type": "uint256"
        }
      ],
      "stateMutability": "view",
      "type": "function"
    },
    {
      "inputs": [
        {
          "internalType": "uint256",
          "name": "",
          "type": "uint256"
        }
      ],
      "name": "auditReports",
      "outputs": [
        {
          "internalType": "uint256",
          "name": "id",
          "type": "uint256"
        },
        {
          "internalType": "address",
          "name": "producer",
          "type": "address"
        },
        {
          "internalType": "address",
          "name": "auditor",
          "type": "address"
        },
        {
          "internalType": "uint256",
          "name": "timestamp",
          "type": "uint256"
        },
        {
          "internalType": "string",
          "name": "reportUri",
          "type": "string"
        },
        {
          "internalType": "string",
          "name": "comments",
          "type": "string"
        },
        {
          "internalType": "bool",
          "name": "passed",
          "type": "bool"
        }
      ],
      "stateMutability": "view",
      "type": "function"
    },
    {
      "inputs": [
        {
          "internalType": "address",
          "name": "",
          "type": "address"
        }
      ],
      "name": "authorizedAuditors",
      "outputs": [
        {
          "internalType": "bool",
          "name": "",
          "type": "bool"
        }
      ],
      "stateMutability": "view",
      "type": "function"
    },
    {
      "inputs": [],
      "name": "marketplace",
      "outputs": [
        {
          "internalType": "contract EnergyMarketplace",
          "name": "",
          "type": "address"
        }
      ],
      "stateMutability": "view",
      "type": "function"
    },
    {
      "inputs": [
        {
          "internalType": "address",
          "name": "",
          "type": "address"
        }
      ],
      "name": "producers",
      "outputs": [
        {
          "internalType": "address",
          "name": "wallet",
          "type": "address"
        },
        {
          "internalType": "string",
          "name": "name",
          "type": "string"
        },
        {
          "internalType": "string",
          "name": "location",
          "type": "string"
        },
        {
          "internalType": "uint256",
          "name": "totalCapacityKW",
          "type": "uint256"
        },
        {
          "internalType": "bool",
          "name": "verified",
          "type": "bool"
        },
        {
          "internalType": "uint256",
          "name": "registrationTime",
          "type": "uint256"
        }
      ],
      "stateMutability": "view",
      "type": "function"
    },
    {
      "inputs": [
        {
          "internalType": "address",
          "name": "",
          "type": "address"
        }
      ],
      "name": "registeredProducers",
      "outputs": [
        {
          "internalType": "bool",
          "name": "",
          "type": "bool"
        }
      ],
      "stateMutability": "view",
      "type": "function"
    },
    {
      "inputs": [
        {
          "internalType": "string",
          "name": "name",
          "type": "string"
        },
        {
          "internalType": "string",
          "name": "location",
          "type": "string"
        },
        {
          "internalType": "string[]",
          "name": "energyTypes",
          "type": "string[]"
        },
        {
          "internalType": "uint256",
          "name": "capacityKW",
          "type": "uint256"
        }
      ],
      "name": "registerProducer",
      "outputs": [],
      "stateMutability": "nonpayable",
      "type": "function"
    },
    {
      "inputs": [
        {
          "internalType": "address",
          "name": "auditor",
          "type": "address"
        }
      ],
      "name": "authorizeAuditor",
      "outputs": [],
      "stateMutability": "nonpayable",
      "type": "function"
    },
    {
      "inputs": [
        {
          "internalType": "address",
          "name": "auditor",
          "type": "address"
        }
      ],
      "name": "revokeAuditor",
      "outputs": [],
      "stateMutability": "nonpayable",
      "type": "function"
    },
    {
      "inputs": [
        {
          "internalType": "address",
          "name": "producerAddress",
          "type": "address"
        }
      ],
      "name": "verifyProducer",
      "outputs": [],
      "stateMutability": "nonpayable",
      "type": "function"
    },
    {
      "inputs": [
        {
          "internalType": "address",
          "name": "producerAddress",
          "type": "address"
        },
        {
          "internalType": "string",
          "name": "reportUri",
          "type": "string"
        },
        {
          "internalType": "string",
          "name": "comments",
          "type": "string"
        },
        {
          "internalType": "bool",
          "name": "passed",
          "type": "bool"
        }
      ],
      "name": "fileAuditReport",
      "outputs": [
        {
          "internalType": "uint256",
          "name": "",
          "type": "uint256"
        }
      ],
      "stateMutability": "nonpayable",
      "type": "function"
    },
    {
      "inputs": [
        {
          "internalType": "string",
          "name": "energySource",
          "type": "string"
        },
        {
          "internalType": "uint256",
          "name": "kWhProduced",
          "type": "uint256"
        },
        {
          "internalType": "string",
          "name": "location",
          "type": "string"
        }
      ],
      "name": "submitEnergyCertificate",
      "outputs": [
        {
          "internalType": "uint256",
          "name": "",
          "type": "uint256"
        }
      ],
      "stateMutability": "nonpayable",
      "type": "function"
    },
    {
      "inputs": [
        {
          "internalType": "address",
          "name": "newAdmin",
          "type": "address"
        }
      ],
      "name": "transferOwnership",
      "outputs": [],
      "stateMutability": "nonpayable",
      "type": "function"
    }
  ],
  "bytecode": "0x60806040523480156200001157600080fd5b50604051620028433803806200284383398181016040528101906200003791906200012a565b33600460006101000a81548173ffffffffffffffffffffffffffffffffffffffff021916908373ffffffffffffffffffffffffffffffffffffffff16021790555080600660006101000a81548173ffffffffffffffffffffffffffffffffffffffff021916908373ffffffffffffffffffffffffffffffffffffffff160217905550506200015c565b600080fd5b600073ffffffffffffffffffffffffffffffffffffffff82169050919050565b6000620000f282620000c5565b9050919050565b6200010481620000e5565b81146200011057600080fd5b50565b6000815190506200012481620000f9565b92915050565b600060208284031215620001435762000142620000c0565b5b6000620001538482850162000113565b91505092915050565b6126d7806200016c6000396000f3fe608060405234801561001057600080fd5b50600436106100ea5760003560e01c8063b402980b1161008c578063e1c3dd1811610066578063e1c3dd181461028c578063f2fde38b146102a8578063f851a440146102c4578063fe1c3a3a146102e2576100ea565b8063b402980b14610224578063c007947b14610240578063c02285011461025c576100ea565b8063368fd05c116100c8578063368fd05c1461018a57806376bc59ec146101ba5780639cb65039146101ea578063abc8c7af14610206576100ea565b80630c7e82fd146100ef5780630daf71ac1461011f57806326324eff14610155575b600080fd5b6101096004803603810190610104919061176d565b610300565b6040516101169190611807565b60405180910390f35b61013960048036038101906101349190611822565b61065e565b60405161014c979695949392919061192a565b60405180910390f35b61016f600480360381019061016a91906119d3565b6107fd565b60405161018196959493929190611a00565b60405180910390f35b6101a4600480360381019061019f9190611a9b565b610976565b6040516101b19190611807565b60405180910390f35b6101d460048036038101906101cf91906119d3565b610ce7565b6040516101e19190611b3a565b60405180910390f35b61020460048036038101906101ff91906119d3565b610d07565b005b61020e610e35565b60405161021b9190611bb4565b60405180910390f35b61023e600480360381019061023991906119d3565b610e5b565b005b61025a600480360381019061025591906119d3565b610f89565b005b610276600480360381019061027191906119d3565b611158565b6040516102839190611b3a565b60405180910390f35b6102a660048036038101906102a19190611cb5565b611178565b005b6102c260048036038101906102bd91906119d3565b611403565b005b6102cc6114d7565b6040516102d99190611d70565b60405180910390f35b6102ea6114fd565b6040516102f79190611807565b60405180910390f35b6000600160003373ffffffffffffffffffffffffffffffffffffffff1673ffffffffffffffffffffffffffffffffffffffff16815260200190815260200160002060009054906101000a900460ff1661038e576040517f08c379a000000000000000000000000000000000000000000000000000000000815260040161038590611dd7565b60405180910390fd5b6000803373ffffffffffffffffffffffffffffffffffffffff1673ffffffffffffffffffffffffffffffffffffffff16815260200190815260200160002060050160009054906101000a900460ff1661041c576040517f08c379a000000000000000000000000000000000000000000000000000000000815260040161041390611e43565b60405180910390fd5b6000805b6000803373ffffffffffffffffffffffffffffffffffffffff1673ffffffffffffffffffffffffffffffffffffffff16815260200190815260200160002060030180549050811015610537578560405160200161047d9190611e9f565b604051602081830303815290604052805190602001206000803373ffffffffffffffffffffffffffffffffffffffff1673ffffffffffffffffffffffffffffffffffffffff16815260200190815260200160002060030182815481106104e6576104e5611eb6565b5b906000526020600020016040516020016105009190611fdd565b60405160208183030381529060405280519060200120036105245760019150610537565b808061052f90612023565b915050610420565b5080610578576040517f08c379a000000000000000000000000000000000000000000000000000000000815260040161056f906120dd565b60405180910390fd5b600660009054906101000a900473ffffffffffffffffffffffffffffffffffffffff1673ffffffffffffffffffffffffffffffffffffffff166384fbce768686866040518463ffffffff1660e01b81526004016105d7939291906120fd565b6020604051808303816000875af192505050801561061357506040513d601f19601f820116820180604052508101906106109190612157565b60015b610652576040517f08c379a0000000000000000000000000000000000000000000000000000000008152600401610649906121f6565b60405180910390fd5b80925050509392505050565b60036020528060005260406000206000915090508060000154908060010160009054906101000a900473ffffffffffffffffffffffffffffffffffffffff16908060020160009054906101000a900473ffffffffffffffffffffffffffffffffffffffff16908060030154908060040180546106d990611f14565b80601f016020809104026020016040519081016040528092919081815260200182805461070590611f14565b80156107525780601f1061072757610100808354040283529160200191610752565b820191906000526020600020905b81548152906001019060200180831161073557829003601f168201915b50505050509080600501805461076790611f14565b80601f016020809104026020016040519081016040528092919081815260200182805461079390611f14565b80156107e05780601f106107b5576101008083540402835291602001916107e0565b820191906000526020600020905b8154815290600101906020018083116107c357829003601f168201915b5050505050908060060160009054906101000a900460ff16905087565b60006020528060005260406000206000915090508060000160009054906101000a900473ffffffffffffffffffffffffffffffffffffffff169080600101805461084690611f14565b80601f016020809104026020016040519081016040528092919081815260200182805461087290611f14565b80156108bf5780601f10610894576101008083540402835291602001916108bf565b820191906000526020600020905b8154815290600101906020018083116108a257829003601f168201915b5050505050908060020180546108d490611f14565b80601f016020809104026020016040519081016040528092919081815260200182805461090090611f14565b801561094d5780601f106109225761010080835404028352916020019161094d565b820191906000526020600020905b81548152906001019060200180831161093057829003601f168201915b5050505050908060040154908060050160009054906101000a900460ff16908060060154905086565b6000600260003373ffffffffffffffffffffffffffffffffffffffff1673ffffffffffffffffffffffffffffffffffffffff16815260200190815260200160002060009054906101000a900460ff16610a04576040517f08c379a00000000000000000000000000000000000000000000000000000000081526004016109fb90612288565b60405180910390fd5b600160008673ffffffffffffffffffffffffffffffffffffffff1673ffffffffffffffffffffffffffffffffffffffff16815260200190815260200160002060009054906101000a900460ff16610a90576040517f08c379a0000000000000000000000000000000000000000000000000000000008152600401610a87906122f4565b60405180910390fd5b60056000815480929190610aa390612023565b91905055506040518060e0016040528060055481526020018673ffffffffffffffffffffffffffffffffffffffff1681526020013373ffffffffffffffffffffffffffffffffffffffff1681526020014281526020018581526020018481526020018315158152506003600060055481526020019081526020016000206000820151816000015560208201518160010160006101000a81548173ffffffffffffffffffffffffffffffffffffffff021916908373ffffffffffffffffffffffffffffffffffffffff16021790555060408201518160020160006101000a81548173ffffffffffffffffffffffffffffffffffffffff021916908373ffffffffffffffffffffffffffffffffffffffff160217905550606082015181600301556080820151816004019081610bd791906124a1565b5060a0820151816005019081610bed91906124a1565b5060c08201518160060160006101000a81548160ff0219169083151502179055509050508115610c725760016000808773ffffffffffffffffffffffffffffffffffffffff1673ffffffffffffffffffffffffffffffffffffffff16815260200190815260200160002060050160006101000a81548160ff0219169083151502179055505b3373ffffffffffffffffffffffffffffffffffffffff168573ffffffffffffffffffffffffffffffffffffffff166005547ffc63a025c64dc65123c35b0d4a16bc51610a09de1acb9a0bed6393a9fec5038d85604051610cd29190611b3a565b60405180910390a46005549050949350505050565b60016020528060005260406000206000915054906101000a900460ff1681565b600460009054906101000a900473ffffffffffffffffffffffffffffffffffffffff1673ffffffffffffffffffffffffffffffffffffffff163373ffffffffffffffffffffffffffffffffffffffff1614610d97576040517f08c379a0000000000000000000000000000000000000000000000000000000008152600401610d8e906125e5565b60405180910390fd5b6001600260008373ffffffffffffffffffffffffffffffffffffffff1673ffffffffffffffffffffffffffffffffffffffff16815260200190815260200160002060006101000a81548160ff0219169083151502179055508073ffffffffffffffffffffffffffffffffffffffff167f7bcf8161dba1805d02b64f93065085912ef8115e91fee268661f2262f1b2f13560405160405180910390a250565b600660009054906101000a900473ffffffffffffffffffffffffffffffffffffffff1681565b600460009054906101000a900473ffffffffffffffffffffffffffffffffffffffff1673ffffffffffffffffffffffffffffffffffffffff163373ffffffffffffffffffffffffffffffffffffffff1614610eeb576040517f08c379a0000000000000000000000000000000000000000000000000000000008152600401610ee2906125e5565b60405180910390fd5b6000600260008373ffffffffffffffffffffffffffffffffffffffff1673ffffffffffffffffffffffffffffffffffffffff16815260200190815260200160002060006101000a81548160ff0219169083151502179055508073ffffffffffffffffffffffffffffffffffffffff167feb2a2eb059f7ce22cdb9ce6710a0df23c2e8d5ca169ee77629faa99f8c788a0160405160405180910390a250565b600260003373ffffffffffffffffffffffffffffffffffffffff1673ffffffffffffffffffffffffffffffffffffffff16815260200190815260200160002060009054906101000a900460ff16611015576040517f08c379a000000000000000000000000000000000000000000000000000000000815260040161100c90612288565b60405180910390fd5b600160008273ffffffffffffffffffffffffffffffffffffffff1673ffffffffffffffffffffffffffffffffffffffff16815260200190815260200160002060009054906101000a900460ff166110a1576040517f08c379a0000000000000000000000000000000000000000000000000000000008152600401611098906122f4565b60405180910390fd5b60016000808373ffffffffffffffffffffffffffffffffffffffff1673ffffffffffffffffffffffffffffffffffffffff16815260200190815260200160002060050160006101000a81548160ff0219169083151502179055503373ffffffffffffffffffffffffffffffffffffffff168173ffffffffffffffffffffffffffffffffffffffff167f29c5fb292d73374add83bddc6d2b9b9161c7212031cc75fc47eb8c31bda10d9c60405160405180910390a350565b60026020528060005260406000206000915054906101000a900460ff1681565b600160003373ffffffffffffffffffffffffffffffffffffffff1673ffffffffffffffffffffffffffffffffffffffff16815260200190815260200160002060009054906101000a900460ff1615611205576040517f08c379a00000000000000000000000000000000000000000000000000000000081526004016111fc90612651565b60405180910390fd5b6040518060e001604052803373ffffffffffffffffffffffffffffffffffffffff168152602001858152602001848152602001838152602001828152602001600015158152602001428152506000803373ffffffffffffffffffffffffffffffffffffffff1673ffffffffffffffffffffffffffffffffffffffff16815260200190815260200160002060008201518160000160006101000a81548173ffffffffffffffffffffffffffffffffffffffff021916908373ffffffffffffffffffffffffffffffffffffffff16021790555060208201518160010190816112eb91906124a1565b50604082015181600201908161130191906124a1565b50606082015181600301908051906020019061131e929190611503565b506080820151816004015560a08201518160050160006101000a81548160ff02191690831515021790555060c0820151816006015590505060018060003373ffffffffffffffffffffffffffffffffffffffff1673ffffffffffffffffffffffffffffffffffffffff16815260200190815260200160002060006101000a81548160ff0219169083151502179055503373ffffffffffffffffffffffffffffffffffffffff167f8e352259c32bcb7226d89eb7747d2bee6c6483666cb0045b6a74841a95c3497e85836040516113f5929190612671565b60405180910390a250505050565b600460009054906101000a900473ffffffffffffffffffffffffffffffffffffffff1673ffffffffffffffffffffffffffffffffffffffff163373ffffffffffffffffffffffffffffffffffffffff1614611493576040517f08c379a000000000000000000000000000000000000000000000000000000000815260040161148a906125e5565b60405180910390fd5b80600460006101000a81548173ffffffffffffffffffffffffffffffffffffffff021916908373ffffffffffffffffffffffffffffffffffffffff16021790555050565b600460009054906101000a900473ffffffffffffffffffffffffffffffffffffffff1681565b60055481565b82805482825590600052602060002090810192821561154b579160200282015b8281111561154a57825182908161153a91906124a1565b5091602001919060010190611523565b5b509050611558919061155c565b5090565b5b8082111561157c57600081816115739190611580565b5060010161155d565b5090565b50805461158c90611f14565b6000825580601f1061159e57506115bd565b601f0160209004906000526020600020908101906115bc91906115c0565b5b50565b5b808211156115d95760008160009055506001016115c1565b5090565b6000604051905090565b600080fd5b600080fd5b600080fd5b600080fd5b6000601f19601f8301169050919050565b7f4e487b7100000000000000000000000000000000000000000000000000000000600052604160045260246000fd5b611644826115fb565b810181811067ffffffffffffffff821117156116635761166261160c565b5b80604052505050565b60006116766115dd565b9050611682828261163b565b919050565b600067ffffffffffffffff8211156116a2576116a161160c565b5b6116ab826115fb565b9050602081019050919050565b82818337600083830152505050565b60006116da6116d584611687565b61166c565b9050828152602081018484840111156116f6576116f56115f6565b5b6117018482856116b8565b509392505050565b600082601f83011261171e5761171d6115f1565b5b813561172e8482602086016116c7565b91505092915050565b6000819050919050565b61174a81611737565b811461175557600080fd5b50565b60008135905061176781611741565b92915050565b600080600060608486031215611786576117856115e7565b5b600084013567ffffffffffffffff8111156117a4576117a36115ec565b5b6117b086828701611709565b93505060206117c186828701611758565b925050604084013567ffffffffffffffff8111156117e2576117e16115ec565b5b6117ee86828701611709565b9150509250925092565b61180181611737565b82525050565b600060208201905061181c60008301846117f8565b92915050565b600060208284031215611838576118376115e7565b5b600061184684828501611758565b91505092915050565b600073ffffffffffffffffffffffffffffffffffffffff82169050919050565b600061187a8261184f565b9050919050565b61188a8161186f565b82525050565b600081519050919050565b600082825260208201905092915050565b60005b838110156118ca5780820151818401526020810190506118af565b60008484015250505050565b60006118e182611890565b6118eb818561189b565b93506118fb8185602086016118ac565b611904816115fb565b840191505092915050565b60008115159050919050565b6119248161190f565b82525050565b600060e08201905061193f600083018a6117f8565b61194c6020830189611881565b6119596040830188611881565b61196660608301876117f8565b818103608083015261197881866118d6565b905081810360a083015261198c81856118d6565b905061199b60c083018461191b565b98975050505050505050565b6119b08161186f565b81146119bb57600080fd5b50565b6000813590506119cd816119a7565b92915050565b6000602082840312156119e9576119e86115e7565b5b60006119f7848285016119be565b91505092915050565b600060c082019050611a156000830189611881565b8181036020830152611a2781886118d6565b90508181036040830152611a3b81876118d6565b9050611a4a60608301866117f8565b611a57608083018561191b565b611a6460a08301846117f8565b979650505050505050565b611a788161190f565b8114611a8357600080fd5b50565b600081359050611a9581611a6f565b92915050565b60008060008060808587031215611ab557611ab46115e7565b5b6000611ac3878288016119be565b945050602085013567ffffffffffffffff811115611ae457611ae36115ec565b5b611af087828801611709565b935050604085013567ffffffffffffffff811115611b1157611b106115ec565b5b611b1d87828801611709565b9250506060611b2e87828801611a86565b91505092959194509250565b6000602082019050611b4f600083018461191b565b92915050565b6000819050919050565b6000611b7a611b75611b708461184f565b611b55565b61184f565b9050919050565b6000611b8c82611b5f565b9050919050565b6000611b9e82611b81565b9050919050565b611bae81611b93565b82525050565b6000602082019050611bc96000830184611ba5565b92915050565b600067ffffffffffffffff821115611bea57611be961160c565b5b602082029050602081019050919050565b600080fd5b6000611c13611c0e84611bcf565b61166c565b90508083825260208201905060208402830185811115611c3657611c35611bfb565b5b835b81811015611c7d57803567ffffffffffffffff811115611c5b57611c5a6115f1565b5b808601611c688982611709565b85526020850194505050602081019050611c38565b5050509392505050565b600082601f830112611c9c57611c9b6115f1565b5b8135611cac848260208601611c00565b91505092915050565b60008060008060808587031215611ccf57611cce6115e7565b5b600085013567ffffffffffffffff811115611ced57611cec6115ec565b5b611cf987828801611709565b945050602085013567ffffffffffffffff811115611d1a57611d196115ec565b5b611d2687828801611709565b935050604085013567ffffffffffffffff811115611d4757611d466115ec565b5b611d5387828801611c87565b9250506060611d6487828801611758565b91505092959194509250565b6000602082019050611d856000830184611881565b92915050565b7f4d757374206265206120726567697374657265642070726f6475636572000000600082015250565b6000611dc1601d8361189b565b9150611dcc82611d8b565b602082019050919050565b60006020820190508181036000830152611df081611db4565b9050919050565b7f50726f6475636572206d75737420626520766572696669656400000000000000600082015250565b6000611e2d60198361189b565b9150611e3882611df7565b602082019050919050565b60006020820190508181036000830152611e5c81611e20565b9050919050565b600081905092915050565b6000611e7982611890565b611e838185611e63565b9350611e938185602086016118ac565b80840191505092915050565b6000611eab8284611e6e565b915081905092915050565b7f4e487b7100000000000000000000000000000000000000000000000000000000600052603260045260246000fd5b7f4e487b7100000000000000000000000000000000000000000000000000000000600052602260045260246000fd5b60006002820490506001821680611f2c57607f821691505b602082108103611f3f57611f3e611ee5565b5b50919050565b60008190508160005260206000209050919050565b60008154611f6781611f14565b611f718186611e63565b94506001821660008114611f8c5760018114611fa157611fd4565b60ff1983168652811515820286019350611fd4565b611faa85611f45565b60005b83811015611fcc57815481890152600182019150602081019050611fad565b838801955050505b50505092915050565b6000611fe98284611f5a565b915081905092915050565b7f4e487b7100000000000000000000000000000000000000000000000000000000600052601160045260246000fd5b600061202e82611737565b91507fffffffffffffffffffffffffffffffffffffffffffffffffffffffffffffffff82036120605761205f611ff4565b5b600182019050919050565b7f456e6572677920736f75726365206e6f74207265676973746572656420666f7260008201527f20746869732070726f6475636572000000000000000000000000000000000000602082015250565b60006120c7602e8361189b565b91506120d28261206b565b604082019050919050565b600060208201905081810360008301526120f6816120ba565b9050919050565b6000606082019050818103600083015261211781866118d6565b905061212660208301856117f8565b818103604083015261213881846118d6565b9050949350505050565b60008151905061215181611741565b92915050565b60006020828403121561216d5761216c6115e7565b5b600061217b84828501612142565b91505092915050565b7f4661696c656420746f2063726561746520636572746966696361746520696e2060008201527f6d61726b6574706c616365000000000000000000000000000000000000000000602082015250565b60006121e0602b8361189b565b91506121eb82612184565b604082019050919050565b6000602082019050818103600083015261220f816121d3565b9050919050565b7f4f6e6c7920617574686f72697a65642061756469746f72732063616e2070657260008201527f666f726d207468697320616374696f6e00000000000000000000000000000000602082015250565b600061227260308361189b565b915061227d82612216565b604082019050919050565b600060208201905081810360008301526122a181612265565b9050919050565b7f50726f6475636572206e6f742072656769737465726564000000000000000000600082015250565b60006122de60178361189b565b91506122e9826122a8565b602082019050919050565b6000602082019050818103600083015261230d816122d1565b9050919050565b60006020601f8301049050919050565b600082821b905092915050565b6000600883026123617fffffffffffffffffffffffffffffffffffffffffffffffffffffffffffffffff82612324565b61236b8683612324565b95508019841693508086168417925050509392505050565b600061239e61239961239484611737565b611b55565b611737565b9050919050565b6000819050919050565b6123b883612383565b6123cc6123c4826123a5565b848454612331565b825550505050565b600090565b6123e16123d4565b6123ec8184846123af565b505050565b5b81811015612410576124056000826123d9565b6001810190506123f2565b5050565b601f8211156124555761242681611f45565b61242f84612314565b8101602085101561243e578190505b61245261244a85612314565b8301826123f1565b50505b505050565b600082821c905092915050565b60006124786000198460080261245a565b1980831691505092915050565b60006124918383612467565b9150826002028217905092915050565b6124aa82611890565b67ffffffffffffffff8111156124c3576124c261160c565b5b6124cd8254611f14565b6124d8828285612414565b600060209050601f83116001811461250b57600084156124f9578287015190505b6125038582612485565b86555061256b565b601f19841661251986611f45565b60005b828110156125415784890151825560018201915060208501945060208101905061251c565b8683101561255e578489015161255a601f891682612467565b8355505b6001600288020188555050505b505050505050565b7f4f6e6c792061646d696e2063616e20706572666f726d2074686973206163746960008201527f6f6e000000000000000000000000000000000000000000000000000000000000602082015250565b60006125cf60228361189b565b91506125da82612573565b604082019050919050565b600060208201905081810360008301526125fe816125c2565b9050919050565b7f50726f647563657220616c726561647920726567697374657265640000000000600082015250565b600061263b601b8361189b565b915061264682612605565b602082019050919050565b6000602082019050818103600083015261266a8161262e565b9050919050565b6000604082019050818103600083015261268b81856118d6565b905061269a60208301846117f8565b939250505056fea2646970667358221220420dd4ff8cdb07725be203e8cc11f5efff8f6731e4ba29cfdd837f0d0bc6696d64736f6c63430008110033",
  "immutableReferences": {},
  "source": "// SPDX-License-Identifier: MIT\npragma solidity ^0.8.17;\n\nimport \"./EnergyMarketplace.sol\";\n\ncontract RenewableEnergyCertification {\n    struct Producer {\n        address wallet;\n        string name;\n        string location;\n        string[] energyTypes;\n        uint256 totalCapacityKW;\n        bool verified;\n        uint256 registrationTime;\n    }\n\n    struct AuditReport {\n        uint256 id;\n        address producer;\n        address auditor;\n        uint256 timestamp;\n        string reportUri;\n        string comments;\n        bool passed;\n    }\n\n    mapping(address => Producer) public producers;\n    mapping(address => bool) public registeredProducers;\n    mapping(address => bool) public authorizedAuditors;\n    mapping(uint256 => AuditReport) public auditReports;\n\n    address public admin;\n    uint256 public auditReportCount;\n    EnergyMarketplace public marketplace;\n\n    event ProducerRegistered(address indexed producerAddress, string name, uint256 capacityKW);\n    event ProducerVerified(address indexed producerAddress, address indexed auditor);\n    event AuditorAuthorized(address indexed auditor);\n    event AuditorRevoked(address indexed auditor);\n    event AuditReportFiled(uint256 indexed reportId, address indexed producer, address indexed auditor, bool passed);\n\n    constructor(address _marketplaceAddress) {\n        admin = msg.sender;\n        marketplace = EnergyMarketplace(_marketplaceAddress);\n    }\n\n    modifier onlyAdmin() {\n        require(msg.sender == admin, \"Only admin can perform this action\");\n        _;\n    }\n\n    modifier onlyAuditor() {\n        require(authorizedAuditors[msg.sender], \"Only authorized auditors can perform this action\");\n        _;\n    }\n\n    function registerProducer(\n        string memory name,\n        string memory location,\n        string[] memory energyTypes,\n        uint256 capacityKW\n    ) public {\n        require(!registeredProducers[msg.sender], \"Producer already registered\");\n\n        producers[msg.sender] = Producer({\n            wallet: msg.sender,\n            name: name,\n            location: location,\n            energyTypes: energyTypes,\n            totalCapacityKW: capacityKW,\n            verified: false,\n            registrationTime: block.timestamp\n        });\n\n        registeredProducers[msg.sender] = true;\n\n        emit ProducerRegistered(msg.sender, name, capacityKW);\n    }\n\n    function authorizeAuditor(address auditor) public onlyAdmin {\n        authorizedAuditors[auditor] = true;\n        emit AuditorAuthorized(auditor);\n    }\n\n    function revokeAuditor(address auditor) public onlyAdmin {\n        authorizedAuditors[auditor] = false;\n        emit AuditorRevoked(auditor);\n    }\n\n    function verifyProducer(address producerAddress) public onlyAuditor {\n        require(registeredProducers[producerAddress], \"Producer not registered\");\n        producers[producerAddress].verified = true;\n        emit ProducerVerified(producerAddress, msg.sender);\n    }\n\n    function fileAuditReport(\n        address producerAddress,\n        string memory reportUri,\n        string memory comments,\n        bool passed\n    ) public onlyAuditor returns (uint256) {\n        require(registeredProducers[producerAddress], \"Producer not registered\");\n\n        auditReportCount++;\n\n        auditReports[auditReportCount] = AuditReport({\n            id: auditReportCount,\n            producer: producerAddress,\n            auditor: msg.sender,\n            timestamp: block.timestamp,\n            reportUri: reportUri,\n            comments: comments,\n            passed: passed\n        });\n\n        if (passed) {\n            producers[producerAddress].verified = true;\n        }\n\n        emit AuditReportFiled(auditReportCount, producerAddress, msg.sender, passed);\n        return auditReportCount;\n    }\n\n    function submitEnergyCertificate(\n        string memory energySource,\n        uint256 kWhProduced,\n        string memory location\n    ) public returns (uint256) {\n        require(registeredProducers[msg.sender], \"Must be a registered producer\");\n        require(producers[msg.sender].verified, \"Producer must be verified\");\n\n        // Check if the energy source is valid\n        bool validEnergySource = false;\n        for (uint i = 0; i < producers[msg.sender].energyTypes.length; i++) {\n            if (keccak256(abi.encodePacked(producers[msg.sender].energyTypes[i])) == \n                keccak256(abi.encodePacked(energySource))) {\n                validEnergySource = true;\n                break;\n            }\n        }\n        require(validEnergySource, \"Energy source not registered for this producer\");\n\n        // Call the marketplace contract to create a certificate\n        try marketplace.createCertificate(energySource, kWhProduced, location) returns (uint256 certificateId) {\n            return certificateId;\n        } catch {\n            revert(\"Failed to create certificate in marketplace\");\n        }\n    }\n\n    function transferOwnership(address newAdmin) public onlyAdmin {\n        admin = newAdmin;\n    }\n}\n",
  "sourcePath": "/Users/sluzhba/Downloads/RECS-DApp/contracts/RenewableEnergyCertification.sol",
  "compiler": {
    "name": "solc",
    "version": "0.8.17+commit.8df45f5f.Emscripten.clang"
  },
  "schemaVersion": "3.4.16",
  "updatedAt": "2025-04-28T05:59:45.498Z",
  "devdoc": {
    "kind": "dev",
    "methods": {},
    "version": 1
  },
  "userdoc": {
    "kind": "user",
    "methods": {},
    "version": 1
  }
}