{
  "contractName": "Donation",
  "abi": [
    {
      "inputs": [],
      "stateMutability": "nonpayable",
      "type": "constructor"
    },
    {
      "anonymous": false,
      "inputs": [
        {
          "indexed": true,
          "internalType": "address",
          "name": "donor",
          "type": "address"
        },
        {
          "indexed": false,
          "internalType": "uint256",
          "name": "amount",
          "type": "uint256"
        }
      ],
      "name": "Donated",
      "type": "event"
    },
    {
      "anonymous": false,
      "inputs": [
        {
          "indexed": true,
          "internalType": "address",
          "name": "by",
          "type": "address"
        },
        {
          "indexed": false,
          "internalType": "uint256",
          "name": "amount",
          "type": "uint256"
        }
      ],
      "name": "Withdrawn",
      "type": "event"
    },
    {
      "inputs": [],
      "name": "owner",
      "outputs": [
        {
          "internalType": "address",
          "name": "",
          "type": "address"
        }
      ],
      "stateMutability": "view",
      "type": "function",
      "constant": true
    },
    {
      "inputs": [],
      "name": "totalDonated",
      "outputs": [
        {
          "internalType": "uint256",
          "name": "",
          "type": "uint256"
        }
      ],
      "stateMutability": "view",
      "type": "function",
      "constant": true
    },
    {
      "inputs": [],
      "name": "donate",
      "outputs": [],
      "stateMutability": "payable",
      "type": "function",
      "payable": true
    },
    {
      "inputs": [],
      "name": "withdraw",
      "outputs": [],
      "stateMutability": "nonpayable",
      "type": "function"
    },
    {
      "inputs": [],
      "name": "getBalance",
      "outputs": [
        {
          "internalType": "uint256",
          "name": "",
          "type": "uint256"
        }
      ],
      "stateMutability": "view",
      "type": "function",
      "constant": true
    }
  ],
  "bytecode": "0x608060405234801561000f575f80fd5b50335f806101000a81548173ffffffffffffffffffffffffffffffffffffffff021916908373ffffffffffffffffffffffffffffffffffffffff1602179055506105b28061005c5f395ff3fe608060405260043610610048575f3560e01c8062b370441461004c57806312065fe0146100765780633ccfd60b146100a05780638da5cb5b146100b6578063ed88c68e146100e0575b5f80fd5b348015610057575f80fd5b506100606100ea565b60405161006d9190610363565b60405180910390f35b348015610081575f80fd5b5061008a6100f0565b6040516100979190610363565b60405180910390f35b3480156100ab575f80fd5b506100b46100f7565b005b3480156100c1575f80fd5b506100ca61027e565b6040516100d791906103bb565b60405180910390f35b6100e86102a1565b005b60015481565b5f47905090565b5f8054906101000a900473ffffffffffffffffffffffffffffffffffffffff1673ffffffffffffffffffffffffffffffffffffffff163373ffffffffffffffffffffffffffffffffffffffff1614610184576040517f08c379a000000000000000000000000000000000000000000000000000000000815260040161017b9061042e565b60405180910390fd5b5f4790505f81116101ca576040517f08c379a00000000000000000000000000000000000000000000000000000000081526004016101c190610496565b60405180910390fd5b5f8054906101000a900473ffffffffffffffffffffffffffffffffffffffff1673ffffffffffffffffffffffffffffffffffffffff166108fc8290811502906040515f60405180830381858888f1935050505015801561022c573d5f803e3d5ffd5b503373ffffffffffffffffffffffffffffffffffffffff167f7084f5476618d8e60b11ef0d7d3f06914655adb8793e28ff7f018d4c76d505d5826040516102739190610363565b60405180910390a250565b5f8054906101000a900473ffffffffffffffffffffffffffffffffffffffff1681565b5f34116102e3576040517f08c379a00000000000000000000000000000000000000000000000000000000081526004016102da906104fe565b60405180910390fd5b3460015f8282546102f49190610549565b925050819055503373ffffffffffffffffffffffffffffffffffffffff167f2a01595cddf097c90216094025db714da3f4e5bd8877b56ba86a24ecead8e543346040516103419190610363565b60405180910390a2565b5f819050919050565b61035d8161034b565b82525050565b5f6020820190506103765f830184610354565b92915050565b5f73ffffffffffffffffffffffffffffffffffffffff82169050919050565b5f6103a58261037c565b9050919050565b6103b58161039b565b82525050565b5f6020820190506103ce5f8301846103ac565b92915050565b5f82825260208201905092915050565b7f4e6f7420746865206f776e6572000000000000000000000000000000000000005f82015250565b5f610418600d836103d4565b9150610423826103e4565b602082019050919050565b5f6020820190508181035f8301526104458161040c565b9050919050565b7f4e6f2062616c616e6365000000000000000000000000000000000000000000005f82015250565b5f610480600a836103d4565b915061048b8261044c565b602082019050919050565b5f6020820190508181035f8301526104ad81610474565b9050919050565b7f4d7573742073656e6420455448000000000000000000000000000000000000005f82015250565b5f6104e8600d836103d4565b91506104f3826104b4565b602082019050919050565b5f6020820190508181035f830152610515816104dc565b9050919050565b7f4e487b71000000000000000000000000000000000000000000000000000000005f52601160045260245ffd5b5f6105538261034b565b915061055e8361034b565b92508282019050808211156105765761057561051c565b5b9291505056fea264697066735822122092fca2d6cd9dfbe7301f0292b5a225dd4b0dcc9c338c40d78cc570be7df1d3f864736f6c63430008150033",
  "immutableReferences": {},
  "source": "// SPDX-License-Identifier: MIT\npragma solidity ^0.8.19;\n\ncontract Donation {\n    address public owner;\n    uint256 public totalDonated;\n\n    constructor() {\n        owner = msg.sender;\n    }\n\n    event Donated(address indexed donor, uint256 amount);\n    event Withdrawn(address indexed by, uint256 amount);\n\n    function donate() external payable {\n        require(msg.value > 0, \"Must send ETH\");\n        totalDonated += msg.value;\n        emit Donated(msg.sender, msg.value);\n    }\n\n    function withdraw() external {\n        require(msg.sender == owner, \"Not the owner\");\n        uint256 amount = address(this).balance;\n        require(amount > 0, \"No balance\");\n        payable(owner).transfer(amount);\n        emit Withdrawn(msg.sender, amount);\n    }\n\n    function getBalance() external view returns (uint256) {\n        return address(this).balance;\n    }\n}\n",
  "sourcePath": "/Users/kiranrajpurohit/Downloads/bclab/recs-dapp/contracts/Donation.sol",
  "compiler": {
    "name": "solc",
    "version": "0.8.21+commit.d9974bed.Emscripten.clang"
  },
  "schemaVersion": "3.4.16",
  "updatedAt": "2025-04-23T04:25:27.725Z",
  "networkType": "ethereum",
  "devdoc": {
    "kind": "dev",
    "methods": {},
    "version": 1
  },
  "userdoc": {
    "kind": "user",
    "methods": {},
    "version": 1
  }
}