{
  "contractName": "REC",
  "abi": [
    {
      "anonymous": false,
      "inputs": [
        {
          "indexed": false,
          "internalType": "uint256",
          "name": "id",
          "type": "uint256"
        },
        {
          "indexed": false,
          "internalType": "uint256",
          "name": "energyAmount",
          "type": "uint256"
        },
        {
          "indexed": false,
          "internalType": "string",
          "name": "energySource",
          "type": "string"
        },
        {
          "indexed": false,
          "internalType": "address",
          "name": "owner",
          "type": "address"
        }
      ],
      "name": "CertificateCreated",
      "type": "event"
    },
    {
      "anonymous": false,
      "inputs": [
        {
          "indexed": false,
          "internalType": "uint256",
          "name": "id",
          "type": "uint256"
        },
        {
          "indexed": false,
          "internalType": "uint256",
          "name": "price",
          "type": "uint256"
        }
      ],
      "name": "CertificateForSale",
      "type": "event"
    },
    {
      "anonymous": false,
      "inputs": [
        {
          "indexed": false,
          "internalType": "uint256",
          "name": "id",
          "type": "uint256"
        },
        {
          "indexed": false,
          "internalType": "address",
          "name": "from",
          "type": "address"
        },
        {
          "indexed": false,
          "internalType": "address",
          "name": "to",
          "type": "address"
        },
        {
          "indexed": false,
          "internalType": "uint256",
          "name": "price",
          "type": "uint256"
        }
      ],
      "name": "CertificateSold",
      "type": "event"
    },
    {
      "inputs": [
        {
          "internalType": "uint256",
          "name": "",
          "type": "uint256"
        }
      ],
      "name": "certificates",
      "outputs": [
        {
          "internalType": "uint256",
          "name": "id",
          "type": "uint256"
        },
        {
          "internalType": "uint256",
          "name": "energyAmount",
          "type": "uint256"
        },
        {
          "internalType": "string",
          "name": "energySource",
          "type": "string"
        },
        {
          "internalType": "address",
          "name": "owner",
          "type": "address"
        },
        {
          "internalType": "bool",
          "name": "isForSale",
          "type": "bool"
        },
        {
          "internalType": "uint256",
          "name": "price",
          "type": "uint256"
        }
      ],
      "stateMutability": "view",
      "type": "function"
    },
    {
      "inputs": [
        {
          "internalType": "uint256",
          "name": "energyAmount",
          "type": "uint256"
        },
        {
          "internalType": "string",
          "name": "energySource",
          "type": "string"
        }
      ],
      "name": "createCertificate",
      "outputs": [],
      "stateMutability": "nonpayable",
      "type": "function"
    },
    {
      "inputs": [
        {
          "internalType": "uint256",
          "name": "certificateId",
          "type": "uint256"
        },
        {
          "internalType": "uint256",
          "name": "price",
          "type": "uint256"
        }
      ],
      "name": "listForSale",
      "outputs": [],
      "stateMutability": "nonpayable",
      "type": "function"
    },
    {
      "inputs": [
        {
          "internalType": "uint256",
          "name": "certificateId",
          "type": "uint256"
        }
      ],
      "name": "buyCertificate",
      "outputs": [],
      "stateMutability": "payable",
      "type": "function"
    },
    {
      "inputs": [],
      "name": "getMyCertificates",
      "outputs": [
        {
          "internalType": "uint256[]",
          "name": "",
          "type": "uint256[]"
        }
      ],
      "stateMutability": "view",
      "type": "function"
    },
    {
      "inputs": [],
      "name": "getAvailableCertificates",
      "outputs": [
        {
          "internalType": "uint256[]",
          "name": "",
          "type": "uint256[]"
        }
      ],
      "stateMutability": "view",
      "type": "function"
    },
    {
      "inputs": [
        {
          "internalType": "uint256",
          "name": "certificateId",
          "type": "uint256"
        }
      ],
      "name": "getCertificateDetails",
      "outputs": [
        {
          "internalType": "uint256",
          "name": "id",
          "type": "uint256"
        },
        {
          "internalType": "uint256",
          "name": "energyAmount",
          "type": "uint256"
        },
        {
          "internalType": "string",
          "name": "energySource",
          "type": "string"
        },
        {
          "internalType": "address",
          "name": "owner",
          "type": "address"
        },
        {
          "internalType": "bool",
          "name": "isForSale",
          "type": "bool"
        },
        {
          "internalType": "uint256",
          "name": "price",
          "type": "uint256"
        }
      ],
      "stateMutability": "view",
      "type": "function"
    }
  ],
  "bytecode": "0x60806040525f600155348015610013575f80fd5b50611733806100215f395ff3fe60806040526004361061006f575f3560e01c806390c985a11161004d57806390c985a114610108578063a901fe5e14610124578063ae4107bf14610165578063e80d7fec1461018d5761006f565b8063663b3e221461007357806368d4034b146100b45780637c573169146100de575b5f80fd5b34801561007e575f80fd5b5061009960048036038101906100949190610c93565b6101b5565b6040516100ab96959493929190610db0565b60405180910390f35b3480156100bf575f80fd5b506100c861029e565b6040516100d59190610ecd565b60405180910390f35b3480156100e9575f80fd5b506100f26103c7565b6040516100ff9190610ecd565b60405180910390f35b610122600480360381019061011d9190610c93565b61056e565b005b34801561012f575f80fd5b5061014a60048036038101906101459190610c93565b6107fa565b60405161015c96959493929190610db0565b60405180910390f35b348015610170575f80fd5b5061018b60048036038101906101869190611019565b6109b4565b005b348015610198575f80fd5b506101b360048036038101906101ae9190611073565b610b02565b005b5f602052805f5260405f205f91509050805f0154908060010154908060020180546101df906110de565b80601f016020809104026020016040519081016040528092919081815260200182805461020b906110de565b80156102565780601f1061022d57610100808354040283529160200191610256565b820191905f5260205f20905b81548152906001019060200180831161023957829003601f168201915b505050505090806003015f9054906101000a900473ffffffffffffffffffffffffffffffffffffffff16908060030160149054906101000a900460ff16908060040154905086565b60605f80600190505b60015481116102f8575f808281526020019081526020015f2060030160149054906101000a900460ff16156102e55781806102e19061113b565b9250505b80806102f09061113b565b9150506102a7565b505f8167ffffffffffffffff81111561031457610313610ef5565b5b6040519080825280602002602001820160405280156103425781602001602082028036833780820191505090505b5090505f80600190505b60015481116103bd575f808281526020019081526020015f2060030160149054906101000a900460ff16156103aa578083838151811061038f5761038e611182565b5b60200260200101818152505081806103a69061113b565b9250505b80806103b59061113b565b91505061034c565b5081935050505090565b60605f80600190505b6001548111610460573373ffffffffffffffffffffffffffffffffffffffff165f808381526020019081526020015f206003015f9054906101000a900473ffffffffffffffffffffffffffffffffffffffff1673ffffffffffffffffffffffffffffffffffffffff160361044d5781806104499061113b565b9250505b80806104589061113b565b9150506103d0565b505f8167ffffffffffffffff81111561047c5761047b610ef5565b5b6040519080825280602002602001820160405280156104aa5781602001602082028036833780820191505090505b5090505f80600190505b6001548111610564573373ffffffffffffffffffffffffffffffffffffffff165f808381526020019081526020015f206003015f9054906101000a900473ffffffffffffffffffffffffffffffffffffffff1673ffffffffffffffffffffffffffffffffffffffff1603610551578083838151811061053657610535611182565b5b602002602001018181525050818061054d9061113b565b9250505b808061055c9061113b565b9150506104b4565b5081935050505090565b5f805f8381526020019081526020015f2090505f815f0154116105c6576040517f08c379a00000000000000000000000000000000000000000000000000000000081526004016105bd906111f9565b60405180910390fd5b8060030160149054906101000a900460ff16610617576040517f08c379a000000000000000000000000000000000000000000000000000000000815260040161060e90611261565b60405180910390fd5b806004015434101561065e576040517f08c379a0000000000000000000000000000000000000000000000000000000008152600401610655906112c9565b60405180910390fd5b3373ffffffffffffffffffffffffffffffffffffffff16816003015f9054906101000a900473ffffffffffffffffffffffffffffffffffffffff1673ffffffffffffffffffffffffffffffffffffffff16036106ef576040517f08c379a00000000000000000000000000000000000000000000000000000000081526004016106e690611331565b60405180910390fd5b5f816003015f9054906101000a900473ffffffffffffffffffffffffffffffffffffffff16905033826003015f6101000a81548173ffffffffffffffffffffffffffffffffffffffff021916908373ffffffffffffffffffffffffffffffffffffffff1602179055505f8260030160146101000a81548160ff0219169083151502179055508073ffffffffffffffffffffffffffffffffffffffff166108fc3490811502906040515f60405180830381858888f193505050501580156107b7573d5f803e3d5ffd5b507f1cecac20f458a8264967d34cd6929f23a50234c436cd70dbe55283e1663b21f3838233346040516107ed949392919061134f565b60405180910390a1505050565b5f8060605f805f805f808981526020019081526020015f206040518060c00160405290815f820154815260200160018201548152602001600282018054610840906110de565b80601f016020809104026020016040519081016040528092919081815260200182805461086c906110de565b80156108b75780601f1061088e576101008083540402835291602001916108b7565b820191905f5260205f20905b81548152906001019060200180831161089a57829003601f168201915b50505050508152602001600382015f9054906101000a900473ffffffffffffffffffffffffffffffffffffffff1673ffffffffffffffffffffffffffffffffffffffff1673ffffffffffffffffffffffffffffffffffffffff1681526020016003820160149054906101000a900460ff1615151515815260200160048201548152505090505f815f015111610981576040517f08c379a0000000000000000000000000000000000000000000000000000000008152600401610978906111f9565b60405180910390fd5b805f015181602001518260400151836060015184608001518560a001519650965096509650965096505091939550919395565b60015f8154809291906109c69061113b565b91905055506040518060c0016040528060015481526020018381526020018281526020013373ffffffffffffffffffffffffffffffffffffffff1681526020015f151581526020015f8152505f8060015481526020019081526020015f205f820151815f0155602082015181600101556040820151816002019081610a4b919061152f565b506060820151816003015f6101000a81548173ffffffffffffffffffffffffffffffffffffffff021916908373ffffffffffffffffffffffffffffffffffffffff16021790555060808201518160030160146101000a81548160ff02191690831515021790555060a082015181600401559050507f8511f1a06b203fa108d58d61bed6564ff7b0d475425adda6ad551dcd177ff546600154838333604051610af694939291906115fe565b60405180910390a15050565b5f805f8481526020019081526020015f2090503373ffffffffffffffffffffffffffffffffffffffff16816003015f9054906101000a900473ffffffffffffffffffffffffffffffffffffffff1673ffffffffffffffffffffffffffffffffffffffff1614610ba6576040517f08c379a0000000000000000000000000000000000000000000000000000000008152600401610b9d906116b8565b60405180910390fd5b5f815f015411610beb576040517f08c379a0000000000000000000000000000000000000000000000000000000008152600401610be2906111f9565b60405180910390fd5b60018160030160146101000a81548160ff0219169083151502179055508181600401819055507fbfae182a12c079f458b4031571a74cf18b0a20a69714469da7d50241864a18a18383604051610c429291906116d6565b60405180910390a1505050565b5f604051905090565b5f80fd5b5f80fd5b5f819050919050565b610c7281610c60565b8114610c7c575f80fd5b50565b5f81359050610c8d81610c69565b92915050565b5f60208284031215610ca857610ca7610c58565b5b5f610cb584828501610c7f565b91505092915050565b610cc781610c60565b82525050565b5f81519050919050565b5f82825260208201905092915050565b5f5b83811015610d04578082015181840152602081019050610ce9565b5f8484015250505050565b5f601f19601f8301169050919050565b5f610d2982610ccd565b610d338185610cd7565b9350610d43818560208601610ce7565b610d4c81610d0f565b840191505092915050565b5f73ffffffffffffffffffffffffffffffffffffffff82169050919050565b5f610d8082610d57565b9050919050565b610d9081610d76565b82525050565b5f8115159050919050565b610daa81610d96565b82525050565b5f60c082019050610dc35f830189610cbe565b610dd06020830188610cbe565b8181036040830152610de28187610d1f565b9050610df16060830186610d87565b610dfe6080830185610da1565b610e0b60a0830184610cbe565b979650505050505050565b5f81519050919050565b5f82825260208201905092915050565b5f819050602082019050919050565b610e4881610c60565b82525050565b5f610e598383610e3f565b60208301905092915050565b5f602082019050919050565b5f610e7b82610e16565b610e858185610e20565b9350610e9083610e30565b805f5b83811015610ec0578151610ea78882610e4e565b9750610eb283610e65565b925050600181019050610e93565b5085935050505092915050565b5f6020820190508181035f830152610ee58184610e71565b905092915050565b5f80fd5b5f80fd5b7f4e487b71000000000000000000000000000000000000000000000000000000005f52604160045260245ffd5b610f2b82610d0f565b810181811067ffffffffffffffff82111715610f4a57610f49610ef5565b5b80604052505050565b5f610f5c610c4f565b9050610f688282610f22565b919050565b5f67ffffffffffffffff821115610f8757610f86610ef5565b5b610f9082610d0f565b9050602081019050919050565b828183375f83830152505050565b5f610fbd610fb884610f6d565b610f53565b905082815260208101848484011115610fd957610fd8610ef1565b5b610fe4848285610f9d565b509392505050565b5f82601f83011261100057610fff610eed565b5b8135611010848260208601610fab565b91505092915050565b5f806040838503121561102f5761102e610c58565b5b5f61103c85828601610c7f565b925050602083013567ffffffffffffffff81111561105d5761105c610c5c565b5b61106985828601610fec565b9150509250929050565b5f806040838503121561108957611088610c58565b5b5f61109685828601610c7f565b92505060206110a785828601610c7f565b9150509250929050565b7f4e487b71000000000000000000000000000000000000000000000000000000005f52602260045260245ffd5b5f60028204905060018216806110f557607f821691505b602082108103611108576111076110b1565b5b50919050565b7f4e487b71000000000000000000000000000000000000000000000000000000005f52601160045260245ffd5b5f61114582610c60565b91507fffffffffffffffffffffffffffffffffffffffffffffffffffffffffffffffff82036111775761117661110e565b5b600182019050919050565b7f4e487b71000000000000000000000000000000000000000000000000000000005f52603260045260245ffd5b7f436572746966696361746520646f6573206e6f742065786973740000000000005f82015250565b5f6111e3601a83610cd7565b91506111ee826111af565b602082019050919050565b5f6020820190508181035f830152611210816111d7565b9050919050565b7f4365727469666963617465206973206e6f7420666f722073616c6500000000005f82015250565b5f61124b601b83610cd7565b915061125682611217565b602082019050919050565b5f6020820190508181035f8301526112788161123f565b9050919050565b7f496e73756666696369656e742066756e64732073656e740000000000000000005f82015250565b5f6112b3601783610cd7565b91506112be8261127f565b602082019050919050565b5f6020820190508181035f8301526112e0816112a7565b9050919050565b7f596f7520616c7265616479206f776e20746869732063657274696669636174655f82015250565b5f61131b602083610cd7565b9150611326826112e7565b602082019050919050565b5f6020820190508181035f8301526113488161130f565b9050919050565b5f6080820190506113625f830187610cbe565b61136f6020830186610d87565b61137c6040830185610d87565b6113896060830184610cbe565b95945050505050565b5f819050815f5260205f209050919050565b5f6020601f8301049050919050565b5f82821b905092915050565b5f600883026113ee7fffffffffffffffffffffffffffffffffffffffffffffffffffffffffffffffff826113b3565b6113f886836113b3565b95508019841693508086168417925050509392505050565b5f819050919050565b5f61143361142e61142984610c60565b611410565b610c60565b9050919050565b5f819050919050565b61144c83611419565b6114606114588261143a565b8484546113bf565b825550505050565b5f90565b611474611468565b61147f818484611443565b505050565b5b818110156114a2576114975f8261146c565b600181019050611485565b5050565b601f8211156114e7576114b881611392565b6114c1846113a4565b810160208510156114d0578190505b6114e46114dc856113a4565b830182611484565b50505b505050565b5f82821c905092915050565b5f6115075f19846008026114ec565b1980831691505092915050565b5f61151f83836114f8565b9150826002028217905092915050565b61153882610ccd565b67ffffffffffffffff81111561155157611550610ef5565b5b61155b82546110de565b6115668282856114a6565b5f60209050601f831160018114611597575f8415611585578287015190505b61158f8582611514565b8655506115f6565b601f1984166115a586611392565b5f5b828110156115cc578489015182556001820191506020850194506020810190506115a7565b868310156115e957848901516115e5601f8916826114f8565b8355505b6001600288020188555050505b505050505050565b5f6080820190506116115f830187610cbe565b61161e6020830186610cbe565b81810360408301526116308185610d1f565b905061163f6060830184610d87565b95945050505050565b7f4f6e6c7920746865206f776e65722063616e2073656c6c2061206365727469665f8201527f6963617465000000000000000000000000000000000000000000000000000000602082015250565b5f6116a2602583610cd7565b91506116ad82611648565b604082019050919050565b5f6020820190508181035f8301526116cf81611696565b9050919050565b5f6040820190506116e95f830185610cbe565b6116f66020830184610cbe565b939250505056fea26469706673582212205edc9b67bf54b2071f61173f4b76ce793273764ead1938801abfb4355b4e7a5d64736f6c63430008150033",
  "immutableReferences": {},
  "source": "// SPDX-License-Identifier: MIT\npragma solidity ^0.8.0;\n\ncontract REC {\n    struct Certificate {\n        uint256 id;\n        uint256 energyAmount;\n        string energySource;\n        address owner;\n        bool isForSale;\n        uint256 price;\n    }\n\n    mapping(uint256 => Certificate) public certificates;\n    uint256 private certificateCount = 0;\n\n\n    event CertificateCreated(uint256 id, uint256 energyAmount, string energySource, address owner);\n    event CertificateForSale(uint256 id, uint256 price);\n    event CertificateSold(uint256 id, address from, address to, uint256 price);\n\n    function createCertificate(uint256 energyAmount, string memory energySource) public {\n        certificateCount++;\n\n        certificates[certificateCount] = Certificate({\n            id: certificateCount,\n            energyAmount: energyAmount,\n            energySource: energySource,\n            owner: msg.sender,\n            isForSale: false,\n            price: 0\n        });\n\n        emit CertificateCreated(certificateCount, energyAmount, energySource, msg.sender);\n    }\n\n    function listForSale(uint256 certificateId, uint256 price) public {\n        Certificate storage cert = certificates[certificateId];\n        require(cert.owner == msg.sender, \"Only the owner can sell a certificate\");\n        require(cert.id > 0, \"Certificate does not exist\");\n\n        cert.isForSale = true;\n        cert.price = price;\n\n        emit CertificateForSale(certificateId, price);\n    }\n\n    function buyCertificate(uint256 certificateId) public payable {\n        Certificate storage cert = certificates[certificateId];\n\n        require(cert.id > 0, \"Certificate does not exist\");\n        require(cert.isForSale, \"Certificate is not for sale\");\n        require(msg.value >= cert.price, \"Insufficient funds sent\");\n        require(cert.owner != msg.sender, \"You already own this certificate\");\n\n        address previousOwner = cert.owner;\n\n        cert.owner = msg.sender;\n        cert.isForSale = false;\n\n        payable(previousOwner).transfer(msg.value);\n\n        emit CertificateSold(certificateId, previousOwner, msg.sender, msg.value);\n    }\n\n    function getMyCertificates() public view returns (uint256[] memory) {\n        uint256 count = 0;\n        for (uint256 i = 1; i <= certificateCount; i++) {\n            if (certificates[i].owner == msg.sender) {\n                count++;\n            }\n        }\n\n        uint256[] memory ownedCertificates = new uint256[](count);\n        uint256 index = 0;\n\n        for (uint256 i = 1; i <= certificateCount; i++) {\n            if (certificates[i].owner == msg.sender) {\n                ownedCertificates[index] = i;\n                index++;\n            }\n        }\n\n        return ownedCertificates;\n    }\n\n    function getAvailableCertificates() public view returns (uint256[] memory) {\n\n        uint256 count = 0;\n        for (uint256 i = 1; i <= certificateCount; i++) {\n            if (certificates[i].isForSale) {\n                count++;\n            }\n        }\n\n\n        uint256[] memory availableCertificates = new uint256[](count);\n        uint256 index = 0;\n\n        for (uint256 i = 1; i <= certificateCount; i++) {\n            if (certificates[i].isForSale) {\n                availableCertificates[index] = i;\n                index++;\n            }\n        }\n\n        return availableCertificates;\n    }\n\n    function getCertificateDetails(uint256 certificateId) public view returns (\n        uint256 id,\n        uint256 energyAmount,\n        string memory energySource,\n        address owner,\n        bool isForSale,\n        uint256 price\n    ) {\n        Certificate memory cert = certificates[certificateId];\n        require(cert.id > 0, \"Certificate does not exist\");\n\n        return (\n            cert.id,\n            cert.energyAmount,\n            cert.energySource,\n            cert.owner,\n            cert.isForSale,\n            cert.price\n        );\n    }\n}\n",
  "sourcePath": "/Users/kiranrajpurohit/Downloads/bclab/recs-dapp/contracts/REC.sol",
  "compiler": {
    "name": "solc",
    "version": "0.8.21+commit.d9974bed.Emscripten.clang"
  },
  "schemaVersion": "3.4.16",
  "updatedAt": "2025-04-11T07:57:53.791Z",
  "devdoc": {
    "kind": "dev",
    "methods": {},
    "version": 1
  },
  "userdoc": {
    "kind": "user",
    "methods": {},
    "version": 1
  }
}